:020000040800F2
:10000000D8ED0120E5020008230500081B050008C3
:100010001F05000803050008E905000800000000AE
:1000200000000000000000000000000025020008A1
:1000300007050008000000008102000825050008EF
:10004000FF020008FF020008FF020008FF0200088C
:10005000FF020008FF020008FF020008FF0200087C
:10006000FF020008FF020008FF020008FF0200086C
:10007000FF020008FF020008FF020008FF0200085C
:10008000FF020008FF020008FF020008FF0200084C
:10009000FF020008FF020008FF020008FF0200083C
:1000A000FF020008FF020008FF020008FF0200082C
:1000B000FF020008FF020008FF020008FF0200081C
:1000C000FF020008FF020008FF020008FF0200080C
:1000D000FF020008FF020008FF020008FF020008FC
:1000E000FF020008FF020008FF020008FF020008EC
:1000F000FF020008FF020008FF020008FF020008DC
:10010000FF020008FF020008FF020008FF020008CB
:10011000FF020008FF020008FF020008FF020008BB
:10012000FF020008FF020008FF020008FF020008AB
:10013000FF02000809050008FF020008FF0200088E
:10014000FF020008FF020008FF020008FF0200088B
:10015000FF020008FF02000800000000FF02000884
:10016000FF020008FF02000800000000000000007D
:10017000FF020008FF020008FF0200080000000064
:1001800000000000FF020008FF020008FF02000854
:10019000FF02000800000000000000000000000056
:1001A000000000000000000000000000FF02000846
:1001B000FF02000800000000FF020008000000002D
:1001C000000000000000000000000000000000002F
:1001D0000000000000000000FF020008FF0200080D
:1001E000FF020008FF020008FF020008FF020008EB
:1001F000FF020008FF020008FF020008FF020008DB
:10020000FF020008FF020008FF020008DFF810D01C
:1002100000F03AF900480047A1790008AFF30080E8
:10022000D8ED01202C4B19680868B0E8F04F80F336
:100230000988BFF36F8F4FF0000080F3118870477B
:100240000000000008480068006880F308884FF04C
:10025000000080F3148862B661B6BFF34F8FBFF31E
:100260006F8F00DF00BF00BF08ED00E0DFF80C007B
:10027000016841F470010160704700BF88ED00E043
:10028000EFF30980BFF36F8F134B1A681EF0100F46
:1002900008BF20ED108A20E9F04F106009B44FF03C
:1002A000100080F31188BFF34F8FBFF36F8F0FF0F3
:1002B00085FB4FF0000080F3118809BC19680868BD
:1002C000B0E8F04F1EF0100F08BFB0EC108A80F3BA
:1002D0000988BFF36F8F704718000020EFF3058087
:1002E000704700000648804706480047FEE7FEE7E3
:1002F000FEE7FEE7FEE7FEE7FEE7FEE7FEE7FEE7D6
:10030000590500080D0200082DE9F05F05460020A0
:1003100092469B4688460646814640241BE0284676
:1003200041464746224600F09EF853465A46C01AB8
:10033000914110D311461846224600F085F82D1A37
:1003400067EB01084F4622460120002100F07CF8AF
:1003500017EB00094E41201EA4F10104DFDC4846E2
:1003600031462A464346BDE8F09F00000649074A49
:100370000868504343F2390210440860400870474F
:100380000149086070470000FC0100206D4EC64125
:1003900040EA01039B0703D009E008C9121F08C007
:1003A000042AFAD203E011F8013B00F8013B521E87
:1003B000F9D27047D2B201E000F8012B491EFBD2FE
:1003C00070470022F6E710B513460A460446194660
:1003D000FFF7F0FF204610BD421C10F8011B00295A
:1003E000FBD1801A704710B5002200E0521C835CDC
:1003F0008C5CA34201D1002BF8D1D8B2E1B2401AF3
:1004000010BD30B504460020034600E05B1C93425B
:1004100003D2E05CCD5C401BF8D030BD30B50B465C
:10042000014600202022012409E021FA02F59D4224
:1004300005D303FA02F5491B04FA02F52844151EF8
:10044000A2F10102F1DC30BD202A04DB203A00FADF
:1004500002F1002070479140C2F1200320FA03F31B
:10046000194390407047202A04DB203A21FA02F019
:100470000021704721FA02F3D040C2F120029140DE
:100480000843194670470000064C074D06E0E06837
:1004900040F0010394E8070098471034AC42F6D3CB
:1004A000FFF7B8FE300D0108500D010870B58C182B
:1004B00010F8015B15F0070301D110F8013B2A1178
:1004C00006D110F8012B03E010F8016B01F8016B65
:1004D0005B1EF9D12B0705D40023521E0DD401F861
:1004E000013BFAE710F8013BCB1A921C03E013F82A
:1004F000015B01F8015B521EF9D5A142D8D300205F
:1005000070BD00BFFEE7704710B5402003F03EF914
:100510004FF4803003F03AF910BD00BFFEE700BF92
:10052000FEE7704710B500BF102080F31188BFF3BD
:100530004F8FBFF36F8F00BF10F018F818B14FF056
:1005400080500449086000BF002080F3118800BF7C
:1005500010BD000004ED00E01F48006840F470008A
:100560001D4908601D48006820F00100401C1B491F
:10057000086000BF19480068C0F340000028F9D0A7
:1005800016480830006820F003001449083108605C
:1005900000BF124808300068C0F381000028F8D17D
:1005A0000E4800680E4908400C49086000200B49BD
:1005B000083108600B48091F086000200749A03176
:1005C00008604FF41F0005490C3108604FF00060CF
:1005D000014980390860704788ED00E0003802402A
:1005E000FFFFF2FE0230030000BFFEE70FB4054B31
:1005F00010B503A9044A029800F018F810BC5DF881
:1006000014FB0000515400080002002002E008C85A
:10061000121F08C1002AFAD170477047002001E07C
:1006200001C1121F002AFBD1704700002DE9FF4FC6
:100630008BB09A460F460546002606E025280BD0CB
:1006400052460D9990476D1C761C28780028F5D1EC
:100650000FB03046BDE8F08F0024A046012260496B
:1006600000E0044315F8013F203B02FA03F0084282
:10067000F7D128782E2817D115F8010F44F004047B
:100680002A280ED06FF02F022878A0F13001092916
:100690000AD808EB880102EB410100EB01086D1C50
:1006A000F2E757F8048B6D1C287869283ED006DCE9
:1006B0000028CDD063280BD0642804D136E07328FD
:1006C00010D075284BD052460D999047761C85E086
:1006D00017F8040B8DF8000000208DF80100E946A2
:1006E000012003E057F8049B4FF0FF3061074FF003
:1006F000000401D40AE0641C44450DDA8442FADBAC
:1007000019F804100029F6D106E0641C8442FCDBD1
:1007100019F804100029F8D1264404E019F8010B57
:1007200052460D999047641EF8D257E001CF4FF022
:100730000A0B002802DA40422D2102E0210504D5EF
:100740002B218DF82410012103E0E10705D02021A1
:10075000F7E70DF1200908910CE00021F9E701CF3E
:100760004FF00A0BF9E75946FFF758FE01F1300246
:1007700009F8012D0028F6D1ADEB090000F1200B9E
:10078000600701D44FF00108D84502DDA8EB0B004B
:1007900000E000208046002406E009A85246005DE3
:1007A0000D999047641C761C08988442F5DB04E0A0
:1007B000302052460D999047761CB8F10001A8F1FF
:1007C0000108F5DC05E019F8010B52460D99904738
:1007D000761CBBF10001ABF1010BF4DC6D1C34E7BE
:1007E0000928010010B5044600BF00BF04F0CAFB91
:1007F0000022034941F288300AF040F810BD0000A1
:10080000E50700080349096860F30711014A116010
:1008100070470000083802400349096860F38C21E2
:10082000014A116070470000083802400349096816
:1008300060F34F31014A11607047000008380240F0
:10084000012807D10749096821F030013031054AF4
:10085000116005E00349096821F03001014A116087
:1008600070470000A438024010B570B90E4B1B68E9
:1008700061F31A630C4C23600B4B98331B6862F3D3
:100880001B63094C983423600DE0074B1B6861F330
:10089000DD63054C2360044B98331B6862F31F73C0
:1008A000014C9834236010BD0838024003490968A0
:1008B00060F35651014A1160704700000838024049
:1008C00005282BD2DFE800F0030A11182100154A91
:1008D000126861F30002134B1A6020E0114A12689B
:1008E00061F310420F4B1A6019E00E4A126861F36F
:1008F00018620C4B1A6012E00A4A7032126861F3F7
:100900000002084B70331A6009E0064A743212681C
:1009100061F30002034B74331A6000E000BF00BFB4
:1009200070470000003802402DE9FE4F04464FF0AA
:100930000009CA46CB4600200290019000250026FF
:1009400000F0A8F90090009820B1012812D00228E8
:100950003FD112E031480068C0F3803038B12F48F1
:100960000068C0F3003010B12D48206001E02D4830
:10097000206031E02B4820602EE028489C38006839
:10098000C0F38050029025489C380068C0F3881955
:1009900022489C38006800F00F0A20489C38006804
:1009A000C0F30240204911F800B0029810B91D4868
:1009B000019001E01B4801900AFB0BFC0198A0FB91
:1009C00009700146624600233846FFF79DFC20600F
:1009D00002E01448206000BF00BF1048983800684B
:1009E000C0F303151148465D2068F04060600B4875
:1009F00098380068C0F382250D48465D6068F04075
:100A0000E060064898380068C0F342350948465D02
:100A10006068F040A060BDE8FE8F0000A038024092
:100A2000006CDC0200127A00FA090108DA090108F8
:100A3000EA090108F209010810B501460020094B36
:100A400003EB1142D2F8002801F01F040123A34058
:100A50001A4001F01F040123A3409A4200D000E095
:100A6000012010BD0030024030B50024002500E018
:100A7000641C1120FFF7E0FF012802D0B4F5405FAD
:100A8000F6D31120FFF7D8FF012801D0002500E0A0
:100A90000125284630BD000008B510490968C1F39A
:100AA000803100910D49096821F4804101F58041B0
:100AB0000A4A1160BFF36F8F1146096860F30C3169
:100AC0001160BFF36F8F9DF800200449096862F33D
:100AD0008E31024A1160BFF36F8F08BDA03802400B
:100AE00010B501290FD1104B03EB1042D2F80028AA
:100AF00000F01F040123A3401A430B4C04EB1043E6
:100B0000C3F800280EE0084B03EB1042D2F800288F
:100B100000F01F040123A3409A43034C04EB10434D
:100B2000C3F8002810BD00000030024010B50129B4
:100B30000FD1104B03EB1042D2F8002800F01F0435
:100B40000123A3401A430B4C04EB1043C3F80028C5
:100B50000EE0084B03EB1042D2F8002800F01F040F
:100B60000123A3409A43034C04EB1043C3F800282D
:100B700010BD000000300240F0B504460D46164698
:100B80001F4614B90120FFF787FF0B48006864F384
:100B90009650094908600846006865F38E100860A1
:100BA0000846006866F3030008600846006867F3BB
:100BB00012400860F0BD000004380240234800687D
:100BC00020F00100401C2149086000BF1F48006858
:100BD000C0F340000028F9D01C480830006820F01D
:100BE00003001A490831086000BF1848083000683F
:100BF000C0F381000028F8D1144800681449084067
:100C00001249086000201149083108601148091F85
:100C100008600E48A030006820F4804000F5804055
:100C20000A49A0310860BFF36F8F0846006820F4BE
:100C300080500860BFF36F8F00200860BFF36F8F94
:100C40004FF41F0001490C31086070470038024022
:100C5000FFFFF2FE023003000D49096860F3010155
:100C60000B4A116000BF00BF00BF00BF00BF00BF44
:100C700000BF00BF00BF00BF00BF00BF00BF00BF7C
:100C800000BF00BF00BF00BF00BF00BF7047000033
:100C90000838024002480068C0F381007047000035
:100CA000083802401CB5044601211848FFF718FF18
:100CB00001211748FFF714FF684604F0E7FB012005
:100CC0008DF8070000208DF8040002208DF8060042
:100CD0002020009000208DF8050069460D4804F0A2
:100CE000DFFB072205210B4804F017FC002301223B
:100CF000214609480EF03AFB012107480EF08CFB13
:100D0000012105480EF024FB1CBD0000110040002D
:100D100003003000000C02400044004070B504465F
:100D20000D4600BF54B911A340F2253215A119A0F8
:100D3000FFF75CFC0020002000BF70BD00BF00BFBB
:100D400000BF606A78B1606A007B08280BD100BFE1
:100D500000BF2868616A496A884204D100BF00BFA9
:100D6000204600F0C1FA00BFE7E700004C574950A9
:100D70005C7372635C636F72655C646863702E633E
:100D8000000000006E6574696620213D204E554CC0
:100D90004C000000417373657274696F6E202225E8
:100DA0007322206661696C6564206174206C696ED1
:100DB0006520256420696E2025730A007CB50646EF
:100DC00000BF56B948A34FF469724DA153A0FFF775
:100DD0000DFC0020002000BF7CBD00BF746A00BF76
:100DE00054B941A340F2A63256A14CA0FFF7FEFB36
:100DF0000020002000BFEFE700BF00BF00BF606B16
:100E0000401C90B100BF00BF606B1E303C21B0FBA6
:100E1000F1F5B5F5803F01D34FF6FF75A583A08BA3
:100E200008B90120A08300BF00BFA06B401C90B197
:100E300000BF00BFA06B1E303C21B0FBF1F5B5F543
:100E4000803F01D34FF6FF75E583E08B08B90120A1
:100E5000E08300BF00BFA08BE18B884204DBE08B06
:100E6000002801DD0020A083A07B10B1A06A0190C2
:100E700010E094F824007F2802DCFF21019108E0B3
:100E8000C02803DB6FF07F41019102E04FF6FF7154
:100E9000019100BFE06A0090684608B1009838B937
:100EA000606A019908400090009840F080700090BE
:100EB00000BF00BF04F12401304607F0FFFC00BF73
:100EC00000BF01A9304607F083FD00BF00BF69469F
:100ED000304607F0EAFC304607F082FD0A21204642
:100EE00001F08EFB00BF77E74C5749505C7372638B
:100EF0005C636F72655C646863702E630000000061
:100F0000646863705F62696E643A206E65746966D6
:100F100020213D204E554C4C00000000417373656C
:100F20007274696F6E2022257322206661696C6578
:100F300064206174206C696E6520256420696E20D0
:100F400025730A00646863705F62696E643A2064A6
:100F500068637020213D204E554C4C002DE9F04136
:100F60000646746A00BF00BF0821204601F048FB16
:100F7000002204F12401304603F08CFD05460DB13A
:100F800000BF00BF607B401C60734FF4FA7707F22C
:100F9000F310394690FBF1F0608300BF00BFBDE85D
:100FA000F081000010B51248046800BF00BF1BE0CC
:100FB000606AC0B1606AC18B481E626AD083012931
:100FC00005D100BF00BF204601F0A6FC0BE0606A1F
:100FD000818B481E626A9083012904D100BF00BF43
:100FE000204601F085FC2468002CE1D110BD0000F2
:100FF000D40000202DE9F04106460C46174600BFFC
:101000006EB969A340F27C626DA175A0FFF7EEFA9C
:101010000020002000BF6FF00D00BDE8F08100BF90
:1010200000BF64B960A340F27D6277A16CA0FFF7B6
:10103000DDFA0020002000BF6FF00500EDE700BFE3
:1010400000BF206940B100BF40F27E6356A276A186
:101050007FA0FFF7CBFA00BF00BF00BF606940B1BF
:1010600000BF40F27F6350A283A179A0FFF7BEFAD0
:1010700000BF00BF00224FF49A71104607F07AFDBE
:101080002061206920B900BF00BF4FF0FF30C4E7E6
:1010900000BF20694089B0F59A7F08D200BF40F2B6
:1010A000866341A27EA16AA0FFF7A0FA00BF00BF3D
:1010B000607B18B9FFF75AF98949086088480068C9
:1010C000206000BF00BF2069406860610120616945
:1010D00008706169487096F82A006169887000207C
:1010E0006169C870206806F0EAFA6169486000200A
:1010F00061690881616948816169C860082F09D008
:10110000042F07D0032F08D1207B052802D0207B95
:10111000042802D170686169C860002061690861B3
:10112000616948616169886100250DE096F82A00CF
:10113000A84203DD06F12B00405D00E0002061695C
:101140001C314855681C85B2102DEFD3002505E0F1
:10115000002160692C304155681C85B2402DF7D3C1
:10116000002505E0002160696C304155681C85B29E
:10117000802DF7D35B486169C1F8EC000020208323
:10118000002504E06069F0304555681C85B2442DA7
:10119000F8D301223521204600F0E0FA39462046F6
:1011A00000F020FB002038E74C5749505C73726315
:1011B0005C636F72655C646863702E63000000009E
:1011C000646863705F6372656174655F6D73673ACD
:1011D000206E6574696620213D204E554C4C000000
:1011E000417373657274696F6E20222573222066C5
:1011F00061696C6564206174206C696E652025648A
:1012000020696E2025730A00646863705F637265ED
:101210006174655F6D73673A206468637020213D77
:10122000204E554C4C000000646863705F6372652B
:101230006174655F6D73673A20646863702D3E70FA
:101240005F6F7574203D3D204E554C4C00000000F2
:10125000417373657274696F6E206661696C656451
:101260003A2025732C2066696C652025732C206C30
:10127000696E652025640A00646863705F63726547
:101280006174655F6D73673A20646863702D3E6DAD
:1012900073675F6F7574203D3D204E554C4C0000C8
:1012A000646863705F6372656174655F6D73673AEC
:1012B00020636865636B207468617420666972736B
:1012C0007420706275662063616E20686F6C6420A4
:1012D00073747275637420646863705F6D73670004
:1012E000A0000020638253632DE9F84305466C6A31
:1012F000002600BF00BF0C21204601F081F9042226
:1013000021462846FFF776FE06460EBB0422322110
:10131000204600F023FA606A06F0FCF98046414658
:10132000204600F0B5FA204600F064FB228BF03234
:1013300091B2206908F00EFB009543230E4A216903
:1013400060680DF02FFF204600F018F800BF01E0A4
:1013500000BF00BF607B401C607342F2107707F251
:10136000F3104FF4FA7190FBF1F0608300BF00BFFF
:101370003046BDE8F8830000D40A010810B50446E1
:1013800000BF54B917A340F2C9621CA123A0FFF704
:101390002DF90020002000BF10BD00BF00BF206954
:1013A00040B900BF40F2CA630EA226A12FA0FFF7EA
:1013B0001DF900BF00BF00BF606940B900BF40F227
:1013C000CB6308A233A129A0FFF710F900BF00BF2B
:1013D000206910B1206908F0E3F800202061606105
:1013E00000BFD9E74C5749505C7372635C636F72FE
:1013F000655C646863702E6300000000646863705D
:101400005F64656C6574655F6D73673A20646863DB
:101410007020213D204E554C4C00000041737365F7
:101420007274696F6E2022257322206661696C6573
:1014300064206174206C696E6520256420696E20CB
:1014400025730A00646863705F64656C6574655F2A
:101450006D73673A20646863702D3E705F6F7574BA
:1014600020213D204E554C4C000000004173736517
:101470007274696F6E206661696C65643A202573C9
:101480002C2066696C652025732C206C696E6520A4
:1014900025640A00646863705F64656C6574655FE9
:1014A0006D73673A20646863702D3E6D73675F6F7C
:1014B000757420213D204E554C4C0000F8B5054672
:1014C0006C6A002600BF00BF002060620621204633
:1014D00001F096F8012221462846FFF78BFD0646CB
:1014E000002E3AD100BF00BF02223921204600F071
:1014F00035F9298D204600F03BFA04223721204699
:1015000000F02CF90121204600F06CF9032120465F
:1015100000F068F91C21204600F064F906212046FD
:1015200000F060F9204600F065FA00BF00BF228B92
:10153000F03291B2206908F00DFA00BF00BF0095AB
:101540004323164A216960680DF02CFE00BF00BFDE
:101550002046FFF713FF00BF01E000BF00BF607B24
:10156000401C6073607B062803DA617B01208840A1
:1015700000E03C2000EB4001C1EBC0104FF6FF71D2
:1015800001EAC00707F2F3104FF4FA7190FBF1F093
:10159000608300BF00BF3046F8BD0000D40A0108D8
:1015A00010B5104804681AE0606AB8B1606A408BF0
:1015B000012805DD606A408B401E616A48830DE0AA
:1015C000606A408B012809D1606A408B401E616AC5
:1015D000488300BF00BF204601F0B2F92468002C08
:1015E000E2D110BDD4000020F8B50646746A002090
:1015F000A062E0622448C07810B12448C06820632B
:101600002148007918B121480069606302E0206B2D
:10161000400860631C48407918B11C484069A063C9
:1016200001E0206BA063A0680069606216488079C1
:1016300038B11649886906F042F8A0620120A0730B
:1016400001E00020A0731048C07920B10F49C8699B
:1016500006F035F8E06200250EE005F108010B4ABE
:1016600052F8210006F02BF800906946284601F058
:1016700003FE681CC5B200BF05F108000249085C02
:1016800008B1022DE9DBF8BD10A50020E8A4002078
:1016900070B50446656A00BF00BF204607F0F0F849
:1016A0000949204607F00AF90749204607F0FDF8E6
:1016B0000549204607F08CF90C21284600F0A0FFD0
:1016C0002046FFF7FBFE70BDD00A010870B5054645
:1016D0006C6A00BF00BF0B48807878B10A498868FF
:1016E00005F0EDFF206200BF00BFA06800696062E6
:1016F00000BF00BF284600F001FF01E000BF00BFAF
:1017000070BD000010A50020E8A4002070B50546BB
:101710006C6A04B970BD207B042809D003DC98B141
:10172000032812D107E0052803D00A280DD101E0D3
:1017300000BF00BF00BF284607F0A2F8002060737A
:10174000284600F009FD06E005E000206073284609
:10175000FFF7B4FE00BF00BF00BFDBE770B5044673
:101760000E46154600BF208B801C2844442808D90B
:1017700000BF40F2F6430AA20F4910A0FEF736FF61
:1017800000BF00BF218B481C20836069F0304654A5
:10179000218B481C20836069F030455470BD0000E7
:1017A0004C5749505C7372635C636F72655C64682C
:1017B00063702E6300000000280B010841737365FD
:1017C0007274696F6E206661696C65643A20257376
:1017D0002C2066696C652025732C206C696E652051
:1017E00025640A0070B504460D4600BF208B4428CE
:1017F00008D300BF40F2015306A20CA11AA0FEF7C5
:10180000F5FE00BF00BF218B481C20836069F030CB
:10181000455470BD4C5749505C7372635C636F7282
:10182000655C646863702E63000000006468637028
:101830005F6F7074696F6E5F627974653A20646877
:1018400063702D3E6F7074696F6E735F6F75745F38
:101850006C656E203C20444843505F4F5054494FC4
:101860004E535F4C454E0000417373657274696F4F
:101870006E206661696C65643A2025732C20666968
:101880006C652025732C206C696E652025640A0028
:1018900070B504460D4600BF208B001D442808D9B2
:1018A00000BF4FF4A26312A217A127A0FEF79EFE6D
:1018B00000BF00BF290E228B501C20836069F030CE
:1018C0008154C5F30741228B501C20836069F0309E
:1018D0008154C5F30721228B501C20836069F030AE
:1018E0008154228B501C20836069F030855470BD78
:1018F0004C5749505C7372635C636F72655C6468DB
:1019000063702E6300000000646863705F6F707422
:10191000696F6E5F6C6F6E673A20646863702D3E0E
:101920006F7074696F6E735F6F75745F6C656E2036
:101930002B2034203C3D20444843505F4F505449B5
:101940004F4E535F4C454E00417373657274696F1F
:101950006E206661696C65643A2025732C20666987
:101960006C652025732C206C696E652025640A0047
:1019700070B504460D4600BF208B801C442808D952
:1019800000BF4FF4A1630AA20F4910A0FEF72EFE7C
:1019900000BF00BF290A228B501C20836069F030F1
:1019A0008154228B501C20836069F030855470BDB7
:1019B0004C5749505C7372635C636F72655C64681A
:1019C00063702E6300000000E40A01084173736530
:1019D0007274696F6E206661696C65643A20257364
:1019E0002C2066696C652025732C206C696E65203F
:1019F00025640A0010B5044600BF54B920A340F284
:101A0000DE6225A12DA0FEF7F1FD0020002000BF21
:101A100010BD00BF00BF606940B900BF40F2DF6386
:101A200017A230A13AA0FEF7E1FD00BF00BF00BF42
:101A3000208B442808D300BF4FF4DC6310A23EA1E2
:101A400033A0FEF7D3FD00BF00BFFF21228B501C47
:101A500020836069F030815406E00021228B501C05
:101A600020836069F0308154208B442803D3207E8A
:101A700000F0030010B1208B4428EED300BFC7E76D
:101A80004C5749505C7372635C636F72655C646849
:101A900063702E6300000000646863705F6F707491
:101AA000696F6E5F747261696C65723A2064686315
:101AB0007020213D204E554C4C0000004173736551
:101AC0007274696F6E2022257322206661696C65CD
:101AD00064206174206C696E6520256420696E2025
:101AE00025730A00646863705F6F7074696F6E5F5E
:101AF000747261696C65723A20646863702D3E6D22
:101B000073675F6F757420213D204E554C4C0A0061
:101B1000417373657274696F6E206661696C656488
:101B20003A2025732C2066696C652025732C206C67
:101B3000696E652025640A00646863705F6F707465
:101B4000696F6E5F747261696C65723A2064686374
:101B5000702D3E6F7074696F6E735F6F75745F6C1C
:101B6000656E203C20444843505F4F5054494F4ECF
:101B7000535F4C454E0A00002DE9F34F89B089466A
:101B80000020069005900A21FC48FEF71AFCB9F8DF
:101B90000A002C2804DA6FF001000BB0BDE8F08FCA
:101BA000D9F80410099881604FF0F00BB9F80800DB
:101BB000079000BF4C460AE06089ABEB00001FFABB
:101BC00080FB61890798401A80B20790246814B19D
:101BD00060895845F0DD14B96FF00100DDE75F461C
:101BE000DDF81CA060680890AEE10898C05D049024
:101BF00000264FF0FF38B81C80B203906189781C32
:101C0000814203DD791C0898455C07E0206818B123
:101C100020684068007800E0002005462E460498C1
:101C2000342870D00BDC03282CD003DC80B10128D1
:101C30006AD113E006283AD03328F9D169E0352873
:101C400077D0362876D03A2875D03B28F0D1C7E037
:101C5000002005460646781E87B2D9E000BF042D55
:101C60000CD0C7A340F27B52CBA1CEA0FEF7BEFCA6
:101C70000020002000BF6FF005008EE700BF4FF08E
:101C80000608C5E0042600BFB5420CDABCA34FF439
:101C9000B062CEA1C3A0FEF7A9FC0020002000BFC7
:101CA0006FF0050079E700BF4FF00708B0E000BF14
:101CB000E91705EB91718910A5EB810161B1B0A322
:101CC00040F28552C6A1B7A0FEF790FC002000208C
:101CD00000BF6FF0050060E700BF082D01DA28465D
:101CE00000E00820064600BFB5420EDAA4A34FF478
:101CF000B162B6A1ABA0FEF779FC0020002000BFC6
:101D00006FF0050049E71BE07EE000BF4FF00808D8
:101D10007EE000BF042D0FD099A340F28C529EA10B
:101D2000A0A0FEF763FC0020002000BF6FF00500BC
:101D300033E719E02CE03FE000BF4FF0030867E015
:101D400000BF012D0CD08EA34FF4B262A8A195A0C4
:101D5000FEF74CFC0020002000BF6FF005001CE7E0
:101D600000BF4FF0000853E000BF012D0CD084A34A
:101D700040F294529EA18BA0FEF738FC0020002078
:101D800000BF6FF0050008E700BF4FF001083FE01B
:101D900000BF042D0CD07AA34FF4B3627EA181A0C2
:101DA000FEF724FC0020002000BF6FF00500F4E6E1
:101DB00000BF4FF002082BE000BF042D0CD070A331
:101DC00040F29C5274A177A0FEF710FC0020002086
:101DD00000BF6FF00500E0E600BF4FF0040817E019
:101DE00000BF042D0CD066A34FF4B4626AA16DA0AD
:101DF000FEF7FCFB0020002000BF6FF00500CCE6E2
:101E000000BF4FF0050803E0002600BF00BF00BF81
:101E100000BFA81C384487B2002E73DD002002905A
:101E200000BF00BFB8F1000F02DBB8F10A0F08DBFA
:101E300000BF40F2AD5352A270A175A0FEF7D6FBD1
:101E400000BF00BF4D4810F80800002859D1042EEB
:101E500001DA304600E00420019002A92046039BED
:101E6000019A07F0FDFA042E28DD00BFF11706EBFA
:101E700091718910A6EB810161B141A340F2B35287
:101E80006DA148A0FEF7B2FB0020002000BF6FF05C
:101E9000050082E600BF0120384901F808000298D9
:101EA00005F00DFC694941F82800301FC6B20398BF
:101EB000001D80B2039008F10108B2E7042E04D19E
:101EC000029805F027FC029013E000BF012E0CD011
:101ED0002BA340F2BD525EA132A0FEF787FB00208B
:101EE000002000BF6FF0050057E600BF9DF8080016
:101EF00002900120214901F808005449029841F854
:101F0000280000BF6089B8421DDC6089381A87B29A
:101F10006089AAEB00001FFA80FA574512DABAF17D
:101F2000000F0FD0246800BF44B900BF40F2C9536E
:101F300013A24CA136A0FEF759FB00BF00BF60689A
:101F4000089000E008E000BF34B10898C05DFF28A9
:101F500002D05745FFF649AE00BF0848007850B19F
:101F60003A4908680021054A1170012804D101216D
:101F7000069100BF8FE08FE07EE0000010A50020FA
:101F80004C5749505C7372635C636F72655C646844
:101F900063702E63000000006C656E203D3D2034B0
:101FA00000000000417373657274696F6E20222512
:101FB0007322206661696C6564206174206C696EAF
:101FC0006520256420696E2025730A006C656E20EB
:101FD0003E3D206465636F64655F6C656E00000064
:101FE0006C656E20252034203D3D2030000000002F
:101FF0006C656E203D3D2031000000006368656324
:102000006B206465636F64655F696478000000003D
:10201000417373657274696F6E206661696C656483
:102020003A2025732C2066696C652025732C206C62
:10203000696E652025640A006465636F64655F6C82
:10204000656E20252034203D3D203000E8A400208E
:10205000696E76616C6964206465636F64655F6C4A
:10206000656E00006E657874207062756620776119
:1020700073206E756C6C0000022803D1012105915C
:1020800000BF08E0032804D101210591069100BF9B
:1020900001E000BF00BF00BF069830B100200690ED
:1020A0004FF06C0BEC20079084E5059830B10020D0
:1020B00005904FF02C0B6C2007907BE500206CE521
:1020C000F8B505466C6A00BF00BF0421204600F049
:1020D00097FA032221462846FEF78CFF0646EEB902
:1020E000022239212046FFF739FB298D2046FFF7D0
:1020F0003FFC2046FFF77EFC228BF03291B2206934
:1021000007F028FC00954323124A216960680DF00E
:1021100049F82046FFF732F900BF01E000BF00BFD9
:10212000607B401C6073607B0A2805DA607B4FF49B
:102130007A7110FB01F001E042F2107087B207F2F1
:10214000F3104FF4FA7190FBF1F0608300BF00BF11
:102150003046F8BDD40A01082DE9F84305466C6AFB
:1021600000BF00BF0321204600F04AFA03222146A7
:102170002846FEF73FFF06465EBB02223921204675
:10218000FFF7ECFA4FF410712046FFF7F1FB042241
:1021900032212046FFF7E2FA606A05F0BBFA80467A
:1021A00041462046FFF774FB2046FFF723FC228BB5
:1021B000F03291B2206907F0CDFB00954323134A1A
:1021C000216960680CF0EEFF2046FFF7D7F800BFEA
:1021D00001E000BF00BF607B401C6073607B0A2889
:1021E00005DA607B4FF47A7110FB01F001E042F2F6
:1021F000107087B207F2F3104FF4FA7190FBF1F010
:10220000608300BF00BF3046BDE8F883D40A0108F0
:102210002DE9F05F81461546DDF828B04F467C6A0F
:10222000D5F804A000BF00BF00BF00BF00BF00BFC3
:1022300000BFA06840B100BF40F2116344A24AA1B0
:102240004EA0FEF7D3F900BF00BF68892C2802DA40
:1022500000BF00BF75E09AF80000022802D000BF5E
:1022600000BF6EE000260CE007F12B00815D0AF153
:102270001C00805D814202D000BF00BF61E0701C85
:10228000C6B297F82A00B042EEDCDAF8040005F096
:1022900041FA2168884202D000BF00BF51E02946C0
:1022A0002046FFF769FC10B100BF00BF49E000BF46
:1022B00000BF3C48407810B900BF00BF41E03A4839
:1022C00090F80480B8F1050F18D100BF00BF207B43
:1022D000012806D13846FFF787F93846FEF73EFE5B
:1022E0002EE0207B032805D0207B042802D0207B11
:1022F000052825D13846FEF761FD21E0B8F1060F2B
:1023000011D1207B032808D0207B012805D0207B19
:10231000042802D0207B052805D100BF00BF384625
:10232000FFF7B6F90CE0B8F1020F09D1207B0628BF
:1023300006D100BF00BF002060833846FFF7C6F912
:1023400000BF0020A060284607F02AF9BDE8F09FF2
:102350004C5749505C7372635C636F72655C646870
:1023600063702E63000000007265706C79207761E5
:10237000736E27742066726565640000417373652F
:102380007274696F6E206661696C65643A202573AA
:102390002C2066696C652025732C206C696E652085
:1023A00025640A0010A50020E8A40020F8B5054621
:1023B0006C6A00BF00BF0021204600F021F9002018
:1023C00020626062A062E062A06360632063072213
:1023D00021462846FEF70EFE0646AEB92046FFF718
:1023E00009FB228BF03291B2206907F0B3FA009515
:1023F000432304F12002216960680CF0D3FE2046DB
:10240000FEF7BCFF00BF01E000BF00BF607B401CC7
:102410006073607B0A2805DA607B4FF47A7110FBE9
:1024200001F001E042F2107087B207F2F3104FF4AE
:10243000FA7190FBF1F0608300BF00BF284606F000
:102440001FFA0749284606F039FA0549284606F0DA
:102450002CFA0349284606F0BBFA3046F8BD0000C6
:10246000D00A0108F8B505466C6A00BF00BF052117
:10247000204600F0C5F8032221462846FEF7BAFDA3
:102480000646F6B9022239212046FFF767F9298D61
:102490002046FFF76DFA2046FFF7ACFA228BF032A8
:1024A00091B2206907F056FA0095432304F1200207
:1024B000216960680CF076FE2046FEF75FFF00BFE2
:1024C00001E000BF00BF607B401C6073607B0A2896
:1024D00005DA607B4FF4FA6110FB01F001E044F68D
:1024E000206087B207F2F3104FF4FA7190FBF1F01D
:1024F000608300BF00BF3046F8BD00002DE9F843FF
:1025000005466C6A00BF00BF0121204600F078F844
:10251000032221462846FEF76DFD0646002E4CD1CB
:10252000022239212046FFF719F9298D2046FFF7AD
:102530001FFA042232212046FFF710F9606A05F0E5
:10254000E9F8804641462046FFF7A2F904223621E9
:102550002046FFF703F9206A05F0DCF88046414683
:102560002046FFF795F9042237212046FFF7F6F8B9
:1025700001212046FFF736F903212046FFF732F903
:102580001C212046FFF72EF906212046FFF72AF9E5
:102590002046FFF72FFA228BF03291B2206907F024
:1025A000D9F900954323154A216960680CF0FAFDBA
:1025B0002046FEF7E3FE00BF01E000BF00BF607BE6
:1025C000401C6073607B062803DA617B0120884031
:1025D00000E03C2000EB4001C1EBC0104FF6FF7162
:1025E00001EAC00707F2F3104FF4FA7190FBF1F023
:1025F000608300BF00BF3046BDE8F883D40A0108FD
:10260000027B8A4203D001730022427342837047E7
:1026100070B50546002600BF65B949A340F27A228D
:102620004DA151A0FDF7E2FF0020002000BF6FF098
:102630000D0070BD00BF6C6A00BF00BF15F8310F00
:1026400020F00800287015F8310900F0200020B9AA
:1026500000BF00BF6FF00D00EBE7288DB0F5107FD5
:1026600004DA00BF00BF4FF0FF30E2E774B900BFEB
:1026700000BF3C2005F022FB044624B900BF00BF88
:102680004FF0FF30D5E76C6200BF20E000BF00BF15
:10269000606810B160680CF037FD00BF206940B180
:1026A00000BF40F29E2326A239A13FA0FDF79EFF66
:1026B00000BF00BF00BFA06840B100BF40F29F2331
:1026C0001FA243A138A0FDF791FF00BF00BF3C212E
:1026D0002046FDF776FE0CF0D9FC6060606820B9FA
:1026E00000BF00BF4FF0FF30A3E76068007A40F002
:1026F00020006168087244223A4960680CF09CFA34
:102700004322384960680CF013FB2A46364960685A
:102710000CF0F6FC00BF00BF2846FEF7CFFE0646D1
:102720002EB1284600F062F84FF0FF3081E795F8AF
:10273000310040F0080085F83100304679E70000AC
:102740004C5749505C7372635C636F72655C64687C
:1027500063702E63000000006E6574696620213D81
:10276000204E554C4C000000417373657274696FC4
:102770006E2022257322206661696C656420617475
:10278000206C696E6520256420696E2025730A001F
:102790007062756620705F6F7574207761736E2745
:1027A0007420667265656400417373657274696F45
:1027B0006E206661696C65643A2025732C20666919
:1027C0006C652025732C206C696E652025640A00D9
:1027D0007265706C79207761736E277420667265FC
:1027E00065640000D00A01081122000870B5054692
:1027F00000BF55B918A340F2C7421DA123A0FDF7A1
:10280000F5FE0020002000BF70BD00BF6C6A95F887
:10281000310020F0080085F8310000BF00BF002C17
:1028200017D0606820B160680CF06EFC002060601A
:1028300000BFA06840B100BF40F2DA4306A21DA16C
:1028400021A0FDF7D3FE00BF00BF00212046FFF707
:10285000D7FE00BFD8E700004C5749505C73726345
:102860005C636F72655C646863702E6300000000D7
:10287000646863705F73746F703A206E6574696624
:1028800020213D204E554C4C0000000041737365E3
:102890007274696F6E2022257322206661696C65EF
:1028A00064206174206C696E6520256420696E2047
:1028B00025730A007265706C79207761736E2774D6
:1028C0002066726565640000417373657274696F98
:1028D0006E206661696C65643A2025732C206669F8
:1028E0006C652025732C206C696E652025640A00B8
:1028F00070B505466C6A00BF00BF207B012805D07B
:10290000207B0A2802D0207B052804D100BF00BF0D
:102910002846FFF7A7FD70BD70B505466C6A00BF7D
:1029200000BF207B012805D0207B0A2802D0207B15
:10293000052804D100BF00BF2846FFF7C1FB70BDCA
:1029400070B505466C6A00BF00BF207B0C2802D022
:10295000207B062805D100BF00BF2846FEF7AEFD4C
:102960004FE0207B012811D100BF00BF607B05280C
:1029700003DC2846FFF7C2FD43E000BF00BF284646
:10298000FFF714FD2846FEF799FD3AE0207B082862
:102990000CD100BF00BF607B012803DC2846FEF796
:1029A000DDFA2EE02846FEF709FA2AE0207B05280A
:1029B00005D100BF00BF2846FFF754FD21E0207B72
:1029C000042811D100BF00BF607B082803DC284623
:1029D000FFF776FB15E000BF00BF2846FFF7E6FCD7
:1029E0002846FEF76BFD0CE0207B032809D1607BB5
:1029F000022803DA2846FFF7AFFB02E02846FEF77D
:102A00005DFD70BD10B5044600BF00BFFEF7CAFAF9
:102A1000002203494EF6602007F030FF10BD000091
:102A2000052A000810B5044600BF00BFFEF7B8FD38
:102A3000002203494FF4FA7007F020FF10BD000098
:102A4000252A000810B5002404E0204600F006F80E
:102A5000601CC4B2042CF8DB10BD000070B5064643
:102A6000C6EBC60000EB8000444901EBC00400BF88
:102A7000042E08DB00BF40F2812341A245A14CA0F7
:102A8000FDF7B4FD00BF00BF2078002866D0012804
:102A900004D0022815D0032861D154E00220207010
:102AA000002060700120A0700020E0706078324645
:102AB00004F10C0100F0F4FA05460DB100BF00BFAF
:102AC00059E0A078401EC0B2A07000283AD1E0784A
:102AD000401CC0B2E070042828D16078401C022855
:102AE00012DA6078401C3C4901EB800060B16078EC
:102AF000401C51F8200038B16078401C6070012003
:102B0000A0700020E07036E000BF00BFD4F81001D4
:102B100038B1002104F10C00D4F81031D4F814219C
:102B2000984700202070C4F8100124E0E078A070DD
:102B30006078324604F10C0100F0B2FA05460DB19E
:102B400000BF00BF17E0A068401EA06028B900BF0A
:102B500000BF00202070C4F810010CE00BE000BFA3
:102B600000BF40F2C52306A21CA111A0FDF73EFD47
:102B700000BF00BF00BF00BF70BD00001CA500204B
:102B80004C5749505C7372635C636F72655C646E32
:102B9000732E6300617272617920696E64657820BA
:102BA0006F7574206F6620626F756E64730000002D
:102BB000417373657274696F6E206661696C6564D8
:102BC0003A2025732C2066696C652025732C206CB7
:102BD000696E652025640A00B0000020756E6B6E7A
:102BE0006F776E20646E735F7461626C6520656ED2
:102BF0007472792073746174653A000010B50246EE
:102C000000BF11F8013B03F0C000C02800D110E064
:102C100009E010780C78A04201D0012010BD491CB9
:102C2000521C581EC3B2002BF3DC521C087800283B
:102C3000E7D100BF0020F1E72DE9F05F07468846A5
:102C40009146002400200646834600251BE0C5EB84
:102C5000C50000EB8000314901EBC004207800B9C9
:102C600013E0207803280CD120792D490978081A1F
:102C7000584506DD20792A490978081A00F0FF0B2B
:102C80002E46681CC5B2042DE1DB00BF042D18D10F
:102C9000042E08DAC6EBC60000EB80001F4911F8CD
:102CA0003000032805D000BF00BF4FF0FF30BDE863
:102CB000F09F3546C5EBC50000EB8000174901EBDE
:102CC000C00400BF00BF01202070154800782071AB
:102CD00013480078401C12490870C4F81081C4F8E9
:102CE00014913846FDF778FBFF2803D23846FDF7EC
:102CF00073FB00E0FF2082465246394604F10C0087
:102D0000FDF746FB002104F10C0000F80A102846EC
:102D1000FFF7A4FE6FF00400C9E700001CA5002027
:102D2000AC0000202DE9F04105460C46174664B181
:102D30000A4821680160204604F04AFB06463246F4
:102D4000294607A0FDF752FC03E0294608A0FDF73D
:102D50004DFC01200D490860BDE8F081F80100201C
:102D6000444E533A202573202D3E2025730D0A0032
:102D7000444E533A202573207265736F6C7665203C
:102D80006661696C65640D0A00000000F4010020B2
:102D90002DE9F04106460D4617469846164800684C
:102DA00040B13DB136B1307820B13046FDF714FB6B
:102DB000FF2803D96FF00D00BDE8F0810FA1304668
:102DC000FDF711FB18B9104828600020F4E73046E1
:102DD00004F012FA0446601C18B9304600F052F8AC
:102DE0000446601C10B12C600020E5E742463946DD
:102DF0003046FFF721FFDFE7A80000206C6F63611A
:102E00006C686F73740000007F00000108B51448FF
:102E100020F003001349086013A004F0EDF90090BE
:102E200000BF00BF14480068C0B90CF02FF9124968
:102E300008600846006888B100BF00BF00220F4943
:102E40000D4800680BF0F8FE00220D490A480068A2
:102E50000CF056F96946002000F00EFA08BD00009B
:102E60007FA90020B80000203230382E36372E32AD
:102E700032322E3232320000A8000020D00A01087F
:102E8000192F000870B50546002427E0C4EBC400E4
:102E900000EB8000144911F8300003281CD1C4EB6A
:102EA000C40000EB80000A4602EBC00000F10C01F8
:102EB0002846FDF798FA78B900BF00BF00BF00BFF1
:102EC00000BF00BFC4EBC40000EB8000064901EB6B
:102ED000C000D0F80C0170BD601CC4B2042CD5DB5E
:102EE0004FF0FF30F7E700001CA50020014600BFAF
:102EF00011F8012B02F0C000C02800D108E002E068
:102F0000491C501EC2B2002AFADC08780028EFD112
:102F100000BF481C704700002DE9FE4F1546DDF844
:102F200030B02889B0F5007F02DD00BF00BFACE003
:102F300028891A2802DA00BF00BFA6E02A890023E8
:102F400054480168284606F08BFA2989884279D1CD
:102F500050480668308804F0BFFB8046B8F1040F83
:102F600070DAC8EBC80000EB80004B4901EBC004ED
:102F70002078022878D103202070F07800F00F002C
:102F80006071B08804F0A8FB8246F08804F0A4FBCE
:102F90008146B07800F0800020B1607910B9BAF1B4
:102FA000010F02D000BF00BF5FE03A4801680C315A
:102FB00004F10C00FFF722FE10B100BF00BF54E087
:102FC000344800680C30FFF791FF071D46E0384693
:102FD000FFF78CFF074638680090786801903889C1
:102FE000ADF80800BDF80000B0F5807F2BD1BDF82A
:102FF0000200B0F5807F26D1BDF80800B0F5806FE3
:1030000021D1019804F086FBA0602449A068884281
:1030100001D90846A060D7F80A10C4F80C1100BF07
:1030200000BF00BF00BF00BF00BFD4F8100140B117
:1030300004F5867104F10C00D4F81031D4F8142191
:10304000984722E010E0BDF8080004F045FB07F1C6
:103050000A014718A9F101001FFA80F9B9F1000F20
:10306000B5DC00BF00BF00E00FE0D4F8100138B1BC
:10307000002104F10C00D4F81031D4F81421984741
:1030800000202070C4F8100100BF284606F088FA1E
:10309000BDE8FE8FB80000201CA50020803A090082
:1030A0002DE9F74F82B00746894600BF00BF00BF39
:1030B000022F08DB00BF4FF40F7348A24CA152A0AF
:1030C000FDF794FA00BF00BF00BF594800EB87002E
:1030D00018B1574850F8270040B900BF40F23D23CF
:1030E0003EA254A148A0FDF781FA00BF00BF002214
:1030F0004FF48871104605F03DFD0546002D66D061
:1031000000BF286840B100BF40F2432333A252A160
:103110003DA0FDF76BFA00BF00BFD5F8048000208A
:10312000C8F80000C8F80400C8F80800049804F0C3
:10313000D3FAA8F80000012088F802000002A8F8DD
:10314000040008F10C044E46761E00BF761CA34610
:10315000641C0020009007E030782070641C009808
:10316000401CC0B20090761C30782E2802D03078F7
:103170000028F1D100988BF8000030780028E5D1C4
:1031800004F8010B4FF48070ADF80400ADF80600B0
:1031900001982060AA88201D801A81B2284606F076
:1031A000D9FB234800EB87013522324800680BF039
:1031B000BFFD1F4800EB8702352329462D480068D4
:1031C0000BF0C2FF8246284606F0EAF901E04FF014
:1031D000FF3A504605B0BDE8F08F00004C5749500B
:1031E0005C7372635C636F72655C646E732E630004
:1031F000646E7320736572766572206F7574206FCC
:103200006620617272617900417373657274696FCF
:103210006E206661696C65643A2025732C206669AE
:103220006C652025732C206C696E652025640A006E
:10323000B0000020646E732073657276657220683A
:103240006173206E6F2049502061646472657373EE
:10325000207365740000000070627566206D7573E0
:103260007420626520696E206F6E652070696563E9
:1032700065000000A800002002280ADA054A12684A
:103280003AB131B129B10A681AB1034A0B6842F860
:1032900020307047A8000020B000002070B506461E
:1032A00024A0FDF7A3F903E04FF4FA700CF0EEF957
:1032B000284840680028F7D02648001D04F088F808
:1032C0000546294624A0FDF791F900202F49086002
:1032D00000232F4A2F4930A0FFF75AFD044644B976
:1032E0002C4804F075F8054629462FA0FDF77EF915
:1032F00009E0601D18B935A0FDF778F903E0214613
:103300003BA0FDF773F9002503E064200CF0BEF943
:103310006D1CB5F5FA7F03DA1C4800680028F4D06C
:103320001A48006810B936A0FDF760F900200CF0CB
:10333000DBF970BD444E53207461736B3A207761A2
:103340006974696E6720666F722049502E2E2E0DAB
:103350000A00000094DD0120444E53207461736B19
:103360003A20676F742049502025732C20726573B2
:103370006F6C76696E67207777772E626169647506
:103380002E636F6D2E2E2E0D0A000000F40100201A
:10339000252D0008F80100207777772E6261696497
:1033A000752E636F6D000000444E533A2077777797
:1033B0002E62616964752E636F6D202D3E2025732A
:1033C0002028636163686564290D0A00444E533AFE
:1033D0002072657175657374207175657565642CEF
:1033E0002077616974696E672E2E2E0D0A00000029
:1033F000444E533A206572726F722025640D0A00A4
:10340000444E533A2074696D656F75740D0A00005F
:1034100010B5044600BF00BF00F00AF800220349BF
:103420004FF47A7007F02AFA10BD0000113400083A
:1034300010B50448006818B100BF00BFFFF702FBD9
:1034400010BD0000A80000200349096860F3C711FF
:10345000014A11607047000000800240034909687A
:1034600060F34611014A116070470000008002407D
:103470000349096860F31041014A11607047000078
:10348000008002401FB500240020009001900290AF
:1034900003902548006964F3850023490861684664
:1034A000FDF742FA21490198884205D32049019845
:1034B000884201D2022430E01D490198884205D398
:1034C0001C490198884201D2032426E01949019839
:1034D000884205D318490198884201D200241CE093
:1034E00015490198884205D314490198884201D2B0
:1034F000012412E011490198884205D3104901982E
:10350000884201D2042408E00D490198884204D37E
:103510000C490198884200D805240348006964F3E7
:103520008500014908611FBD00800240002D310166
:10353000C00E16020087930300E1F50580D1F00864
:1035400080B2E60E00882A1100B50346587800F0D4
:103550002FF89878FFF782FFD878FFF775FF187972
:1035600000F084FC587900F05FFAD87900F0E0FAB6
:10357000187A00F02BFC987AFFF77AFFD87A00F0DF
:1035800049FA187B00F05AFA587B00F019FE00BD8A
:1035900000210170C170817081724170817141722E
:1035A000C17241710173C171017201714173704740
:1035B0000349096860F30411014A11607047000073
:1035C0000080024008B508490968C9084FF47A72BA
:1035D000B1FBF2F14143009100BF00BF00994A1EC8
:1035E00000920029F9D108BD0000002002783B4973
:1035F000096862F35961394A1160427937490968AB
:1036000062F38601354A116082783449096862F3B1
:103610005641324A116002793049096862F30D213E
:103620002E4A1160C2782D49096862F310412B4A75
:10363000116042782949096862F3D751274A11601D
:1036400082792649096862F34101244A1160C279EE
:103650002249096862F38F31204A1160027A1F49BA
:10366000896962F39A611D4A9161427A1B498969AD
:1036700062F35961194A9161827A1849896962F342
:103680001861164A9161C27A1449896962F35551E9
:10369000124A9161027B1149896962F390310F4AA4
:1036A0009161427B0D49896962F3C7110B4A9161AF
:1036B000827B0A49896962F38611084A9161C27B5B
:1036C0000649896962F3C401044A9161027C034995
:1036D000896962F38201014A91617047009002405A
:1036E00070B505461446002015B1012D45D120E0E6
:1036F000234E3160002015E001EB40124FF480169C
:103700001660C0EB401606EB801604EB06169660BA
:103710005E1E864204D901EB40162036D66000E0DA
:10372000D160401C9842E7D3164E3669154E316180
:1037300023E0154E3160002018E001EB40124FF0FD
:103740000046166044F2F0565660C0EB401606EB99
:10375000801604EB061696605E1E864204D901EBC5
:1037600040162036D66000E0D160401C9842E4D379
:10377000044EF668034EF16000BF00BF70BD00004C
:103780000400002000900240080000200149486128
:10379000704700000090024001460020024A526932
:1037A0000A4002B101207047009002400F2872D2F7
:1037B000DFE800F0080F161D242B323940474E5524
:1037C0005C636A00354AD26961F30002334BDA6107
:1037D00061E0324AD26961F34102304BDA615AE06A
:1037E0002E4AD26961F382022C4BDA6153E02B4AF4
:1037F000D26961F3C302294BDA614CE0274AD269EE
:1038000061F30412254BDA6145E0244AD26961F381
:103810004512224BDA613EE0204AD26961F38612FA
:103820001E4BDA6137E01D4AD26961F3C7121B4BA8
:10383000DA6130E0194AD26961F30822174BDA6184
:1038400029E0164AD26961F34922144BDA6122E079
:10385000124AD26961F38A22104BDA611BE00F4AE7
:10386000D26961F34D320D4BDA6114E00B4AD26933
:1038700061F38E32094BDA610DE0084AD26961F3D7
:10388000CF32064BDA6106E0044AD26961F3104296
:10389000024BDA6100BF00BF704700000090024099
:1038A00038B505460C46002000900A2D55D2DFE8B9
:1038B00005F0050C131A2128383F464D2848806929
:1038C00064F341002649886147E02548806964F334
:1038D00082002349886140E02148806964F38610B2
:1038E0001F49886139E01E48806964F3C7101C498C
:1038F000886132E01A48806964F34D301849886164
:103900002BE01748806964F3145015498861084614
:10391000806900900120FFF755FE114900988861E9
:103920001BE00F48806964F355500D49886114E02D
:103930000B48806964F31860094988610DE0084804
:10394000806964F359600649886106E0044880692B
:1039500064F39A600249886100BF00BF38BD00006F
:103960000090024000210170817141710172C170AB
:103970004173817281730174C1714172012181703F
:103980000021C173C17201210171002101734170D5
:10399000704721B1426822F00042426003E0426871
:1039A00042F00042426070470448006800F00100A5
:1039B00008B1012070470020FCE7000000900240A1
:1039C0000348006820F00100401C0149086070476E
:1039D0000090024001460868C0F30D4070470000A7
:1039E0000349096860F3CB21014A11607047000068
:1039F000008002400349096860F38E31014A11607A
:103A000070470000008002400148006880687047ED
:103A1000040000200349096860F35341014A116022
:103A200070470000008002400349096860F38A2162
:103A3000014A116070470000008002400349096894
:103A400060F39651014A1160704700000080024007
:103A500000B585B001212648FDF742F8012006F0A7
:103A60006FFD0320FCF722FF082207210020FCF74E
:103A7000FBFE06F039FD00F0EDF9FFF7A1FF00BFF6
:103A8000FFF792FF0128FBD01A48FFF781FD0120C4
:103A900018490870084600F05CF810B9002005B01D
:103AA00000BD6846FFF75EFF01208DF809008DF824
:103AB0000B008DF810008DF800008DF801008DF8D6
:103AC00003008DF80A0020208DF802008DF8040014
:103AD00000208DF807006846FFF788FD01210E20C1
:103AE000FFF764FE01210620FFF760FE0120D6E704
:103AF0000E00440084DD01200179427941EA02226E
:103B00000A49096C62F30F01084A1164C178090679
:103B1000827841EA0241427841EA02210278114367
:103B2000024A526C014A5164704700000080024012
:103B30000349096860F30C31014A116070470000C5
:103B40000080024010B5002204213D2004F09AFFBD
:103B500010BD10B50446FFF795FC00F03FF808B91A
:103B6000002010BD2046FFF7EFFC0120F9E7000020
:103B700030B503460C4600211648006963F3CF2098
:103B8000144D28612846006964F38A10286128468C
:103B9000006920F0020028612846006920F0010039
:103BA000401C286100BF491C0A4840691080094830
:103BB000006900F0010010B107488142F3D30648C4
:103BC000814201D1002030BD0248406910800120AF
:103BD000F9E7000000800240FFFF0F0038B5002029
:103BE0000090002500244FF400420021084600F018
:103BF00029F808B9002038BD002400E0641C1048F2
:103C00008442FBD300BF6D1C6A4600210846FFF7C3
:103C1000AFFF08B90020EEE7BDF8000000F4004057
:103C200010B107488542EED3002400E0641C04482C
:103C30008442FBD3854201D10020DCE70120DAE792
:103C4000FFFF0F0030B503460C46002116484069BF
:103C500062F30F00144D68612846006963F3CF20BA
:103C600028612846006964F38A10286128460069A3
:103C700020F00200801C28612846006920F0010025
:103C8000401C286100BF491C0748006900F0010082
:103C900010B106488142F6D30448814201D1002088
:103CA00030BD0120FCE7000000800240FFFF0F0054
:103CB0001CB500200090019001214FF44010FCF74A
:103CC0000FFF01213D48FCF70BFF01213B48401C41
:103CD000FCF706FF01213948801CFCF701FF012198
:103CE0003648C01CFCF7FCFE01213448401DFCF79F
:103CF000F7FE0B220221324801F00FFC01208DF863
:103D0000070002208DF8060000208DF80400042032
:103D1000009000208DF805006946294801F0C0FB9D
:103D20000B220121274801F0F8FB02200090694690
:103D3000244801F0B5FB0B221146234801F0EDFBAE
:103D40000B220C21204801F0E8FB0B220D211E481C
:103D500001F0E3FB4FF46050009069461A4801F00F
:103D60009FFB0B220721164801F0D7FB8020009013
:103D700002208DF806006946114801F091FB0B22E4
:103D80000421104801F0C9FB0B2205210D4801F068
:103D9000C4FB3020009002208DF8060069460948D7
:103DA00001F07EFB0B220121054801F0B6FB022049
:103DB00000906946024801F073FB1CBD0100300011
:103DC0000000024000080240000402400349096864
:103DD00060F34D31014A11607047000000800240DD
:103DE00000B500220F480068006800F00040B0B93C
:103DF0000C480068006800F4004080B90948006879
:103E0000006800F4807050B106480068006800F453
:103E1000007020B103480068FFF7DCFD0246104641
:103E200000BD00000800002038B5044600200090C6
:103E30000748006864F38200054908600846006886
:103E400000900120FFF7BEFB01490098086038BDD3
:103E50000080024010B501210348FCF767FE0021F5
:103E60000148FCF763FE10BD190010000349096802
:103E700060F34921014A1160704700000080024050
:103E80003EB5044600250020009001900290234892
:103E90000068006800F0004090B100200090802091
:103EA000FFF77AFC38B18020FFF770FC1C4880686F
:103EB00000201B4988609DE8070084E807003EBD9C
:103EC00016480068008800F40040B0B91348006844
:103ED000008800F4807080B110480068008800F409
:103EE000007050B10D4800680068C0F30D40051F18
:103EF0000A4800688068019000E0002500950748A6
:103F00000068029005480068C068044908609DE8A0
:103F1000070084E8070000BFD1E700000800002088
:103F200000900240F8B507460D4616460020009066
:103F30000024012F7DD100BF641C6A4601210020AE
:103F4000FFF716FE08B90020F8BDBDF8000000F02C
:103F5000040010B946488442EED34548844201D15A
:103F60000020F1E700244FF4805200210846FFF7BB
:103F700069FE08B90020E7E74FF47A700BF086FB82
:103F800000BF641C6A4601210020FFF7F1FD08B95B
:103F90000020D9E7BDF8000000F0200010B9344837
:103FA0008442EED33248844201D10020CCE76A46F5
:103FB0001F210020FFF7DCFD08B90020C4E76A4696
:103FC0001F210020FFF7D4FD08B90020BCE7BDF891
:103FD000000000F01C00182805D10120FFF700FDAB
:103FE0000120FFF707FDBDF8000000F01C000828C5
:103FF00005D10020FFF7F4FC0120FFF7FBFCBDF822
:10400000000000F01C00142805D10120FFF7E8FC97
:104010000120FFF7EFFCBDF8000000F01C001428A1
:1040200024D10020FFF7DCFC0120FFF7E3FC1DE0BA
:10403000FFE7280240EA463082B200210846FFF737
:1040400001FE08B900207FE7012E03D10120FFF710
:10405000D1FC02E00020FFF7CDFC012D03D10120AF
:10406000FFF7BEFC02E00020FFF7BAFC01206BE77F
:10407000FFFF0F0010B5012000F03EF801210520E0
:10408000FFF70EFC0120FFF7CFFE01210420FFF710
:1040900007FC01210020FFF703FC10BD10B5002133
:1040A0000420FFF7FDFB00210846FFF7F9FB002085
:1040B000FFF7BAFE01210520FFF7F2FB002000F018
:1040C0001BF810BD10B5FFF73DFD01210948FCF7B5
:1040D00007FD01210748401CFCF702FD01210548AE
:1040E000801CFCF7FDFCFFF7E3FDFFF7B1FC044685
:1040F000204610BD1900300038B50446002000905D
:104100000748006864F3C300054908600846006872
:1041100000900120FFF756FA01490098086038BD69
:104120000080024008B50849096841F29412B1FBC9
:10413000F2F14143009100BF00BF00994A1E009276
:104140000029F9D108BD00000000002010B5044688
:1041500019480068006800F0004008B1002010BD58
:10416000C4F30C00144909684860134800680068EB
:1041700040F040501049096808600F480068006826
:1041800040F000400C49096808600420FFF704FB78
:1041900038B10420FFF7FAFA0848406800200749C0
:1041A00048600120FFF7BEFF03480068C06802496D
:1041B00008600120D3E700000400002000900240C6
:1041C0000349096860F3D751014A11607047000044
:1041D000008002402DE9FC4705468846164600BF90
:1041E0005DB965A340F2BB2269A16DA0FCF7FEF9A1
:1041F0000020002000BFBDE8FC8700BF70892A288E
:1042000010DA00BF00BF7048408C401C81B26E487D
:104210004184C08B401C81B26B48C183304605F09D
:10422000BFF9E8E7776807F10E042088B0F5807FD2
:1042300008D12079062805D16079042802D1608848
:10424000082810D000BF00BF5F48008D401C81B21D
:104250005D480185C08B401C81B25B48C1833046FC
:1042600005F09EF9C7E75848408B401C81B256487C
:104270004183D4F80E000190A0690090281D08B178
:10428000686810B94FF0000907E000986968884233
:1042900001D1012000E000208146B9F1000F01D0DA
:1042A000012000E00220034604F1080201A928468B
:1042B00000F0B4FEE088B0F5807F03D0B0F5007F59
:1042C0004BD143E000BF00BFB9F1000F35D000BFB4
:1042D00000BF022003F000FAE080D4F80E00A061D5
:1042E0006868C4F80E0000BF95F82A00062808D0B8
:1042F00000BF40F2113320A2344935A0FCF776F913
:1043000000BF00BFA068C4F81200A089E082A068C6
:104310003860A089B880D8F80000A060B8F8040020
:10432000A081D8F80000C7F80600B8F8040078812A
:1043300031462846AA69904707E0281D08B16868F9
:1043400008B900BF01E000BF00BF0FE000BF00BF21
:1043500001A92846FCF7E2FC08E000BF00BF1A48AC
:10436000808D401C81B21848818500BF00BF304657
:1043700005F016F900BF3EE74C5749505C73726375
:104380005C6E657469665C6574686172702E63004A
:104390006E6574696620213D204E554C4C0000002E
:1043A000417373657274696F6E20222573222066D3
:1043B00061696C6564206174206C696E6520256498
:1043C00020696E2025730A0070610120EC0C010841
:1043D000417373657274696F6E206661696C6564A0
:1043E0003A2025732C2066696C652025732C206C7F
:1043F000696E652025640A0070B50546002412E048
:1044000004EB8400094901EB8000867C4EB104EB8B
:10441000840001EB80008068A84202D1204600F0B1
:1044200077F9601CC4B20A2CEADB70BD7C63012002
:104430002DE9FE4F064688464FF00A09CA460A276C
:104440000024002002900190BB46009000BF71E064
:1044500004EB8400774901EB8000857C0A2F04D1AE
:104460001DB900BF00BF67B262E0002D60D000BF81
:10447000012D0AD0022D08DA00BF40F22B136EA2E4
:1044800073A183A0FCF7B2F800BF00BF6EB104EBCC
:104490008401684A02EB810130684968884204D18E
:1044A00000BF00BF60B2BDE8FE8F012D2AD104EB32
:1044B0008400604951F8200088B104EB840001EBCE
:1044C0008000C17C0098814232DB4FFA84FB04EB10
:1044D0008400584901EB8000C07C009028E004EB88
:1044E0008400544901EB8000C17C029881421FDBAB
:1044F0004FFA84F904EB84004E4901EB8000C07C44
:10450000029015E0022D13DB042D11DA04EB840078
:10451000484901EB8000C17C0198814208DB4FFAD9
:1045200084FA04EB8400434901EB8000C07C0190D5
:10453000601CC4B20A2C8BDB08F0020020B90A2FE1
:1045400007D108F0010020B900BF00BF4FF0FF30D5
:10455000A9E70A2F02DAFCB200BF3AE0BAF10A0F6B
:1045600014DA0AF0FF0400BF00BF00BF04EB8400B0
:10457000304951F8200040B100BF40F271132EA223
:104580004DA143A0FCF732F800BF12E0B9F10A0FC9
:1045900003DA09F0FF0400BF0BE0BBF10A0F03DAF6
:1045A0000BF0FF0400BF04E000BF00BF4FF0FF307E
:1045B00079E700BF0A2C08DB00BF40F283131EA27C
:1045C00043A133A0FCF712F800BF00BF204600F063
:1045D0009FF800BF0A2C08DB00BF40F2871316A229
:1045E0003BA12BA0FCF702F800BF00BF00BF04EB0B
:1045F0008400104901EB8000807C40B100BF4FF483
:10460000C4730DA237A122A0FBF7F0FF00BF00BFCB
:1046100036B104EB8401074A02EB8101306848603F
:10462000002004EB8401034A02EB8101C87460B2EC
:1046300039E700007C6301204C5749505C7372637A
:104640005C6E657469665C6574686172702E630087
:104650007374617465203D3D204554484152505F5C
:1046600053544154455F50454E44494E47207C7C4D
:10467000207374617465203E3D204554484152507A
:104680005F53544154455F535441424C4500000030
:10469000417373657274696F6E206661696C6564DD
:1046A0003A2025732C2066696C652025732C206CBC
:1046B000696E652025640A006172705F7461626CC6
:1046C000655B695D2E71203D3D204E554C4C0000D0
:1046D00069203C204152505F5441424C455F534950
:1046E0005A4500006172705F7461626C655B695D60
:1046F0002E7374617465203D3D20455448415250ED
:104700005F53544154455F454D50545900000000DB
:1047100010B5044604EB8400194951F8200070B12B
:1047200000BF00BF04EB8401154A52F8210004F0D9
:1047300037FF002004EB8401114A42F821000020D9
:1047400004EB84010E4A02EB8101887404EB8401BE
:1047500002EB8101C87404EB840102EB81018860E3
:1047600004EB840102EB8101486004EB84001146F4
:1047700001EB800003490A68C2608988018210BD8C
:104780007C630120DE0A01082DE9FC4704460F4640
:104790001546A94600BF44B900BF40F275335EA27A
:1047A00063A167A0FBF722FF00BF00BF00BF47B9AE
:1047B00000BF40F2763358A26BA161A0FBF716FF51
:1047C00000BF00BF00BF45B900BF40F2773352A21F
:1047D00068A15BA0FBF70AFF00BF00BF0E213846AF
:1047E00004F0DCFF50B100BF00BF66484089401CA8
:1047F000644948816FF00100BDE8FC8721462868C4
:1048000001F013FC10B1DFF880817DE0287800F022
:10481000F000E02815D101208DF8000000208DF86F
:1048200001005E208DF80200687800F07F008DF8AE
:104830000300A8788DF80400E8788DF80500E846B4
:1048400061E02868A1680840D4E90112114088425B
:1048500010D0288880B24FF6A96188420AD004F1AE
:104860000C0020B1E06810B104F10C0902E06FF017
:104870000300C1E74548007800EB8000444901EBA4
:104880008000807C022818DB4049097801EB810117
:104890003F4A02EB8101D9F80000496888420CD1F7
:1048A0003848C08D401C81B23648C18537480278EF
:1048B0003946204600F06EF89EE700261BE006EB26
:1048C0008600334901EB8000807C022811DB06EB77
:1048D00086012F4A02EB8101D9F80000496888421D
:1048E00007D12A490E70F2B23946204600F052F83C
:1048F00082E7701C46B20A2EE1DB3A464946204662
:1049000000F0C8F878E700BF434604F12B023946AF
:10491000204600F0E9FA6FE74C5749505C73726328
:104920005C6E657469665C6574686172702E6300A4
:104930006E6574696620213D204E554C4C00000088
:10494000417373657274696F6E206661696C65642A
:104950003A2025732C2066696C652025732C206C09
:10496000696E652025640A007120213D204E554C5A
:104970004C00000069706164647220213D204E5536
:104980004C4C000070610120D80A01089001002001
:104990007C63012070B505460E46144600BF04EB4B
:1049A00084001F4901EB8000807C022808DA00BFE8
:1049B0004FF453731BA221A12CA0FBF717FE00BFDD
:1049C00000BF04EB8400164901EB8000807C0228C4
:1049D00017D104EB840001EB8000C07CE42810DBDD
:1049E00004EB84000A4602EB8000011D284600F01B
:1049F00063FA30B9032004EB8401094A02EB810118
:104A0000887404EB8400064901EB800000F10C037C
:104A100005F12B023146284600F066FA70BD000011
:104A20007C6301204C5749505C7372635C6E657403
:104A300069665C6574686172702E63006172705F94
:104A40007461626C655B6172705F6964785D2E731E
:104A500074617465203E3D204554484152505F5377
:104A6000544154455F535441424C45004173736572
:104A70007274696F6E206661696C65643A20257393
:104A80002C2066696C652025732C206C696E65206E
:104A900025640A002DE9F05F80460F46164608F1AE
:104AA0002B094FF0FF3A4146386801F0BEFA38B999
:104AB000387800F0F000E02802D00FB1386828B94B
:104AC00000BF00BF6FF00D00BDE8F09F0121384628
:104AD000FFF7AEFC0446002C0CDA00BF00BF3EB16D
:104AE00000BF00BF6448808C401C81B26248818452
:104AF0002046E9E704EB8400604901EB8000807CFC
:104B000030B9012004EB84015C4A02EB8101887416
:104B100000BF04EB8400594901EB8000807C012830
:104B20000FD004EB840001EB8000807C022808DABF
:104B300000BF40F2194352A257A161A0FBF756FDF6
:104B400000BF00BF04EB84004C4901EB8000807C77
:104B5000012800D03EB93946404600F0ADF9824602
:104B60000EB95046B0E700BF46B900BF40F22D4332
:104B700043A25DA152A0FBF739FD00BF00BF04EBCB
:104B800084003E4901EB8000807C02280FDB5949FC
:104B90000C7004EB8400394901EB800000F10C0338
:104BA0004A463146404600F09FF9824662E004EBF7
:104BB0008400324901EB8000807C01285AD14FF0FB
:104BC000000B354617E000BF6889298988420AD161
:104BD000286840B100BF40F23E4329A246A138A058
:104BE000FBF704FD00BF00BF287B012802D04FF077
:104BF000010B02E02D68002DE5D100BFBBF1000FD5
:104C000010D029890022032003F0B4FF05466DB1BE
:104C10003146284604F0FAFA40B1284604F0C0FCB8
:104C2000002503E03546284604F06EFFBDB104EBD5
:104C30008400124951F8200040B100BF00BF04EBCE
:104C400084010E4A52F8210004F0AAFC04EB84000F
:104C50000A4941F820504FF0000A00BF09E0064819
:104C6000808C401C81B20448818400BF00BF4FF09B
:104C7000FF3A00BF504627E7706101207C630120A6
:104C80004C5749505C7372635C6E657469665C6511
:104C900074686172702E63006172705F7461626C1F
:104CA000655B695D2E7374617465203D3D205045E0
:104CB0004E44494E47206F7220535441424C4500A8
:104CC000417373657274696F6E206661696C6564A7
:104CD0003A2025732C2066696C652025732C206C86
:104CE000696E652025640A007120213D204E554CD7
:104CF0004C000000900100206E6F207061636B65B6
:104D0000742071756575657320616C6C6F7765646F
:104D1000210000002DE9F84F0746884691469A4643
:104D2000DDF828B00020009000BF47B900BF40F276
:104D3000A5433EA243A147A0FBF758FC00BF00BF1C
:104D400000222A21032003F015FF05465DB900BFAC
:104D500000BF4A48808C401C81B2484881844FF093
:104D6000FF30BDE8F88F00BF68892A2808DA00BF45
:104D70004FF496632DA242A136A0FBF737FC00BF8B
:104D800000BF6E6806F10E0400BF00BF0D9802F070
:104D9000A3FCE08000BF97F82A00062808D000BFD7
:104DA0004FF4976321A243492AA0FBF71FFC00BFE1
:104DB00000BFDAF80000A060BAF80400A0810B98E8
:104DC0000168C4F812108088E082D9F800003060D1
:104DD000B9F80400B080D8F80000C6F80600B8F8AA
:104DE00004007081DBF80000C4F80E000C98006825
:104DF000A0614FF480702080082060800620207120
:104E0000042060714FF4C160B08129463846BA6908
:104E1000904700901948008B401C18490883284689
:104E200004F0BEFB002500989BE700004C5749505A
:104E30005C7372635C6E657469665C6574686172EC
:104E4000702E63006E6574696620213D204E554CBE
:104E50004C000000417373657274696F6E20666167
:104E6000696C65643A2025732C2066696C65202581
:104E7000732C206C696E652025640A007061012026
:104E8000636865636B20746861742066697273740B
:104E900020706275662063616E20686F6C64207399
:104EA0007472756374206574686172705F6864728F
:104EB00000000000EC0C01087FB504460D4600BF61
:104EC00000BF0121064A201D04F12B038DE82500B7
:104ED0000391044A19462046FFF71CFF04B070BD39
:104EE000DE0A0108D80A01082DE9F04104460E4601
:104EF00017469846756800BF94F82A00062808D01F
:104F000000BF40F2A3130EA2134914A0FBF76EFBDF
:104F100000BF00BFD8F800002860B8F80400A880DF
:104F20003868C5F80600B88868810820A88100BFE5
:104F300000BF31462046A2699047BDE8F0810000DD
:104F40004C5749505C7372635C6E657469665C654E
:104F500074686172702E6300EC0C01084173736514
:104F60007274696F6E206661696C65643A2025739E
:104F70002C2066696C652025732C206C696E652079
:104F800025640A0070B500BF00BF002441E004EBB7
:104F90008400214901EB8000857C45B3042D36D087
:104FA00004EB840001EB8000C07C401C04EB840116
:104FB000194A02EB8101C87404EB8400114601EB2D
:104FC0008000C07CF0280DDA04EB840001EB800047
:104FD000807C01280CD104EB840001EB8000C07CB4
:104FE000022805DB00BF00BF2046FFF791FB0EE063
:104FF00004EB8400084901EB8000807C032806D183
:10500000022004EB8401044A02EB81018874601CD5
:10501000C4B20A2CBBDB70BD7C6301202DE9F047D4
:1050200006460D461746984600BF96F82A00062801
:1050300008D000BF40F2C31334A23AA143A0FBF74B
:10504000D5FA00BF00BF00BF00BF5DB1286848B1FE
:105050003146286800F0E9FF20B9287800F0F00018
:10506000E02805D100BF00BF6FF00D00BDE8F0875C
:1050700041462846FFF7DCF90446002C01DA2046B9
:10508000F4E708F0040038B1042004EB8401394A45
:1050900002EB8101887406E0022004EB8401354AAA
:1050A00002EB8101887404EB8400324901EB80003B
:1050B000866000BF00BF04EB840001EB800039680C
:1050C000C160B9880182002004EB8401294A02EB07
:1050D0008101C87404EB8400114651F8200098B196
:1050E00004EB840051F82090002004EB840142F886
:1050F00021003B4606F12B0249463046FFF7F4FEFD
:10510000484604F04DFA00BF0020AFE74C57495025
:105110005C7372635C6E657469665C657468617209
:10512000702E63006E657469662D3E6877616464F5
:10513000725F6C656E203D3D204554484152505F82
:105140004857414444525F4C454E000041737365DB
:105150007274696F6E206661696C65643A202573AC
:105160002C2066696C652025732C206C696E652087
:1051700025640A007C6301202DE9F04104460E46B7
:105180004FF00E0860890E280BDC3848008D401C5B
:1051900081B236480185C08B401C81B23348C1833F
:1051A0005FE0656800BF00BFAF89287800F00100AC
:1051B000B0B12878012809D1687888B9A8785E2824
:1051C0000ED1607B40F01000607309E00622284990
:1051D0002846FBF716F918B9607B40F008006073A9
:1051E000082F03D0B7F5C16F2BD11DE096F8310021
:1051F00000F0200000B934E0C8F1000001B2204600
:1052000004F0CCFA58B100BF00BF40F24F5319A2CE
:105210001EA127A0FBF7EAF900BF00BF21E031463D
:10522000204601F08BF818E096F8310000F02000DD
:1052300000B916E0224606F12B013046FEF7CAFF00
:105240000BE00A48008D401C81B208480185C08BE4
:10525000401C81B20548C18303E000BF0020BDE8C7
:10526000F081204604F09CF90020F8E770610120ED
:10527000D80A01084C5749505C7372635C6E6574C0
:1052800069665C6574686172702E630043616E27A5
:1052900074206D6F7665206F766572206865616435
:1052A000657220696E207061636B65740000000098
:1052B000417373657274696F6E206661696C6564B1
:1052C0003A2025732C2066696C652025732C206C90
:1052D000696E652025640A0070B5044600BF44B9B4
:1052E00000BF40F2471312A217A11BA0FBF77EF9E3
:1052F00000BF00BF082002F0E1FC054625B900BF51
:1053000000BF4FF0FF3070BD2562612084F832008D
:105310007421332001551A4860611A48A06104F1D4
:105320002B002860204602F017F90020EBE7000070
:105330004C5749505C706F72745C65746865726E2E
:10534000657469662E6300006E6574696620213D90
:10535000204E554C4C000000417373657274696FA8
:105360006E206661696C65643A2025732C2066693D
:105370006C652025732C206C696E652025640A00FD
:10538000894700088576000870B50546284602F072
:105390003BF9064616B94FF0FF3070BD294630463E
:1053A000FFF7EAFE04462CB100BF00BF304604F010
:1053B000F7F800262046F0E710B5044694F83100CF
:1053C000C0F3001030B1204603F00AFB2046FDF781
:1053D0001FF902E0204603F053FA10BD05460026EF
:1053E0002C4600BF02F0A8F8064694F83100C0F33E
:1053F000001020B91EB1204603F0BAFA08E094F874
:105400003100C0F3001018B116B9204603F09BFA22
:10541000C8200AF03BF9E5E710B5044694F83100DE
:10542000C0F3001060B1094B5A7A99791878FEF7E9
:1054300079FD4FF496700AF029F9FEF71BFE01E0A2
:10544000FEF72CFE2046FFF7B7FF10BD84DD0120DC
:1054500070B504460D4600BF8021094809F07DFF64
:105460000028F9D0A1B2064809F06EFF00BF402124
:10547000034809F072FF0028F9D0204670BD0000F3
:105480000044004081627047816170474FF6FF71B0
:10549000016000218171017141710121C171704769
:1054A00070B50A4600211488A3B233E003F001046A
:1054B0006CB304684E000325B540AC430460947996
:1054C0004D00AC4005682C430460446801258D40C4
:1054D000AC434460446815798D402C434460846833
:1054E0004E000325B540AC438460D4794D00AC40F8
:1054F00085682C438460C4684E000325B540AC43E6
:10550000C46054794D00AC40C5682C43C4605B1046
:105510004C1CA1B2002BC9DC70BDF0B500230024E7
:105520004D07ED0E02FA05F3CD105DB1456A4E0749
:10553000F70E0F26BE40B5434562456A45EA0304AF
:1055400044620AE0056A4E07F70E0F26BE40B543D7
:105550000562056A45EA03040462F0BD70B50546BC
:105560000C4622460321284600F0D4F970BD000005
:105570002DE9FE4F044689469748B0F86200401C6A
:1055800081B29548A0F86210666830780007870EEF
:105590007942204604F002F910B92089042802D289
:1055A00000BF00BFFEE0606890F800A0606890F85F
:1055B00001B0BAF1000F03D0BAF1080F73D100E0C7
:1055C000EBE001258548007800F0F000E02800D1EC
:1055D000002582490868494600F027FD00B10025F2
:1055E00075B900BF00BF7C48B0F87400401C81B2A0
:1055F0007948A0F87410204603F0D2FFBDE8FE8F72
:1056000000BF00BF2089082802D200BF00BFC9E048
:10561000204600F0DFFC68B100BF00BF204603F069
:10562000BFFF6D48B0F86800401C81B26A48A0F81E
:105630006810E3E72221204604F0B0F8002851D09A
:105640003946204604F0AAF850B100BF00BF9823A5
:1056500063A26AA176A0FAF7C9FF00BF00BFADE060
:1056600021890022022003F085FA054615B900BF02
:1056700000BFA3E000BF698907F10800814207D29B
:1056800000BFA12356A274A169A0FAF7AFFF00BF23
:1056900000BF2146284603F0B9FD60B100BF00BF3E
:1056A000A5234FA200E066E079A161A0FAF79EFF72
:1056B00000BF00BF82E06E68784201B2284604F065
:1056C0006DF850B100BF00BFAB2345A27AA158A02E
:1056D000FAF78CFF00BF00BF70E0204603F060FFC8
:1056E0002C4610E06FF02101204604F057F850B12D
:1056F00000BF00BFB5233AA26FA14DA0FAF776FF15
:1057000000BF00BF5AE0D4F8048034480068F0605D
:10571000764800683061002088F80000A8F8020090
:10572000FF203072002070812B48B0F86000401CD0
:105730002949A1F860003946204604F02FF848B105
:1057400000BF00BFDA2326A269A139A0FAF74EFFF5
:1057500000BF0FE001200021FF230A46CDE9010927
:1057600000911E49204600F09DFF05460DB100BF87
:1057700000BF00BF11E000BF00BF1748B0F87000C5
:10578000401C81B21448A0F87010B0F86600401CAC
:1057900081B21148A0F8661000BF00BF204603F098
:1057A000FFFE2BE7204603F0FBFE0B48B0F86A0033
:1057B000401C81B20848A0F86A101FE7204603F099
:1057C000EFFE0548B0F87400401C81B20248A0F812
:1057D000741000BF12E70000706101207801002002
:1057E0004C5749505C7372635C636F72655C69709F
:1057F00076345C69636D702E6300000069636D70C0
:105800005F696E7075743A206D6F76696E6720708F
:105810002D3E7061796C6F616420746F2069702017
:10582000686561646572206661696C65640A000080
:10583000417373657274696F6E206661696C65642B
:105840003A2025732C2066696C652025732C206C0A
:10585000696E652025640A00636865636B2074685F
:10586000617420666972737420706275662063616A
:105870006E20686F6C642073747275637420746832
:10588000652049434D5020686561646572000000E1
:1058900069636D705F696E7075743A20636F7079BB
:1058A000696E6720746F206E657720706275662060
:1058B0006661696C65640A0069636D705F696E702A
:1058C00075743A20726573746F72696E67206F72B7
:1058D0006967696E616C20702D3E7061796C6F61D3
:1058E00064206661696C65640A0000007401002030
:1058F00043616E2774206D6F7665206F7665722028
:1059000068656164657220696E207061636B65749F
:10591000000000002DE9FE4306460F469046002297
:105920002421012003F026F905461DB900BF00BF60
:10593000BDE8FE8300BF6889242808D200BF4FF469
:10594000997320A226A131A0FAF750FE00BF00BF34
:10595000D6F8049000BF00BF00BF00BF00BF00BF6B
:1059600000BF00BF00BF00BF6C68277084F80180D3
:105970000020A080E08071686A6802F108001C22A3
:10598000FAF706FD002060806989204600F018FBC8
:1059900060802848B0F86000401C2649A1F86000EB
:1059A000D9F80C00029001200021FF2302AACDE9C2
:1059B0000010284600F01CFE284603F0F1FD00BF51
:1059C000B6E700004C5749505C7372635C636F72BA
:1059D000655C697076345C69636D702E63000000ED
:1059E000636865636B2074686174206669727374A0
:1059F00020706275662063616E20686F6C64206938
:105A0000636D70206D6573736167650041737365C5
:105A10007274696F6E206661696C65643A202573E3
:105A20002C2066696C652025732C206C696E6520BE
:105A300025640A007061012070B505460C462246B7
:105A40000B212846FFF766FF70BD70B504460D4672
:105A5000607B022807D0607B01280AD1E08910B161
:105A6000E089A84205DD2946204600F053FA0120CE
:105A7000607370BD00BF00BF03480449086004485C
:105A80000449086070470000E00000016001002048
:105A9000E0000002640100202DE9F84F0746894626
:105AA00090467A48B0F87A00401C81B27748A0F856
:105AB0007A10D7F804A09AF800000007800E41423F
:105AC000384603F06BFE10B9788908280EDA38469C
:105AD00003F066FD6D48B0F88000401C81B26B4851
