:020000040800F2
:1000000058350420E5020008370500082F050008D0
:1000100033050008170500080D0600080000000061
:1000200000000000000000000000000025020008A1
:100030001B050008000000008102000849050008B7
:10004000FF020008FF020008FF020008FF0200088C
:10005000FF020008FF020008FF020008FF0200087C
:10006000FF020008FF020008FF020008FF0200086C
:10007000FF020008FF020008FF020008FF0200085C
:10008000FF020008FF020008FF020008FF0200084C
:10009000FF020008FF020008FF020008FF0200083C
:1000A000FF020008FF020008FF020008FF0200082C
:1000B000FF020008FF020008FF020008FF0200081C
:1000C000FF020008FF020008FF020008FF0200080C
:1000D000FF020008FF020008FF020008FF020008FC
:1000E000FF020008FF020008FF020008FF020008EC
:1000F000FF020008FF020008FF020008FF020008DC
:10010000FF020008FF020008FF020008FF020008CB
:10011000FF020008FF020008FF020008FF020008BB
:10012000FF020008FF020008FF020008FF020008AB
:10013000FF0200081D050008FF020008FF0200087A
:10014000FF020008FF020008FF020008FF0200088B
:10015000FF020008FF02000800000000FF02000884
:10016000FF020008FF02000800000000000000007D
:10017000FF02000839050008FF0200080000000027
:1001800000000000FF020008FF020008FF02000854
:10019000FF02000800000000000000000000000056
:1001A000000000000000000000000000FF02000846
:1001B000FF02000800000000FF020008000000002D
:1001C000000000000000000000000000000000002F
:1001D0000000000000000000FF020008FF0200080D
:1001E000FF020008FF020008FF020008FF020008EB
:1001F000FF020008FF020008FF020008FF020008DB
:10020000FF020008FF020008FF020008DFF810D01C
:1002100000F044F90048004729A70008AFF3008028
:10022000583504202C4B19680868B0E8F04F80F36B
:100230000988BFF36F8F4FF0000080F3118870477B
:100240000000000008480068006880F308884FF04C
:10025000000080F3148862B661B6BFF34F8FBFF31E
:100260006F8F00DF00BF00BF08ED00E0DFF80C007B
:10027000016841F470010160704700BF88ED00E043
:10028000EFF30980BFF36F8F134B1A681EF0100F46
:1002900008BF20ED108A20E9F04F106009B44FF03C
:1002A000100080F31188BFF34F8FBFF36F8F15F0ED
:1002B00023F94FF0000080F3118809BC1968086821
:1002C000B0E8F04F1EF0100F08BFB0EC108A80F3BA
:1002D0000988BFF36F8F704718000020EFF3058087
:1002E000704700000648804706480047FEE7FEE7E3
:1002F000FEE7FEE7FEE7FEE7FEE7FEE7FEE7FEE7D6
:100300007D0500080D0200082DE9F05F054600207C
:1003100092469B4688460646814640241BE0284676
:1003200041464746224600F0A8F853465A46C01AAE
:10033000914110D311461846224600F08FF82D1A2D
:1003400067EB01084F4622460120002100F086F8A5
:1003500017EB00094E41201EA4F10104DFDC4846E2
:1003600031462A464346BDE8F09F00000649074A49
:100370000868504343F2390210440860400870474F
:100380000149086070470000800300206D4EC6419F
:1003900040EA01039B0703D009E008C9121F08C007
:1003A000042AFAD203E011F8013B00F8013B521E87
:1003B000F9D27047D2B201E000F8012B491EFBD2FE
:1003C00070470022F6E710B513460A460446194660
:1003D000FFF7F0FF204610BDCAB2401E10F8011F03
:1003E0008A4202D00029F9D100207047421C10F83F
:1003F000011B0029FBD1801A704710B5002200E0D4
:10040000521C835C8C5CA34201D1002BF8D1D8B282
:10041000E1B2401A10BD30B504460020034600E0AA
:100420005B1C934203D2E05CCD5C401BF8D030BD36
:1004300030B50B46014600202022012409E021FAB4
:1004400002F59D4205D303FA02F5491B04FA02F5B1
:100450002844151EA2F10102F1DC30BD202A04DB84
:10046000203A00FA02F1002070479140C2F12003C7
:1004700020FA03F3194390407047202A04DB203A06
:1004800021FA02F00021704721FA02F3D040C2F1B4
:10049000200291400843194670470000064C074D62
:1004A00006E0E06840F0010394E807009847103444
:1004B000AC42F6D3FFF7AEFEE06801080069010820
:1004C00070B58C1810F8015B15F0070301D110F816
:1004D000013B2A1106D110F8012B03E010F8016B43
:1004E00001F8016B5B1EF9D12B0705D40023521EC6
:1004F0000DD401F8013BFAE710F8013BCB1A921C2E
:1005000003E013F8015B01F8015B521EF9D5A1422B
:10051000D8D3002070BD00BFFEE7704710B5402063
:1005200004F074FD4FF4803004F070FD10BD00BF86
:10053000FEE700BFFEE7704710B5024814F034FA3A
:1005400010BD000018F1012010B500BF102080F38D
:100550001188BFF34F8FBFF36F8F00BF15F0C2FD3F
:1005600018B14FF080500449086000BF002080F3AC
:10057000118800BF10BD000004ED00E01F480068B6
:1005800040F470001D4908601D48006820F001001B
:10059000401C1B49086000BF19480068C0F34000B8
:1005A0000028F9D016480830006820F003001449EC
:1005B0000831086000BF124808300068C0F38100AD
:1005C0000028F8D10E4800680E4908400C49086020
:1005D00000200B49083108600B48091F0860002003
:1005E0000749A03108604FF41F0005490C3108602D
:1005F0004FF00060014980390860704788ED00E0E5
:1006000000380240FFFFF2FE0230030000BFFEE7A9
:100610000FB4054B10B503A9044A029800F018F86E
:1006200010BC5DF814FB0000597D00088403002015
:1006300002E008C8121F08C1002AFAD170477047AB
:10064000002001E001C1121F002AFBD17047000009
:100650002DE9FF4F8BB09A460F460546002606E06F
:1006600025280BD052460D9990476D1C761C287892
:100670000028F5D10FB03046BDE8F08F0024A04629
:100680000122604900E0044315F8013F203B02FAD3
:1006900003F00842F7D128782E2817D115F8010F5A
:1006A00044F004042A280ED06FF02F022878A0F11D
:1006B000300109290AD808EB880102EB410100EB5F
:1006C00001086D1CF2E757F8048B6D1C2878692827
:1006D0003ED006DC0028CDD063280BD0642804D19E
:1006E00036E0732810D075284BD052460D999047AC
:1006F000761C85E017F8040B8DF8000000208DF8BB
:100700000100E946012003E057F8049B4FF0FF3059
:1007100061074FF0000401D40AE0641C44450DDA7F
:100720008442FADB19F804100029F6D106E0641CB3
:100730008442FCDB19F804100029F8D1264404E0B7
:1007400019F8010B52460D999047641EF8D257E0F4
:1007500001CF4FF00A0B002802DA40422D2102E0BF
:10076000210504D52B218DF82410012103E0E10798
:1007700005D02021F7E70DF1200908910CE00021B8
:10078000F9E701CF4FF00A0BF9E75946FFF750FEA2
:1007900001F1300209F8012D0028F6D1ADEB090076
:1007A00000F1200B600701D44FF00108D84502DDAD
:1007B000A8EB0B0000E000208046002406E009A81A
:1007C0005246005D0D999047641C761C089884423F
:1007D000F5DB04E0302052460D999047761CB8F1C5
:1007E0000001A8F10108F5DC05E019F8010B5246FB
:1007F0000D999047761CBBF10001ABF1010BF4DCC5
:100800006D1C34E70928010030B90A4A126822F049
:100810000202084B1A6006E0064A126822F0020241
:10082000921C044B1A60034A126861F30002014BE8
:100830001A60704704740140024909680143014A83
:10084000116070470474014001490860704700005E
:100850000C740140014908607047000010740140A9
:1008600001490860704700001474014010B5044647
:1008700000BF00BF06F00CF80022034941F28830A7
:100880000DF084FC10BD00006D08000870B5054631
:100890002E467068446A41F28400015941F2A40076
:1008A000015141F28800015941F2A80001514FF471
:1008B000845000592349884214D10121304613F055
:1008C0005FFF1F280ED141F28D00005D012809DC79
:1008D00041F28E00005D012804DB41F28E00005DD4
:1008E00010280BDD20220521284600F08FFB022076
:1008F00084F85D00284600F08FFB22E0284600F0D7
:10090000B4F818B1284600F087FB1AE094F85C00B0
:10091000012816D094F85C00022812D094F85C00EC
:1009200004280ED0E06F20B90021284600F020FBFB
:1009300007E0E06F28B104F180012846E26F00F083
:100940003BFB70BD5553424310B502460C4613465F
:100950005868416A0020C86710BD2DE9F04107467C
:100960000C46B846D8F80400456A05F1800605F142
:10097000680000EB8402001F00EB840120460AF0AF
:100980005FFF05F1640050F82400401E000E307037
:1009900005F1640050F82400401E000C707005F151
:1009A000640030F82400401E000AB07005F16400B5
:1009B00010F82400401EF07005F1680050F8240083
:1009C000000E307105F1680050F82400000C7071C1
:1009D00005F1680030F82400000AB07105F16800E4
:1009E00010F82400F0710820E8670020BDE8F081CD
:1009F0002DE9F04304460D4616461F46A046D8F89A
:100A00000400D0F82490F11909F1640050F8250091
:100A1000814207D921220521204600F0F7FA012062
:100A2000BDE8F0830020FBE72DE9F04104460E46C7
:100A300027467868456A95F85D00022807D181212C
:100A4000384614F0F4F9002085F85D000BE006F05C
:100A50008000802807D195F85D00012803D001218E
:100A6000204600F085FABDE8F0812DE9F041054609
:100A700001262F467868446A41F28F00005D2328E2
:100A800076D00EDC1A2829D006DC002856D00328A0
:100A90004CD0122874D111E01B2817D01E286FD11A
:100AA0002CE02A285AD004DC252837D0282867D102
:100AB0002CE02F284AD05A2862D117E041F28D004D
:100AC000015D284600F01CF9064660E041F28D0009
:100AD000015D284600F0C4FA064658E041F28D0058
:100AE000015D284600F054F9064650E041F28D00C1
:100AF000015D284600F034F9064648E041F28D00D9
:100B0000015D2846FFF720FF064640E041F28D00D8
:100B1000015D284600F054F9064638E041F28D00A8
:100B2000015D2846FFF719FF064630E041F28D00CF
:100B3000015D284600F0E2F9064628E041F28D000A
:100B4000015D284600F095FA064620E041F28D004E
:100B5000015D284600F0A5FA064618E041F28D0036
:100B6000015D284600F0D7FA064610E000E007E0F5
:100B700041F28D00015D284600F04DF8064606E082
:100B800020220521284600F041FA012600BF00BFBF
:100B90003046BDE8F0812DE9F04104460F46264677
:100BA0007068456A95F85C00012804D003280CD0D1
:100BB00004280FD108E02046FFF757FF18B10121A4
:100BC000204600F0D5F906E000BF0021204600F0E5
:100BD000CFF900E000BF00BFBDE8F0812DE9F04192
:100BE00004460F4626467068456A95F85C00022860
:100BF00005D007280CD12046FFF748FE08E0204624
:100C0000FFF733FF18B10121204600F0B1F900BF12
:100C100000BFBDE8F0812DE9F04107460D46B8461A
:100C2000D8F80400466A06F1800400202070607045
:100C3000A0700820E07006F1680000EB8502001F3C
:100C400000EB850128460AF0FBFD06F1640050F830
:100C50002500401E000E207106F1640050F82500AA
:100C6000401E000C607106F1640030F82500401E43
:100C7000000AA07106F1640010F82500401EE07122
:100C80000220207206F1680050F82500000C607206
:100C900006F1680030F82500000AA07206F168002D
:100CA00010F82500E0720C20F0670020BDE8F0810C
:100CB00070B505462E467068446A072084F85C00CB
:100CC000002084F85D0020660C494FF485500151E6
:100CD000002141F2A80001514FF485500151001D3F
:100CE00001510121304613F089FC1F2304F5845281
:100CF0000121304613F0FCFA70BD000055534253F9
:100D00002DE9F047074688460024A146BA46DAF89E
:100D10000400456A41F29000405D00F0010010B10E
:100D20000E4E05240DE0404607F082F9064641F2DA
:100D300088004059242803D241F28800445900E039
:100D40002424EC6704E0641E315D05F18000015548
:100D5000002CF8D14846BDE8F08700000C030020C5
:100D600070B502460D46082114466068436A0820A3
:100D7000D86706E0481EC1B20448465C03F1800013
:100D800046540029F6D1002070BD00003403002035
:100D900070B502460D46082114466068436A082073
:100DA000D86706E0481EC1B20448465C03F18000E3
:100DB00046540029F6D1002070BD00002C0300200D
:100DC0002DE9FC5F82468946D346DBF80400446A7D
:100DD00004F5845000F10F0694F85C0007284FD109
:100DE00041F28C00005D00F08000802807D02022B6
:100DF0000521504600F00AF90120BDE8FC9FB078BB
:100E00000006F17840EA0140317940EA0120717929
:100E10000843C117C4E91C01307AF17940EA012086
:100E2000A06749465046A36F226FFFF7E1FD08B166
:100E30000120E2E704F1680050F829000021D4E91C
:100E40001C32A3FB007C02FB00C003FB0100C4E9D1
:100E50001C7004F1680151F82910A06F4843A06785
:100E600041F288000059A16F884206D02022052156
:100E7000504600F0CBF80120BFE7012084F85C0069
:100E80004FF48050E067A06FB0F5805F01D2A06F93
:100E900001E04FF4805085B204F18000CDE90005F7
:100EA000D4E91C733A4648460AF0DEFC30B13A22D7
:100EB0000421504600F0AAF801209EE7ABB204F1ED
:100EC00080028121584613F09DFAD4E91C20521962
:100ED00040F10000C4E91C20A06F401BA06741F254
:100EE000A8000059411B41F2A8000151A06F10B9A0
:100EF000042084F85C0000207FE70000F0B5034682
:100F00000F4612221E467068416A01F180040A4DA4
:100F100002E0521EA85CA054002AFAD141F28800D7
:100F20004058122804D241F288004058C86701E0B6
:100F30001220C8670020F0BD1403002070B50546DC
:100F40002E467068446A072084F85C00012084F80B
:100F50005D00002020660121304613F04FFB1F2367
:100F600004F584520121304613F0C2F970BD00002F
:100F70002DE9F04105460E462F467868446A41F255
:100F8000AC0006510B494FF485500151072084F8FD
:100F90005C000D2304F585528121384613F032FAA6
:100FA0001F2304F584520121384613F0A1F9BDE84E
:100FB000F0810000555342532DE9F04706460F4695
:100FC0009046B146D9F80400446A41F288000059BD
:100FD000404501D9404602E041F28800005985B2FF
:100FE00041F2A8000059411B41F2A8000151002123
:100FF000001D0151032084F85C002B463A468121F4
:10100000484613F0FFF9BDE8F0870000014B9970E6
:101010001A7470471403002070B505462E46706898
:10102000446A41F28800005950B141F28C00005DE1
:1010300030B994F85D0018B90121304613F0F7FE7D
:101040008121304613F0F3FE94F85D00022806D1AA
:101050001F2304F584520121304613F049F970BD75
:1010600010B502460C4613465868416A0020C8670E
:1010700010BD2DE9F04104468846002627467868D1
:10108000456A41F28800405938B1202205212046A6
:10109000FFF7BCFF0120BDE8F0810020E867304683
:1010A000F9E72DE9F04106460F46B046D8F80400AE
:1010B000446A04F5845000F10F0541F29000005D90
:1010C00000F00200022807D1242205213046FFF754
:1010D0009DFF0120BDE8F081A8780006E97840EA8C
:1010E0000140297940EA012069790843C117C4E920
:1010F0001C01287AE97940EA0120A0673946304688
:10110000A36F226FFFF774FC08B10120E2E7002013
:10111000E06700BFDEE72DE9FC5F82468946D346E3
:10112000DBF80400446A04F5845000F10F0694F8DB
:101130005C00072860D141F28C00005D00F0800067
:10114000802807D1202205215046FFF75FFF0120AC
:10115000BDE8FC9FB0780006F17840EA01403179A3
:1011600040EA012071790843C117C4E91C01307AB3
:10117000F17940EA0120A06749465046A36F226FEB
:10118000FFF736FC08B10120E2E704F1680050F8EF
:1011900029000023D4E91C12A1FB007C02FB00C043
:1011A00001FB0300C4E91C7004F1680151F8291027
:1011B000A06F4843A06741F288000059A16F8842A0
:1011C00006D0202205215046FFF720FF0120BFE76F
:1011D000022084F85C00A06FB0F5805F01D2A06FA0
:1011E00001E04FF4805085B22B4604F180020121CA
:1011F000584613F07DF842E0A06FB0F5805F01D251
:10120000A06F01E04FF4805085B204F18000CDE979
:101210000005D4E91C733A4648460AF043FB30B156
:101220003A2204215046FFF7F1FE012090E7D4E96D
:101230001C20521940F10000C4E91C20A06F401B83
:10124000A06741F2A8000059411B41F2A8000151DA
:10125000A06F20B900215046FFF78AFE0FE0A06F73
:10126000B0F5805F01D2A06F01E04FF4805085B2ED
:101270002B4604F180020121584613F039F8002072
:1012800066E72DE9F04106460C464FF00008374668
:101290007868456A207800F0600010B3202843D1B8
:1012A000E088E8B1207800F0800068B1E3886178D8
:1012B00005F14402304612F037FBE28805F14401A3
:1012C000384612F002FE0BE0607805F84C0FE0881B
:1012D00068806A884C3D05F14401384612F0D7FD1C
:1012E00026E0607806280AD004DC012814D0032800
:1012F00014D112E00A2806D00B280FD109E0384695
:1013000012F003FE0EE001222946384612F0DDFD00
:1013100008E06088286005E004E003E0384612F049
:10132000F4FD00BF00BF03E0384612F0EEFD00BF41
:1013300000BF4046BDE8F0810146012081F852001F
:10134000002081F853000860084800684865074895
:1013500082795A2042540548027958204254034861
:10136000427959204254002070470000EC010020CF
:101370002DE9F0410446884600202071401E20627D
:10138000414620460AF0CCF910B10420BDE8F081B6
:1013900004F2322008F06CFF074694F83450EB2D2D
:1013A00003D0E92D01D0E82D43D14AF655208742DC
:1013B00008D1082223A104F18600FFF72CF808B910
:1013C0000020E3E704F13F0008F052FF0646412009
:1013D000055D701E304060BBB6F5007F29DBB6F5B9
:1013E000805F26DC2DB3681E284010BB04F142004C
:1013F00008F03EFFE8B14420005D401E012818D8E7
:1014000004F1450008F034FF98B104F1470008F0FA
:101410002FFF802806DA04F1540008F02FFFB0F502
:10142000803F06D304F14A0008F022FF08B10020F3
:10143000ACE74AF65520874201D10220A6E70320F7
:10144000A4E7000046415433322020200000000071
:1014500070B50446002526468221304612F0A3FED0
:101460008321304612F09FFE0221304612F09BFE8F
:101470008121304612F097FE0121304612F093FE92
:10148000284670BD2DE9F0410446002726467068C5
:10149000456A0021304613F073F9804695F84C00F8
:1014A000202808D11FFA88F395F84C1005F1440262
:1014B000204612F039FA3846BDE8F0810146002096
:1014C00070470246002007290AD2DFE801F009042C
:1014D00005060907080004E003E002E001E000E07F
:1014E00000BF00BF70472DE9F04104460D46264677
:1014F0007068476A4FF000082946304613F07EF8BE
:1015000005F07F00032802D1012087F8520005F082
:101510007F00012803D129462046FFF73CFB4046C7
:10152000BDE8F0812DE9F0410446002725466868B2
:10153000466A3046FFF700FF08230322822128462F
:1015400012F0A9FE402302228321284612F0A3FEB6
:10155000402302221146284612F09DFE4023321DF0
:101560000221284612F0C4FE40230222812128468F
:1015700012F091FE402302220121284612F08BFE38
:101580002046FFF795FB3846BDE8F0812DE9F04194
:1015900004460D464FF0000826467068476A05F07D
:1015A0007F00022808D12946304613F0E9F8A7F851
:1015B0005000012087F8530005F07F00012803D177
:1015C00029462046FFF70AFB4046BDE8F0812DE999
:1015D000F04105460C4600262F46207800F01F00FB
:1015E000012802D0022819D10BE0A08820B9214699
:1015F00028460AF0AFF803E021463846FFF741FEDF
:101600000CE0A088812804D1214628460AF0A2F8DF
:1016100003E021463846FFF734FE00BF00BF3046E6
:10162000BDE8F081014600207047F0B503460D4645
:101630001E68986A021DB089B5FBF0F07789B0FB8F
:10164000F7F400BF02CA09B90020F0BD8C4200D2F5
:1016500002E0641A121DF5E700BF10682044F4E7A9
:101660000246891E9069801E884201D8002070477A
:101670005389106B03FB0100F9E72DE9F04782461F
:101680008846DAF80040B8F1000F06D1276917B193
:10169000A069B84215D8012713E04146504606F02C
:1016A00029FC0546022D02D20120BDE8F087681C06
:1016B00008B92846F9E7A069A84201D92846F4E705
:1016C0004746606908B90020EFE70026474518D172
:1016D0007E1CA069B04200D802263146504606F072
:1016E00009FC0546012D01D0681C08B92846DCE735
:1016F0003DB12569022D03D3A069A84200D92F4628
:101700000026E6B93E4600BF761CA069B04204D868
:101710000226BE4201D90020C7E73146504606F0F6
:10172000E9FB054605B909E0012D01D0681C08B99F
:101730002846BAE7BE42E7D10020B6E700BF4FF027
:10174000FF32314620460CF098F88146B9F1000F7F
:1017500008D1B8F1000F05D03246414620460CF0C2
:101760008CF88146B9F1000F0FD126616069A0B1F4
:10177000D4E90510801E81420FD86069401E606167
:10178000607940F00100607107E0B9F1010F02D10A
:101790004FF0FF3000E001200646304685E70000AC
:1017A0002DE9F35F8946D9F80080009800F1200503
:1017B00020220B212846FEF7FDFD002007460646A5
:1017C0004FF0080B00BF3046761C18F80040202C64
:1017D00000DC4AE02F2C01D05C2C0AD100E0761C02
:1017E00018F806002F28FAD018F806005C28F6D062
:1017F0003BE02E2C01D05F450BD3BBF10B0F01D08A
:101800002E2C02D00620BDE8FC9F08274FF00B0BC2
:10181000D9E7204600F080FBA8B13046761C18F8C6
:1018200000A0504600F092FB18B1ABF10100B842A5
:1018300001D80620E7E738467F1C2C5438467F1C29
:1018400005F800A010E0214614A0FEF7C5FD08B180
:101850000620D8E7612C04DB7A2C02DCA4F12000FE
:10186000C4B238467F1C2C54ADE700BF08EB06001D
:10187000C9F800000FB90620C5E72878E52801D18E
:1018800005202870202C03DD18F80600202801DC34
:10189000042000E00020E8720020B4E72A2B2C3A54
:1018A0003B3C3D3E5B5D7C223F7F00002DE9FF4FCE
:1018B00085B09A4603AA0121059802F07DFC18B173
:1018C000012009B0BDE8F08FDDF80C904FF03F0823
:1018D000082701E07806070E37B1B9FBF7F0B0FB37
:1018E000F8F0B0F5806FF5D807B9FF274FF48051B5
:1018F0005046FEF766FD0AF5DF764FF0000B4446D2
:1019000069E0069850F82B50642D07D801D148465D
:1019100003E06420B9FBF0F06843054660194845D0
:1019200001D8601901D3A9EB040505B959E0214696
:1019300006F108000CF00AFA294606F10C000CF03A
:1019400005FA07983071B4FBF8F0B0FBF7F004909B
:10195000B4FBF8F0B0FBF7F107FB1100C0B2029046
:10196000B4FBF8F008FB1040401CC0B20190029894
:101970007070C021049801EA900001990843B0708A
:101980000498F0706019401EB0FBF8F0B0FBF7F05F
:1019900004906019401EB0FBF8F0B0FBF7F107FBB4
:1019A0001100C0B202906019401EB0FBF8F108FBB4
:1019B0001100401CC0B2019002987071C0210498BF
:1019C00001EA900001990843B0710498F071103653
:1019D0000BF1010B2C44BBF1040F02D20CB14C45AE
:1019E0008FD300BF4AF655210AF5FF700CF0A8F915
:1019F000012300225146059802F00DFC08B1012098
:101A00005FE700205DE700000349096860F3071104
:101A1000014A116070470000083802400349096814
:101A200060F38C21014A11607047000008380240C1
:101A30000349096860F34F31014A116070470000A3
:101A400008380240012807D10749096821F0300110
:101A50003031054A116005E00349096821F0300181
:101A6000014A116070470000A438024010B570B9F7
:101A70000E4B1B6861F31A630C4C23600B4B9833BD
:101A80001B6862F31B63094C983423600DE0074B1D
:101A90001B6861F3DD63054C2360044B98331B68BE
:101AA00062F31F73014C9834236010BD0838024064
:101AB0000349096860F35651014A116070470000FC
:101AC0000838024005282BD2DFE800F0030A11187D
:101AD0002100154A126861F30002134B1A6020E0DE
:101AE000114A126861F310420F4B1A6019E00E4A56
:101AF000126861F318620C4B1A6012E00A4A7032E5
:101B0000126861F30002084B70331A6009E0064A5C
:101B10007432126861F30002034B74331A6000E000
:101B200000BF00BF70470000003802402DE9FE4FA3
:101B300004464FF00009CA46CB46002002900190AF
:101B40000025002600F0C6F90090009820B1012879
:101B500012D002283FD112E031480068C0F3803033
:101B600038B12F480068C0F3003010B12D48206014
:101B700001E02D48206031E02B4820602EE028480D
:101B80009C380068C0F38050029025489C3800685B
:101B9000C0F3881922489C38006800F00F0A2048DA
:101BA0009C380068C0F30240204911F800B0029848
:101BB00010B91D48019001E01B4801900AFB0BFC85
:101BC0000198A0FB09700146624600233846FEF7E3
:101BD0009BFB206002E01448206000BF00BF10485B
:101BE00098380068C0F303151148465D2068F0403E
:101BF00060600B4898380068C0F382250D48465D48
:101C00006068F040E060064898380068C0F34235EC
:101C10000948465D6068F040A060BDE8FE8F0000A6
:101C2000A0380240006CDC0200127A0072650108E4
:101C300052650108626501086A65010810B5014630
:101C40000020094B03EB1142D2F8002801F01F04D9
:101C50000123A3401A4001F01F040123A3409A422C
:101C600000D000E0012010BD0030024030B500245B
:101C7000002500E0641C1120FFF7E0FF012802D0DE
:101C8000B4F5405FF6D31120FFF7D8FF012801D04B
:101C9000002500E00125284630BD000008B51049A8
:101CA0000968C1F3803100910D49096821F4804130
:101CB00001F580410A4A1160BFF36F8F1146096830
:101CC00060F30C311160BFF36F8F9DF80020044961
:101CD000096862F38E31024A1160BFF36F8F08BD4D
:101CE000A03802400D49096821F4804101F5804186
:101CF0000A4A1160BFF36F8F1146096821F48051C1
:101D000001F580511160BFF36F8F1146096860F3D0
:101D10008E311160BFF36F8F70470000A038024012
:101D200010B501290FD1104B03EB1042D2F8002857
:101D300000F01F040123A3401A430B4C04EB104393
:101D4000C3F800280EE0084B03EB1042D2F800283D
:101D500000F01F040123A3409A43034C04EB1043FB
:101D6000C3F8002810BD00000030024010B5012962
:101D70000FD1104B03EB1042D2F8002800F01F04E3
:101D80000123A3401A430B4C04EB1043C3F8002873
:101D90000EE0084B03EB1042D2F8002800F01F04BD
:101DA0000123A3409A43034C04EB1043C3F80028DB
:101DB00010BD000000300240F0B504460D46164646
:101DC0001F4614B90120FFF769FF0B48006864F350
:101DD0009650094908600846006865F38E1008604F
:101DE0000846006866F3030008600846006867F369
:101DF00012400860F0BD000004380240234800682B
:101E000020F00100401C2149086000BF1F48006805
:101E1000C0F340000028F9D01C480830006820F0CA
:101E200003001A490831086000BF184808300068EC
:101E3000C0F381000028F8D1144800681449084014
:101E40001249086000201149083108601148091F33
:101E500008600E48A030006820F4804000F5804003
:101E60000A49A0310860BFF36F8F0846006820F46C
:101E700080500860BFF36F8F00200860BFF36F8F42
:101E80004FF41F0001490C310860704700380240D0
:101E9000FFFFF2FE023003000D49096860F3010103
:101EA0000B4A116000BF00BF00BF00BF00BF00BFF2
:101EB00000BF00BF00BF00BF00BF00BF00BF00BF2A
:101EC00000BF00BF00BF00BF00BF00BF70470000E1
:101ED0000838024002480068C0F3810070470000E3
:101EE000083802400349096860F30F31014A116064
:101EF00070470000A438024000B50346012B01D111
:101F0000FFF7F0FE0348006863F34D3001490860B5
:101F100000BD0000A038024001460B48007888420E
:101F20000FDC09484078884201DB012070470648F1
:101F30008078884205DC0448C078884201DB0120B3
:101F4000F4E70020F2E700005C6601080146104853
:101F50000079884219DC0E484079884201DB012073
:101F600070470B488079884205DC0948C07988426F
:101F700001DB0120F4E70648007A884205DC0448CA
:101F8000407A884201DB0120EAE70020E8E7000010
:101F90005C6601081CB5044601211848FFF7C0FE25
:101FA00001211748FFF7BCFE684606F097F80120AC
:101FB0008DF8070000208DF8040002208DF806003F
:101FC0002020009000208DF8050069460D4806F09D
:101FD0008FF8072205210B4806F0C7F800230122DD
:101FE0002146094810F040FF0121074810F092FFF8
:101FF0000121054810F02AFF1CBD0000110040001F
:1020000003003000000C02400044004070B504465C
:102010000D4600BF64B912F0EDFF11A340F2253266
:1020200015A119A0FEF7F4FA0020002000BF70BD32
:1020300000BF00BF00BF606A78B1606A007B0828FB
:102040000BD100BF00BF2868616A496A884204D189
:1020500000BF00BF204600F0D7FA00BFE7E700004E
:102060004C5749505C7372635C636F72655C646863
:1020700063702E63000000006E6574696620213D68
:10208000204E554C4C000000417373657274696FAB
:102090006E2022257322206661696C65642061745C
:1020A000206C696E6520256420696E2025730A0006
:1020B0007CB5064600BF66B912F09CFF49A34FF4F9
:1020C00069724EA154A0FEF7A3FA0020002000BFC1
:1020D0007CBD00BF746A00BF64B912F08BFF41A3DE
:1020E00040F2A63256A14CA0FEF792FA0020002042
:1020F00000BFEDE700BF00BF00BF606B401C90B1A8
:1021000000BF00BF606B1E303C21B0FBF1F5B5F5A0
:10211000803F01D34FF6FF75A583A08B08B901203E
:10212000A08300BF00BFA06B401C90B100BF00BFE8
:10213000A06B1E303C21B0FBF1F5B5F5803F01D31B
:102140004FF6FF75E583E08B08B90120E08300BFFF
:1021500000BFA08BE18B884204DBE08B002801DD0F
:102160000020A083A07B10B1A06A019010E094F839
:1021700024007F2802DCFF21019108E0C02803DB56
:102180006FF07F41019102E04FF6FF71019100BFB6
:10219000E06A0090684608B1009838B9606A019911
:1021A00008400090009840F08070009000BF00BF91
:1021B00004F12401304609F0C7FD00BF00BF01A9AA
:1021C000304609F04BFE00BF00BF6946304609F0BB
:1021D000B2FD304609F04AFE0A21204601F0F4FB28
:1021E00000BF75E74C5749505C7372635C636F7254
:1021F000655C646863702E6300000000646863704F
:102200005F62696E643A206E6574696620213D20C4
:102210004E554C4C00000000417373657274696F39
:102220006E2022257322206661696C6564206174CA
:10223000206C696E6520256420696E2025730A0074
:10224000646863705F62696E643A206468637020DA
:10225000213D204E554C4C002DE9F0410646746A54
:1022600000BF00BF0821204601F0AEFB002204F1B0
:102270002401304604F078F805460DB100BF00BFD8
:10228000607B401C60734FF4FA7707F2F310394615
:1022900090FBF1F0608300BF00BFBDE8F08100005B
:1022A00010B51248046800BF00BF1BE0606AC0B1EF
:1022B000606AC18B481E626AD083012905D100BFC4
:1022C00000BF204601F01CFD0BE0606A818B481EB8
:1022D000626A9083012904D100BF00BF204601F04B
:1022E000FBFC2468002CE1D110BD0000D4000020CC
:1022F0002DE9F04106460C46174600BF002E0FD1CF
:1023000012F078FE70A340F27C6275A17CA0FEF70B
:102310007FF90020002000BF6FF00D00BDE8F081C4
:1023200000BF00BF74B912F065FE67A340F27D6282
:102330007DA173A0FEF76CF90020002000BF6FF0B4
:102340000500EBE700BF00BF206960B100BF12F0DD
:1023500051FE40F27E635CA27BA185A0FEF758F996
:1023600012F072FE00BF00BF00BF606960B100BF25
:1023700012F040FE40F27F6353A287A17CA0FEF7DB
:1023800047F912F061FE00BF00BF00224FF49A71BE
:10239000104609F04BFE2061206920B900BF00BF44
:1023A0004FF0FF30BAE700BF20694089B0F59A7F4F
:1023B0000CD200BF12F01EFE40F2866342A280A142
:1023C0006BA0FEF725F912F03FFE00BF00BF607B57
:1023D00018B9FDF7CBFF8A4908608948006820607A
:1023E00000BF00BF2069406860610120616908701A
:1023F0006169487096F82A006169887000206169F7
:10240000C870206808F01BF86169486000206169A5
:102410000881616948816169C860082F09D0042F6B
:1024200007D0032F08D1207B052802D0207B042869
:1024300002D170686169C8600020616908616169E2
:1024400048616169886100250DE096F82A00A8427C
:1024500003DD06F12B00405D00E0002061691C31C6
:102460004855681C85B2102DEFD3002505E00021EA
:1024700060692C304155681C85B2402DF7D300258A
:1024800005E0002160696C304155681C85B2802DE3
:10249000F7D35C486169C1F8EC0000202083002577
:1024A00004E06069F0304555681C85B2442DF8D3CE
:1024B00001223521204600F0EDFA3946204600F091
:1024C00031FB00202AE700004C5749505C737263CF
:1024D0005C636F72655C646863702E63000000006B
:1024E000646863705F6372656174655F6D73673A9A
:1024F000206E6574696620213D204E554C4C0000CD
:10250000417373657274696F6E2022257322206691
:1025100061696C6564206174206C696E6520256456
:1025200020696E2025730A00646863705F637265BA
:102530006174655F6D73673A206468637020213D44
:10254000204E554C4C000000646863705F637265F8
:102550006174655F6D73673A20646863702D3E70C7
:102560005F6F7574203D3D204E554C4C00000000BF
:10257000417373657274696F6E206661696C65641E
:102580003A2025732C2066696C652025732C206CFD
:10259000696E652025640A00646863705F63726514
:1025A0006174655F6D73673A20646863702D3E6D7A
:1025B00073675F6F7574203D3D204E554C4C000095
:1025C000646863705F6372656174655F6D73673AB9
:1025D00020636865636B2074686174206669727338
:1025E0007420706275662063616E20686F6C642071
:1025F00073747275637420646863705F6D736700D1
:10260000A0000020638253632DE9F84305466C6AFD
:10261000002600BF00BF0C21204601F0D5F904229E
:1026200021462846FFF764FE06460EBB04223221EF
:10263000204600F02FFA606A07F02CFF80464146E2
:10264000204600F0C9FA204600F080FB228BF032D1
:1026500091B220690AF03AFC009543230E4A2169A1
:10266000606810F019FB204600F018F800BF01E088
:1026700000BF00BF607B401C607342F2107707F21E
:10268000F3104FF4FA7190FBF1F0608300BF00BFCC
:102690003046BDE8F88300004C66010810B50446DA
:1026A00000BF64B912F0A6FC1CA340F2C96221A1CC
:1026B00028A0FDF7ADFF0020002000BF10BD00BF27
:1026C00000BF206900280CD100BF12F093FC40F23B
:1026D000CA6312A229A133A0FDF79AFF12F0B4FC3D
:1026E00000BF00BF00BF606900280CD100BF12F01E
:1026F00081FC40F2CB6309A234A12AA0FDF788FF38
:1027000012F0A2FC00BF00BF206910B120690AF0DE
:10271000E9F900202061606100BFCFE74C574950C4
:102720005C7372635C636F72655C646863702E6374
:1027300000000000646863705F64656C6574655FC9
:102740006D73673A206468637020213D204E554CBC
:102750004C000000417373657274696F6E2022250E
:102760007322206661696C6564206174206C696EF7
:102770006520256420696E2025730A0064686370F3
:102780005F64656C6574655F6D73673A2064686348
:10279000702D3E705F6F757420213D204E554C4C5E
:1027A00000000000417373657274696F6E2066618A
:1027B000696C65643A2025732C2066696C65202558
:1027C000732C206C696E652025640A006468637050
:1027D0005F64656C6574655F6D73673A20646863F8
:1027E000702D3E6D73675F6F757420213D204E55CF
:1027F0004C4C0000F8B505466C6A002600BF00BFCF
:10280000002060620621204601F0DEF80122214608
:102810002846FFF76DFD0646002E3AD100BF00BFE7
:1028200002223921204600F035F9298D204600F09A
:1028300047FA04223721204600F02CF901212046D6
:1028400000F070F90321204600F06CF91C212046AD
:1028500000F068F90621204600F064F9204600F0F7
:1028600075FA00BF00BF228BF03291B220690AF0E6
:102870002DFB00BF00BF00954323164A2169606805
:1028800010F00AFA00BF00BF2046FFF707FF00BFA5
:1028900001E000BF00BF607B401C6073607B0628C6
:1028A00003DA617B0120884000E03C2000EB40011E
:1028B000C1EBC0104FF6FF7101EAC00707F2F31039
:1028C0004FF4FA7190FBF1F0608300BF00BF304617
:1028D000F8BD00004C66010810B5104804681AE005
:1028E000606AB8B1606A408B012805DD606A408B80
:1028F000401E616A48830DE0606A408B012809D15F
:10290000606A408B401E616A488300BF00BF20465A
:1029100001F00AFA2468002CE2D110BDD400002096
:10292000F8B50646746A0020A062E0622448C078C8
:1029300010B12448C06820632148007918B12148AB
:102940000069606302E0206B400860631C484079C6
:1029500018B11C484069A06301E0206BA063A06827
:10296000006960621648807938B11649886907F0B5
:1029700066FDA0620120A07301E00020A073104852
:10298000C07920B10F49C86907F059FDE062002500
:102990000EE005F108010B4A52F8210007F04FFD47
:1029A00000906946284602F085F8681CC5B200BF51
:1029B00005F108000249085C08B1022DE9DBF8BD09
:1029C0009CA6002074A6002070B50446656A00BF6E
:1029D00000BF204609F09AF90949204609F0B4F9E8
:1029E0000749204609F0A7F90549204609F036FABB
:1029F0000C21284600F0E8FF2046FFF7FBFE70BDE3
:102A00004866010870B505466C6A00BF00BF0B48F8
:102A1000807878B10A49886807F011FD206200BF0C
:102A200000BFA0680069606200BF00BF284600F0D8
:102A300049FF01E000BF00BF70BD00009CA6002060
:102A400074A6002070B505466C6A04B970BD207B81
:102A5000042809D003DC98B1032812D107E0052827
:102A600003D00A280DD101E000BF00BF00BF2846F7
:102A700009F04CF900206073284600F04DFD06E097
:102A800005E0002060732846FFF7B4FE00BF00BFDA
:102A900000BFDBE770B504460E46154600BF208B2D
:102AA000801C284444280CD900BF12F0A3FA40F23D
:102AB000F6430BA2104911A0FDF7AAFD12F0C4FACB
:102AC00000BF00BF218B481C20836069F030465452
:102AD000218B481C20836069F030455470BD000094
:102AE0004C5749505C7372635C636F72655C6468D9
:102AF00063702E6300000000D8660108417373659F
:102B00007274696F6E206661696C65643A20257322
:102B10002C2066696C652025732C206C696E6520FD
:102B200025640A0070B504460D4600BF208B44287A
:102B30000CD300BF12F05EFA40F2015307A20DA1C0
:102B40001BA0FDF765FD12F07FFA00BF00BF218BCF
:102B5000481C20836069F030455470BD4C57495083
:102B60005C7372635C636F72655C646863702E6330
:102B700000000000646863705F6F7074696F6E5F5F
:102B8000627974653A20646863702D3E6F70746971
:102B90006F6E735F6F75745F6C656E203C20444888
:102BA00043505F4F5054494F4E535F4C454E0000C9
:102BB000417373657274696F6E206661696C6564D8
:102BC0003A2025732C2066696C652025732C206CB7
:102BD000696E652025640A0070B504460D4600BF85
:102BE000208B001D44280CD900BF12F003FA4FF4CB
:102BF000A26313A218A128A0FDF70AFD12F024FA7F
:102C000000BF00BF290E228B501C20836069F0306A
:102C10008154C5F30741228B501C20836069F0303A
:102C20008154C5F30721228B501C20836069F0304A
:102C30008154228B501C20836069F030855470BD14
:102C40004C5749505C7372635C636F72655C646877
:102C500063702E6300000000646863705F6F7074BF
:102C6000696F6E5F6C6F6E673A20646863702D3EAB
:102C70006F7074696F6E735F6F75745F6C656E20D3
:102C80002B2034203C3D20444843505F4F50544952
:102C90004F4E535F4C454E00417373657274696FBC
:102CA0006E206661696C65643A2025732C20666924
:102CB0006C652025732C206C696E652025640A00E4
:102CC00070B504460D4600BF208B801C44280CD9EB
:102CD00000BF12F08FF94FF4A1630BA2104911A0AD
:102CE000FDF796FC12F0B0F900BF00BF290A228B55
:102CF000501C20836069F0308154228B501C20834B
:102D00006069F030855470BD4C5749505C737263F4
:102D10005C636F72655C646863702E630000000022
:102D200094660108417373657274696F6E20666101
:102D3000696C65643A2025732C2066696C652025D2
:102D4000732C206C696E652025640A0010B504465A
:102D500000BF002C0CD112F04DF925A340F2DE6229
:102D600029A132A0FDF754FC0020002000BF10BDB7
:102D700000BF00BF606900280CD100BF12F03AF913
:102D800040F2DF631AA233A13DA0FDF741FC12F02F
:102D90005BF900BF00BF00BF208B44280CD300BFED
:102DA00012F028F94FF4DC6311A23FA134A0FDF723
:102DB0002FFC12F049F900BF00BFFF21228B501CED
:102DC00020836069F030815406E00021228B501C82
:102DD00020836069F0308154208B442803D3207E07
:102DE00000F0030010B1208B4428EED300BFBEE7F3
:102DF0004C5749505C7372635C636F72655C6468C6
:102E000063702E6300000000646863705F6F70740D
:102E1000696F6E5F747261696C65723A2064686391
:102E20007020213D204E554C4C00000041737365CD
:102E30007274696F6E2022257322206661696C6549
:102E400064206174206C696E6520256420696E20A1
:102E500025730A00646863705F6F7074696F6E5FDA
:102E6000747261696C65723A20646863702D3E6D9E
:102E700073675F6F757420213D204E554C4C0A00DE
:102E8000417373657274696F6E206661696C656405
:102E90003A2025732C2066696C652025732C206CE4
:102EA000696E652025640A00646863705F6F7074E2
:102EB000696F6E5F747261696C65723A20646863F1
:102EC000702D3E6F7074696F6E735F6F75745F6C99
:102ED000656E203C20444843505F4F5054494F4E4C
:102EE000535F4C454E0A00002DE9F34F89B08946E7
:102EF0000020069005900A21FB48FDF762FAB9F818
:102F00000A002C2804DA6FF001000BB0BDE8F08F46
:102F1000D9F80410099881604FF0F00BB9F8080057
:102F2000079000BF4C460AE06089ABEB00001FFA37
:102F300080FB61890798401A80B20790246814B119
:102F400060895845F0DD14B96FF00100DDE75F4698
:102F5000DDF81CA06068089048E20898C05D049005
:102F600000264FF0FF38B81C80B203906189781CAE
:102F7000814203DD791C0898455C07E0206818B1A0
:102F800020684068007800E0002005462E4604983E
:102F9000342878D00BDC03282ED003DC80B1012844
:102FA00072D113E006283ED03328F9D174E03528D9
:102FB0006BD036286AD03A2869D03B28F0D1D9E0C6
:102FC000002005460646781E87B2EDE000BF042DBE
:102FD0000ED012F00FF8C5A340F27B52C9A1CCA0CD
:102FE000FDF716FB0020002000BF6FF005008CE706
:102FF00000BF4FF00608D7E0042600BFB5420EDA46
:1030000011F0F8FFB9A34FF4B062CBA1C0A0FDF757
:10301000FFFA0020002000BF6FF0050075E700BF39
:103020004FF00708C0E000BFE91705EB9171891068
:10303000A5EB810171B111F0DDFFACA340F2855227
:10304000C2A1B3A0FDF7E4FA0020002000BF6FF09A
:1030500005005AE700BF082D01DA284600E00820E5
:10306000064600BFB54213DA11F0C4FF9FA34FF428
:10307000B162B1A1A6A0FDF7CBFA0020002000BFED
:103080006FF0050041E71DE08AE031E046E05BE0DB
:1030900000BF4FF0080887E000BF042D0ED011F0EC
:1030A000A9FF92A340F28C5296A199A0FDF7B0FA25
:1030B0000020002000BF6FF0050026E700BF4FF0A2
:1030C000030871E000BF012D0ED011F093FF87A31C
:1030D0004FF4B262A1A18EA0FDF79AFA0020002061
:1030E00000BF6FF0050010E700BF4FF000085BE085
:1030F00000BF012D0ED011F07DFF7CA340F2945251
:1031000096A183A0FDF784FA0020002000BF6FF095
:103110000500FAE600BF4FF0010845E000BF042DAE
:103120000ED011F067FF71A34FF4B36275A178A0C0
:10313000FDF76EFA0020002000BF6FF00500E4E606
:1031400000BF4FF002082FE000BF042D0ED011F099
:1031500051FF66A340F29C526AA16DA0FDF758FA98
:103160000020002000BF6FF00500CEE600BF4FF04A
:10317000040819E000BF042D0ED011F03BFF5BA343
:103180004FF4B4625FA162A0FDF742FA0020002074
:1031900000BF6FF00500B8E600BF4FF0050803E080
:1031A000002600BF00BF00BF00BFA81C384487B284
:1031B000002E7CDD0020029000BF00BFB8F1000FA0
:1031C00002DBB8F10A0F0CDB00BF11F013FF40F275
:1031D000AD5346A264A169A0FDF71AFA11F034FFBD
:1031E00000BF00BF404810F8080000285ED1042E40
:1031F00001DA304600E00420019002A92046039B3A
:10320000019A09F0CBFB042E2ADD00BFF11706EB73
:1032100091718910A6EB810171B111F0EBFE33A31E
:1032200040F2B3525FA13AA0FDF7F2F9002000206E
:1032300000BF6FF0050068E600BF01202A4901F8D1
:103240000800029807F0FBF85B4941F82800301F9E
:10325000C6B20398001D80B2039008F10108ACE7E4
:10326000042E04D1029807F015F9029016E000BF71
:10327000012E0FD011F0BEFE1CA340F2BD524FA193
:1032800023A0FDF7C5F90020002000BF6FF0050066
:103290003BE60CE000BF9DF80800029001201249B7
:1032A00001F808004449029841F8280000BF6089ED
:1032B000B84217DC6089381A87B26089AAEB00002F
:1032C0001FFA80FA57450EDABAF1000F0BD02468C6
:1032D00000BF34B900BF11F08DFE40F2C95303A204
:1032E00076E07DE081E07FE09CA600204C574950CD
:1032F0005C7372635C636F72655C646863702E6399
:10330000000000006C656E203D3D20340000000090
:10331000417373657274696F6E2022257322206673
:1033200061696C6564206174206C696E6520256438
:1033300020696E2025730A006C656E203E3D206476
:1033400065636F64655F6C656E0000006C656E2080
:10335000252034203D3D2030000000006C656E20AB
:103360003D3D203100000000636865636B206465AB
:10337000636F64655F696478000000004173736582
:103380007274696F6E206661696C65643A2025739A
:103390002C2066696C652025732C206C696E652075
:1033A00025640A006465636F64655F6C656E202543
:1033B0002034203D3D20300074A60020696E7661E7
:1033C0006C6964206465636F64655F6C656E0000A2
:1033D00024A1AFF25800FDF71BF911F035FE00BF34
:1033E00000BF6068089000E008E000BF34B10898B2
:1033F000C05DFF2802D05745FFF6AFAD00BF1E48A5
:103400000078D0B11D49086800211B4A11700128BD
:1034100003D10121069100BF0EE0022803D1012152
:10342000059100BF08E0032804D101210591069110
:1034300000BF01E000BF00BF00BF069830B1002010
:1034400006904FF06C0BEC2007906BE5059830B1BF
:10345000002005904FF02C0B6C20079062E50020B7
:1034600053E500006E6578742070627566207761A0
:1034700073206E756C6C00009CA6002074A6002062
:10348000F8B505466C6A00BF00BF0421204600F075
:103490009BFA032221462846FEF72AFF0646EEB98C
:1034A000022239212046FFF7F5FA298D2046FFF741
:1034B00007FC2046FFF74AFC228BF03291B22069CC
:1034C00009F004FD00954323124A216960680FF05A
:1034D000E3FB2046FFF7E2F800BF01E000BF00BFBA
:1034E000607B401C6073607B0A2805DA607B4FF4C8
:1034F0007A7110FB01F001E042F2107087B207F21E
:10350000F3104FF4FA7190FBF1F0608300BF00BF3D
:103510003046F8BD4C6601082DE9F84305466C6A53
:1035200000BF00BF0321204600F04EFA03222146CF
:103530002846FEF7DDFE06465EBB02223921204604
:10354000FFF7A8FA4FF410712046FFF7B9FB0422E9
:1035500032212046FFF79EFA606A06F09BFF804604
:1035600041462046FFF738FB2046FFF7EFFB228B52
:10357000F03291B2206909F0A9FC00954323134A67
:10358000216960680FF088FB2046FFF787F800BFCD
:1035900001E000BF00BF607B401C6073607B0A28B5
:1035A00005DA607B4FF47A7110FB01F001E042F222
:1035B000107087B207F2F3104FF4FA7190FBF1F03C
:1035C000608300BF00BF3046BDE8F8834C66010849
:1035D0002DE9F05F81461546DDF828B04F467C6A3C
:1035E000D5F804A000BF00BF00BF00BF00BF00BFF0
:1035F00000BFA06860B100BF11F0FCFC40F2116395
:1036000045A24BA14FA0FDF703F811F01DFD00BF2F
:1036100000BF68892C2802DA00BF00BF75E09AF865
:103620000000022802D000BF00BF6EE000260CE0C0
:1036300007F12B00815D0AF11C00805D814202D000
:1036400000BF00BF61E0701CC6B297F82A00B0420C
:10365000EEDCDAF8040006F01DFF2168884202D093
:1036600000BF00BF51E029462046FFF73DFC10B1E6
:1036700000BF00BF49E000BF00BF3C48407810B920
:1036800000BF00BF41E03A4890F80480B8F1050F50
:1036900018D100BF00BF207B012806D13846FFF7B4
:1036A0003FF93846FEF7D8FD2EE0207B032805D0F1
:1036B000207B042802D0207B052825D13846FEF740
:1036C000F7FC21E0B8F1060F11D1207B032808D0C8
:1036D000207B012805D0207B042802D0207B0528F0
:1036E00005D100BF00BF3846FFF76EF90CE0B8F116
:1036F000020F09D1207B062806D100BF00BF0020A1
:1037000060833846FFF77EF900BF0020A06028469E
:1037100009F0E8F9BDE8F09F4C5749505C737263BB
:103720005C636F72655C646863702E630000000008
:103730007265706C79207761736E2774206672658C
:1037400065640000417373657274696F6E20666111
:10375000696C65643A2025732C2066696C652025A8
:10376000732C206C696E652025640A009CA60020DD
:1037700074A60020F8B505466C6A00BF00BF0021A2
:10378000204600F021F9002020626062A062E06221
:10379000A06360632063072221462846FEF7A8FD48
:1037A0000646AEB92046FFF7D1FA228BF03291B22D
:1037B000206909F08BFB0095432304F12002216965
:1037C00060680FF069FA2046FEF768FF00BF01E06D
:1037D00000BF00BF607B401C6073607B0A2805DA75
:1037E000607B4FF47A7110FB01F001E042F210703F
:1037F00087B207F2F3104FF4FA7190FBF1F0608397
:1038000000BF00BF284608F081FA0749284608F0A3
:103810009BFA0549284608F08EFA0349284608F025
:103820001DFB3046F8BD000048660108F8B50546A6
:103830006C6A00BF00BF0521204600F0C5F80322D6
:1038400021462846FEF754FD0646F6B902223921E4
:103850002046FFF71FF9298D2046FFF731FA204651
:10386000FFF774FA228BF03291B2206909F02EFB37
:103870000095432304F12002216960680FF00CFADF
:103880002046FEF70BFF00BF01E000BF00BF607BDA
:10389000401C6073607B0A2805DA607B4FF4FA6194
:1038A00010FB01F001E044F6206087B207F2F3104C
:1038B0004FF4FA7190FBF1F0608300BF00BF304617
:1038C000F8BD00002DE9F84305466C6A00BF00BF53
:1038D0000121204600F078F8032221462846FEF711
:1038E00007FD0646002E4CD1022239212046FFF763
:1038F000D1F8298D2046FFF7E3F904223221204632
:10390000FFF7C8F8606A06F0C5FD804641462046CC
:10391000FFF762F9042236212046FFF7BBF8206A40
:1039200006F0B8FD804641462046FFF755F90422CF
:1039300037212046FFF7AEF801212046FFF7F2F8C5
:1039400003212046FFF7EEF81C212046FFF7EAF896
:1039500006212046FFF7E6F82046FFF7F7F9228B0D
:10396000F03291B2206909F0B1FA00954323154A6B
:10397000216960680FF090F92046FEF78FFE00BFC6
:1039800001E000BF00BF607B401C6073607B0628C5
:1039900003DA617B0120884000E03C2000EB40011D
:1039A000C1EBC0104FF6FF7101EAC00707F2F31038
:1039B0004FF4FA7190FBF1F0608300BF00BF304616
:1039C000BDE8F8834C660108027B8A4203D001738C
:1039D000002242734283704770B50546002600BF3F
:1039E00075B911F007FB4DA340F27A2251A155A001
:1039F000FCF70EFE0020002000BF6FF00D0070BD30
:103A000000BF6C6A00BF00BF15F8310F20F008003E
:103A1000287015F8310900F0200020B900BF00BF60
:103A20006FF00D00EBE7288DB0F5107F04DA00BFD2
:103A300000BF4FF0FF30E2E774B900BF00BF3C2089
:103A400007F0F2F8044624B900BF00BF4FF0FF3082
:103A5000D5E76C6200BF28E000BF00BF606810B10E
:103A600060680FF0CBF800BF206960B100BF11F0B3
:103A7000C1FA40F29E2329A23CA142A0FCF7C8FD56
:103A800011F0E2FA00BF00BF00BFA06860B100BF44
:103A900011F0B0FA40F29F2320A244A139A0FCF714
:103AA000B7FD11F0D1FA00BF00BF3C212046FCF762
:103AB00088FC0FF065F86060606820B900BF00BF47
:103AC0004FF0FF309BE76068007A40F020006168AB
:103AD000087244223A4960680EF01CFE43223849BD
:103AE00060680EF097FE2A46364960680FF082F84B
:103AF00000BF00BF2846FEF77DFE06462EB12846D1
:103B000000F062F84FF0FF3079E795F8310040F0AF
:103B1000080085F83100304671E700004C574950E5
:103B20005C7372635C636F72655C646863702E6360
:103B3000000000006E6574696620213D204E554CE2
:103B40004C000000417373657274696F6E2022250A
:103B50007322206661696C6564206174206C696EF3
:103B60006520256420696E2025730A0070627566E1
:103B700020705F6F7574207761736E277420667292
:103B800065656400417373657274696F6E20666168
:103B9000696C65643A2025732C2066696C65202564
:103BA000732C206C696E652025640A007265706C48
:103BB00079207761736E27742066726565640000F2
:103BC00048660108D135000870B5054600BF65B9E3
:103BD00011F010FA1AA340F2C7421FA125A0FCF76A
:103BE00017FD0020002000BF70BD00BF6C6A95F873
:103BF000310020F0080085F8310000BF00BF002C24
:103C00001BD0606820B160680EF0F8FF0020606093
:103C100000BFA06860B100BF11F0ECF940F2DA43D8
:103C200007A21EA122A0FCF7F3FC11F00DFA00BFC1
:103C300000BF00212046FFF7C7FE00BFD4E7000009
:103C40004C5749505C7372635C636F72655C646867
:103C500063702E6300000000646863705F73746FAC
:103C6000703A206E6574696620213D204E554C4C9B
:103C700000000000417373657274696F6E20222525
:103C80007322206661696C6564206174206C696EC2
:103C90006520256420696E2025730A007265706CAA
:103CA00079207761736E2774206672656564000001
:103CB000417373657274696F6E206661696C6564C7
:103CC0003A2025732C2066696C652025732C206CA6
:103CD000696E652025640A0070B505466C6A00BFF0
:103CE00000BF207B012805D0207B0A2802D0207B42
:103CF000052804D100BF00BF2846FFF797FD70BD1F
:103D000070B505466C6A00BF00BF207B012805D056
:103D1000207B0A2802D0207B052804D100BF00BFE9
:103D20002846FFF7ADFB70BD70B505466C6A00BF55
:103D300000BF207B0C2802D0207B062805D100BFC5
:103D400000BF2846FEF756FD4FE0207B012811D129
:103D500000BF00BF607B052803DC2846FFF7B2FDEB
:103D600043E000BF00BF2846FFF704FD2846FEF7EA
:103D700041FD3AE0207B08280CD100BF00BF607BEA
:103D8000012803DC2846FEF767FA2EE02846FEF7F6
:103D90008FF92AE0207B052805D100BF00BF284607
:103DA000FFF744FD21E0207B042811D100BF00BFB4
:103DB000607B082803DC2846FFF762FB15E000BFA4
:103DC00000BF2846FFF7D6FC2846FEF713FD0CE09F
:103DD000207B032809D1607B022803DA2846FFF7FD
:103DE0009BFB02E02846FEF705FD70BD10B50446BA
:103DF00000BF00BFFEF754FA002203494EF66020D0
:103E00000AF0C4F910BD0000ED3D000810B50446ED
:103E100000BF00BFFEF760FD002203494FF4FA70B7
:103E20000AF0B4F910BD00000D3E00082DE9F04184
:103E300004460E46D4F800800021204600F063F9C5
:103E40000546EDB9002700BF4046A16907F068FCB0
:103E5000054605B113E0E0690078E52802D0E06985
:103E6000007820B9781C0746B04201D107E000274E
:103E70000121204600F06FF80546002DE4D000BF78
:103E8000042D00D107252846BDE8F0812DE9F04733
:103E900004468946204609F0DFFF10B10120BDE845
:103EA000F08749462046FDF7DBFB064626624FF4C5
:103EB000805104F13400FCF784FA04F1340801273E
:103EC000002500E03D446089A84207D97219607856
:103ED0003B46414600F09FF90028F3D06089A84294
:103EE00001D00120DBE70020D9E72DE9F0410446AD
:103EF00027680021204600F006F9054615B128463E
:103F0000BDE8F08100BF3846A16907F009FC05460D
:103F100005B11DE0E06906780EB9042518E0E069F6
:103F2000C07A00F03F00A071E069C07A00F008009C
:103F300038B90B2204F12001E069FCF76CFA00B9F2
:103F400006E00021204600F006F80546002DDAD0F4
:103F500000BF2846D4E72DE9F0410446884626688C
:103F6000206900F12007B7F5001F01D30020A061F0
:103F7000A06910B90420BDE8F081B089B7FBF0F169
:103F800000FB1170002847D1A069401CA061606946
:103F900038B93089B0EB571F3ED80020A06104200B
:103FA000E9E7B089B7FBF0F07189491E084098BB7A
:103FB0002046616903F09EFF0546012D01D80220CD
:103FC000D9E7681C08B90120D5E7B069A8421DD817
:103FD000B8F1000F03D10020A0610420CBE72046F8
:103FE0006169FDF74AFB05460DB90720C3E7012DBE
:103FF00001D10220BFE7681C08B90120BBE72946B0
:104000003046FFF743FF08B10120B4E76561294658
:104010003046FDF725FBA0612761B089B7FBF0F1C1
:1040200000FB117106F134000844E0610020A2E7B2
:104030002DE9F047044688460425D4F8009027E08F
:104040004846A16907F06CFB054605B123E0E0692D
:1040500006780EB904251EE0E069C07A00F03F073B
:10406000A771E52E0DD02E2E0BD00F2F09D027F0E3
:104070002000082801D1012000E00020404500D1A7
:1040800009E000212046FFF766FF054605B102E082
:10409000A0690028D4D100BF0DB10020A06128463E
:1040A000BDE8F08770B50446266801212046FFF779
:1040B000BDFE0546ADB93046A16907F031FB0546A6
:1040C0007DB92021E069FCF77CF9E069216A016093
:1040D000616A4160218D018194F82A10817201206A
:1040E0003071284670BD70B5044626683046A16917
:1040F00007F016FB054625B9E520E16908700120A7
:104100003071284670BD2DE9F04104460E46256801
:10411000B6F5001F02D206F01F0010B10220BDE864
:10412000F0812661A7681FB92878032800DBEF6AB1
:1041300047B92889B0EB561F01D80220EFE7E86A9B
:10414000A0611DE06889A98900FB01F811E03946EA
:10415000204603F0CFFE0746781C08B90120DEE7B1
:10416000022F02D3A869B84201D80220D7E7A6EBF4
:1041700008064645EBD239462846FDF771FAA0619C
:104180006761A06908B90220C9E7A889B6FBF0F009
:10419000A1690844A061A889B6FBF0F100FB116198
:1041A00005F134000844E0610020B8E7014609B990
:1041B000002070470120FCE703467BB9012902D1AA
:1041C0000802106008E0022902D10802108003E012
:1041D000032901D101201060002070470420FCE772
:1041E0002DE9FC4104460D4616461F465CB9B8024F
:1041F000B1020A460023CDE90050184607F034FB0F
:104200000020BDE8FC810420FBE7014609B900203D
:1042100070470120FCE72DE9FC4104460D46164697
:104220001F465CB9B802B1020A460023CDE900502E
:10423000184607F037FB0020BDE8FC810420FBE7AF
:1042400010B5002404E0204600F006F8601CC4B25B
:10425000042CF8DB10BD000070B50646C6EBC600A6
:1042600000EB8000484901EBC00400BF042E0CDBCA
:1042700000BF10F0BFFE40F2812344A248A14FA02E
:10428000FCF7C6F910F0E0FE00BF00BF2078002860
:1042900066D0012804D0022815D0032861D154E04B
:1042A00002202070002060700120A0700020E070CB
:1042B0006078324604F10C0100F004FB05460DB1B4
:1042C00000BF00BF5DE0A078401EC0B2A070002813
:1042D0003AD1E078401CC0B2E070042828D1607860
:1042E000401C022812DA6078401C3E4901EB800035
:1042F00060B16078401C51F8200038B16078401CF3
:1043000060700120A0700020E0703AE000BF00BFA4
:10431000D4F8100138B1002104F10C00D4F81031A8
:10432000D4F81421984700202070C4F8100128E028
:10433000E078A0706078324604F10C0100F0C2FA17
:1043400005460DB100BF00BF1BE0A068401EA06085
:1043500028B900BF00BF00202070C4F8100110E091
:104360000FE000BF00BF10F045FE40F2C52307A2DA
:104370001DA112A0FCF74CF910F066FE00BF00BFB3
:1043800000BF00BF70BD0000A8A600204C574950D8
:104390005C7372635C636F72655C646E732E630042
:1043A000617272617920696E646578206F7574201E
:1043B0006F6620626F756E647300000041737365F1
:1043C0007274696F6E206661696C65643A2025734A
:1043D0002C2066696C652025732C206C696E652025
:1043E00025640A00B0000020756E6B6E6F776E203A
:1043F000646E735F7461626C6520656E747279209F
:1044000073746174653A000010B5024600BF11F87C
:10441000013B03F0C000C02800D110E009E0107893
:104420000C78A04201D0012010BD491C521C581E1E
:10443000C3B2002BF3DC521C08780028E7D100BF80
:104440000020F1E72DE9F05F0746884691460024F9
:1044500000200646834600251BE0C5EBC50000EBA7
:104460008000314901EBC004207800B913E02078C6
:1044700003280CD120792D490978081A584506DD02
:1044800020792A490978081A00F0FF0B2E46681C8B
:10449000C5B2042DE1DB00BF042D18D1042E08DACB
:1044A000C6EBC60000EB80001F4911F8300003285E
:1044B00005D000BF00BF4FF0FF30BDE8F09F35468C
:1044C000C5EBC50000EB8000174901EBC00400BF3D
:1044D00000BF012020701548007820711348007833
:1044E000401C12490870C4F81081C4F81491384671
:1044F000FBF77CFFFF2803D23846FBF777FF00E08D
:10450000FF2082465246394604F10C00FBF740FF7B
:10451000002104F10C0000F80A102846FFF79CFE69
:104520006FF00400C9E70000A8A60020AC0000203E
:104530002DE9F04105460C4617468CB1104821681C
:10454000016000BF10F056FD204605F0D5FD06467F
:10455000324629460BA0FCF75BF810F075FD09E028
:1045600000BF10F047FD29460AA0FCF751F810F0F3
:104570006BFD00BF01200E490860BDE8F08100001E
:1045800058030020444E533A202573202D3E202509
:10459000730D0A00444E533A202573207265736FE1
:1045A0006C7665206661696C65640D0A0000000028
:1045B000540300202DE9F04106460D461746984663
:1045C0001648006840B13DB136B1307820B1304670
:1045D000FBF70CFFFF2803D96FF00D00BDE8F08159
:1045E0000FA13046FBF709FF18B9104828600020DA
:1045F000F4E7304605F090FC0446601C18B93046DC
:1046000000F052F80446601C10B12C600020E5E771
:10461000424639463046FFF715FFDFE7A800002085
:104620006C6F63616C686F73740000007F00000141
:1046300008B5144820F003001349086013A005F0E2
:104640006BFC009000BF00BF14480068C0B90EF0BA
:1046500097FA124908600846006888B100BF00BF99
:1046600000220F490D4800680EF054F800220D4951
:104670000A4800680EF0BEFA6946002000F01AFAF7
:1046800008BD00000BAB0020B80000203230382EEF
:1046900036372E3232322E3232320000A80000205D
:1046A000486601083D47000870B50546002427E02C
:1046B000C4EBC40000EB8000144911F8300003285B
:1046C0001CD1C4EBC40000EB80000A4602EBC00022
:1046D00000F10C012846FBF790FE78B900BF00BF3F
:1046E00000BF00BF00BF00BFC4EBC40000EB8000F0
:1046F000064901EBC000D0F80C0170BD601CC4B2CB
:10470000042CD5DB4FF0FF30F7E70000A8A600200F
:10471000014600BF11F8012B02F0C000C02800D1F3
:1047200008E002E0491C501EC2B2002AFADC0878F8
:104730000028EFD100BF481C704700002DE9FE4F54
:104740001546DDF830B02889B0F5007F02DD00BFE6
:1047500000BFACE028891A2802DA00BF00BFA6E03B
:104760002A89002354480168284608F017F9298946
:10477000884279D150480668308805F06DFE804641
:10478000B8F1040F70DAC8EBC80000EB80004B49A9
:1047900001EBC0042078022878D103202070F07843
:1047A00000F00F006071B08805F056FE8246F08878
:1047B00005F052FE8146B07800F0800020B16079AB
:1047C00010B9BAF1010F02D000BF00BF5FE03A4854
:1047D00001680C3104F10C00FFF716FE10B100BFA8
:1047E00000BF54E0344800680C30FFF791FF071D0C
:1047F00046E03846FFF78CFF074638680090786837
:1048000001903889ADF80800BDF80000B0F5807F50
:104810002BD1BDF80200B0F5807F26D1BDF808008D
:10482000B0F5806F21D1019805F034FEA0602449D5
:10483000A068884201D90846A060D7F80A10C4F8D9
:104840000C1100BF00BF00BF00BF00BF00BFD4F805
:10485000100140B104F5867104F10C00D4F8103158
:10486000D4F81421984722E010E0BDF8080005F0C4
:10487000F3FD07F10A014718A9F101001FFA80F9B9
:10488000B9F1000FB5DC00BF00BF00E00FE0D4F8C5
:10489000100138B1002104F10C00D4F81031D4F823
:1048A0001421984700202070C4F8100100BF28464A
:1048B00008F018F9BDE8FE8FB8000020A8A6002077
:1048C000803A09002DE9F74F82B00746894600BFBC
:1048D00000BF00BF022F0CDB00BF10F08BFB4FF4BA
:1048E0000F734DA251A157A0FBF792FE10F0ACFB45
:1048F00000BF00BF00BF5D4800EB870018B15B48F8
:1049000050F8270060B900BF10F074FB40F23D235F
:1049100041A257A14BA0FBF77BFE10F095FB00BF17
:1049200000BF00224FF48871104607F07FFB054658
:10493000002D6AD000BF286860B100BF10F05AFB9C
:1049400040F2432334A253A13EA0FBF761FE10F0D6
:104950007BFB00BF00BFD5F804800020C8F8000032
:10496000C8F80400C8F80800049805F075FDA8F818
:104970000000012088F802000002A8F8040008F1F5
:104980000C044E46761E00BF761CA346641C002015
:10499000009007E030782070641C0098401CC0B282
:1049A0000090761C30782E2802D030780028F1D183
:1049B00000988BF8000030780028E5D104F8010B4E
:1049C0004FF48070ADF80400ADF806000198206047
:1049D000AA88201D801A81B2284608F077FA234859
:1049E00000EB87013522324800680DF013FF1F48A5
:1049F00000EB8702352329462D4800680EF01EF98A
:104A00008246284608F06EF801E04FF0FF3A504623
:104A100005B0BDE8F08F00004C5749505C737263DD
:104A20005C636F72655C646E732E6300646E7320EA
:104A3000736572766572206F7574206F662061727F
:104A400072617900417373657274696F6E2066617B
:104A5000696C65643A2025732C2066696C65202595
:104A6000732C206C696E652025640A00B00000205C
:104A7000646E732073657276657220686173206E50
:104A80006F2049502061646472657373207365748C
:104A90000000000070627566206D75737420626599
:104AA00020696E206F6E6520706965636500000087
:104AB000A800002002280ADA054A12683AB131B18A
:104AC00029B10A681AB1034A0B6842F820307047CE
:104AD000A8000020B000002070B5064600BF10F00E
:104AE00089FA34A0FBF794FD10F0AEFA00BF03E0A2
:104AF0004FF4FA7010F068FB364840680028F7D091
:104B000000BF10F077FA3348001D05F0F5FA0546AE
:104B1000294631A0FBF77CFD10F096FA00BF00207B
:104B20003A49086000233A4A3A493BA0FFF742FD60
:104B300004466CB900BF10F05DFA364805F0DCFAA7
:104B40000546294638A0FBF763FD10F07DFA14E016
:104B5000601D40B900BF10F04DFA3CA0FBF758FDB6
:104B600010F072FA09E000BF10F044FA214640A0AC
:104B7000FBF74EFD10F068FA00BF002503E064204B
:104B800010F022FB6D1CB5F5FA7F03DA1F480068B0
:104B90000028F4D01D48006840B900BF10F02AFA80
:104BA00037A0FBF735FD10F04FFA00BF002010F0E2
:104BB00039FB70BD444E53207461736B3A207761AA
:104BC0006974696E6720666F722049502E2E2E0D13
:104BD0000A00000020DF0120444E53207461736BF3
:104BE0003A20676F742049502025732C207265731A
:104BF0006F6C76696E67207777772E62616964756E
:104C00002E636F6D2E2E2E0D0A000000540300201F
:104C100031450008580300207777772E6261696478
:104C2000752E636F6D000000444E533A20777777FE
:104C30002E62616964752E636F6D202D3E20257391
:104C40002028636163686564290D0A00444E533A65
:104C50002072657175657374207175657565642C56
:104C60002077616974696E672E2E2E0D0A00000090
:104C7000444E533A206572726F722025640D0A000B
:104C8000444E533A2074696D656F75740D0A0000C7
:104C900010B5044600BF00BF00F00AF80022034927
:104CA0004FF47A7009F072FA10BD0000914C0008C0
:104CB00010B50448006818B100BF00BFFFF7C0FA84
:104CC00010BD0000A80000200349096860F3C71167
:104CD000014A1160704700000080024003490968E2
:104CE00060F34611014A11607047000000800240E5
:104CF0000349096860F31041014A116070470000E0
:104D0000008002401FB50024002000900190029016
:104D100003902548006964F38500234908616846CB
:104D2000FCF704FF21490198884205D320490198E6
:104D3000884201D2022430E01D490198884205D3FF
:104D40001C490198884201D2032426E019490198A0
:104D5000884205D318490198884201D200241CE0FA
:104D600015490198884205D314490198884201D217
:104D7000012412E011490198884205D31049019895
:104D8000884201D2042408E00D490198884204D3E6
:104D90000C490198884200D805240348006964F34F
:104DA0008500014908611FBD00800240002D3101CE
:104DB000C00E16020087930300E1F50580D1F008CC
:104DC00080B2E60E00882A1100B50346587800F03C
:104DD0002FF89878FFF782FFD878FFF775FF1879DA
:104DE00000F084FC587900F05FFAD87900F0E0FA1E
:104DF000187A00F02BFC987AFFF77AFFD87A00F047
:104E000049FA187B00F05AFA587B00F019FE00BDF1
:104E100000210170C1708170817241708171417295
:104E2000C17241710173C1710172017141737047A7
:104E30000349096860F30411014A116070470000DA
:104E40000080024008B508490968C9084FF47A7221
:104E5000B1FBF2F14143009100BF00BF00994A1E2F
:104E600000920029F9D108BD0000002002783B49DA
:104E7000096862F35961394A116042793749096812
:104E800062F38601354A116082783449096862F319
:104E90005641324A116002793049096862F30D21A6
:104EA0002E4A1160C2782D49096862F310412B4ADD
:104EB000116042782949096862F3D751274A116085
:104EC00082792649096862F34101244A1160C27956
:104ED0002249096862F38F31204A1160027A1F4922
:104EE000896962F39A611D4A9161427A1B49896915
:104EF00062F35961194A9161827A1849896962F3AA
:104F00001861164A9161C27A1449896962F3555150
:104F1000124A9161027B1149896962F390310F4A0B
:104F20009161427B0D49896962F3C7110B4A916116
:104F3000827B0A49896962F38611084A9161C27BC2
:104F40000649896962F3C401044A9161027C0349FC
:104F5000896962F38201014A9161704700900240C1
:104F600070B505461446002015B1012D45D120E04D
:104F7000234E3160002015E001EB40124FF4801603
:104F80001660C0EB401606EB801604EB0616966022
:104F90005E1E864204D901EB40162036D66000E042
:104FA000D160401C9842E7D3164E3669154E3161E8
:104FB00023E0154E3160002018E001EB40124FF065
:104FC0000046166044F2F0565660C0EB401606EB01
:104FD000801604EB061696605E1E864204D901EB2D
:104FE00040162036D66000E0D160401C9842E4D3E1
:104FF000044EF668034EF16000BF00BF70BD0000B4
:10500000040000200090024008000020014948618F
:10501000704700000090024001460020024A526999
:105020000A4002B101207047009002400F2872D25E
:10503000DFE800F0080F161D242B323940474E558B
:105040005C636A00354AD26961F30002334BDA616E
:1050500061E0324AD26961F34102304BDA615AE0D1
:105060002E4AD26961F382022C4BDA6153E02B4A5B
:10507000D26961F3C302294BDA614CE0274AD26955
:1050800061F30412254BDA6145E0244AD26961F3E9
:105090004512224BDA613EE0204AD26961F3861262
:1050A0001E4BDA6137E01D4AD26961F3C7121B4B10
:1050B000DA6130E0194AD26961F30822174BDA61EC
:1050C00029E0164AD26961F34922144BDA6122E0E1
:1050D000124AD26961F38A22104BDA611BE00F4A4F
:1050E000D26961F34D320D4BDA6114E00B4AD2699B
:1050F00061F38E32094BDA610DE0084AD26961F33F
:10510000CF32064BDA6106E0044AD26961F31042FD
:10511000024BDA6100BF00BF704700000090024000
:1051200038B505460C46002000900A2D55D2DFE820
:1051300005F0050C131A2128383F464D2848806990
:1051400064F341002649886147E02548806964F39B
:1051500082002349886140E02148806964F3861019
:105160001F49886139E01E48806964F3C7101C49F3
:10517000886132E01A48806964F34D3018498861CB
:105180002BE01748806964F314501549886108467C
:10519000806900900120FFF755FE11490098886151
:1051A0001BE00F48806964F355500D49886114E095
:1051B0000B48806964F31860094988610DE008486C
:1051C000806964F359600649886106E00448806993
:1051D00064F39A600249886100BF00BF38BD0000D7
:1051E0000090024000210170817141710172C17013
:1051F0004173817281730174C171417201218170A7
:105200000021C173C172012101710021017341703C
:10521000704721B1426822F00042426003E04268D8
:1052200042F00042426070470448006800F001000C
:1052300008B1012070470020FCE700000090024008
:105240000348006820F00100401C014908607047D5
:105250000090024001460868C0F30D40704700000E
:105260000349096860F3CB21014A116070470000CF
:10527000008002400349096860F38E31014A1160E1
:105280007047000000800240014800688068704755
:10529000040000200349096860F35341014A11608A
:1052A00070470000008002400349096860F38A21CA
:1052B000014A1160704700000080024003490968FC
:1052C00060F39651014A116070470000008002406F
:1052D00000B585B001212648FCF722FD012008F029
:1052E00025FD0320FCF7E4FB082207210020FCF742
:1052F000BDFB08F0EFFC00F0EDF9FFF7A1FF00BFE8
:10530000FFF792FF0128FBD01A48FFF781FD01202B
:1053100018490870084600F05CF810B9002005B084
:1053200000BD6846FFF75EFF01208DF809008DF88B
:105330000B008DF810008DF800008DF801008DF83D
:1053400003008DF80A0020208DF802008DF804007B
:1053500000208DF807006846FFF788FD01210E2028
:10536000FFF764FE01210620FFF760FE0120D6E76B
:105370000E00440010DF01200179427941EA022247
:105380000A49096C62F30F01084A1164C1780906E1
:10539000827841EA0241427841EA022102781143CF
:1053A000024A526C014A516470470000008002407A
:1053B0000349096860F30C31014A1160704700002D
:1053C0000080024010B5002204213D2006F0B6FD09
:1053D00010BD10B50446FFF795FC00F03FF808B982
:1053E000002010BD2046FFF7EFFC0120F9E7000088
:1053F00030B503460C4600211648006963F3CF2000
:10540000144D28612846006964F38A1028612846F3
:10541000006920F0020028612846006920F00100A0
:10542000401C286100BF491C0A4840691080094897
:10543000006900F0010010B107488142F3D306482B
:10544000814201D1002030BD024840691080012016
:10545000F9E7000000800240FFFF0F0038B5002090
:105460000090002500244FF400420021084600F07F
:1054700029F808B9002038BD002400E0641C104859
:105480008442FBD300BF6D1C6A4600210846FFF72B
:10549000AFFF08B90020EEE7BDF8000000F40040BF
:1054A00010B107488542EED3002400E0641C044894
:1054B0008442FBD3854201D10020DCE70120DAE7FA
:1054C000FFFF0F0030B503460C4600211648406927
:1054D00062F30F00144D68612846006963F3CF2022
:1054E00028612846006964F38A102861284600690B
:1054F00020F00200801C28612846006920F001008D
:10550000401C286100BF491C0748006900F00100E9
:1055100010B106488142F6D30448814201D10020EF
:1055200030BD0120FCE7000000800240FFFF0F00BB
:105530001CB500200090019001214FF44010FCF7B1
:10554000EFFB01213D48FCF7EBFB01213B48401CF0
:10555000FCF7E6FB01213948801CFCF7E1FB012147
:105560003648C01CFCF7DCFB01213448401DFCF729
:10557000D7FB0B220221324802F0F7FD01208DF803
:10558000070002208DF8060000208DF8040004209A
:10559000009000208DF805006946294802F0A8FD1A
:1055A0000B220121274802F0E0FD0220009069460D
:1055B000244802F09DFD0B221146234802F0D5FD40
:1055C0000B220C21204802F0D0FD0B220D211E4899
:1055D00002F0CBFD4FF46050009069461A4802F08B
:1055E00087FD0B220721164802F0BFFD80200090A6
:1055F00002208DF806006946114802F079FD0B2261
:105600000421104802F0B1FD0B2205210D4802F0E3
:10561000ACFD3020009002208DF806006946094854
:1056200002F066FD0B220121054802F09EFD0220DA
:1056300000906946024802F05BFD1CBD010030008D
:1056400000000240000802400004024003490968CB
:1056500060F34D31014A1160704700000080024044
:1056600000B500220F480068006800F00040B0B9A3
:105670000C480068006800F4004080B909480068E0
:10568000006800F4807050B106480068006800F4BB
:10569000007020B103480068FFF7DCFD02461046A9
:1056A00000BD00000800002038B50446002000902E
:1056B0000748006864F382000549086008460068EE
:1056C00000900120FFF7BEFB01490098086038BD3B
:1056D0000080024010B501210348FCF747FB002180
:1056E0000148FCF743FB10BD19001000034909688D
:1056F00060F34921014A11607047000000800240B8
:105700003EB50446002500200090019002902348F9
:105710000068006800F0004090B1002000908020F8
:10572000FFF77AFC38B18020FFF770FC1C488068D6
:1057300000201B4988609DE8070084E807003EBD03
:1057400016480068008800F40040B0B913480068AB
:10575000008800F4807080B110480068008800F470
:10576000007050B10D4800680068C0F30D40051F7F
:105770000A4800688068019000E00025009507480D
:105780000068029005480068C068044908609DE808
:10579000070084E8070000BFD1E7000008000020F0
:1057A00000900240F8B507460D46164600200090CE
:1057B0000024012F7DD100BF641C6A460121002016
:1057C000FFF716FE08B90020F8BDBDF8000000F094
:1057D000040010B946488442EED34548844201D1C2
:1057E0000020F1E700244FF4805200210846FFF723
:1057F00069FE08B90020E7E74FF47A700FF0E4FC87
:1058000000BF641C6A4601210020FFF7F1FD08B9C2
:105810000020D9E7BDF8000000F0200010B934489E
:105820008442EED33248844201D10020CCE76A465C
:105830001F210020FFF7DCFD08B90020C4E76A46FD
:105840001F210020FFF7D4FD08B90020BCE7BDF8F8
:10585000000000F01C00182805D10120FFF700FD12
:105860000120FFF707FDBDF8000000F01C0008282C
:1058700005D10020FFF7F4FC0120FFF7FBFCBDF889
:10588000000000F01C00142805D10120FFF7E8FCFF
:105890000120FFF7EFFCBDF8000000F01C00142809
:1058A00024D10020FFF7DCFC0120FFF7E3FC1DE022
:1058B000FFE7280240EA463082B200210846FFF79F
:1058C00001FE08B900207FE7012E03D10120FFF778
:1058D000D1FC02E00020FFF7CDFC012D03D1012017
:1058E000FFF7BEFC02E00020FFF7BAFC01206BE7E7
:1058F000FFFF0F0010B5012000F03EF80121052048
:10590000FFF70EFC0120FFF7CFFE01210420FFF777
:1059100007FC01210020FFF703FC10BD10B500219A
:105920000420FFF7FDFB00210846FFF7F9FB0020EC
:10593000FFF7BAFE01210520FFF7F2FB002000F07F
:105940001BF810BD10B5FFF73DFD01210948FCF71C
:10595000E7F901210748401CFCF7E2F9012105485D
:10596000801CFCF7DDF9FFF7E3FDFFF7B1FC04460F
:10597000204610BD1900300038B5044600200090C4
:105980000748006864F3C3000549086008460068DA
:1059900000900120FFF756FA01490098086038BDD1
:1059A0000080024008B50849096841F29412B1FB31
:1059B000F2F14143009100BF00BF00994A1E0092DE
:1059C0000029F9D108BD00000000002010B50446F0
:1059D00019480068006800F0004008B1002010BDC0
:1059E000C4F30C0014490968486013480068006853
:1059F00040F040501049096808600F48006800688E
:105A000040F000400C49096808600420FFF704FBDF
:105A100038B10420FFF7FAFA084840680020074927
:105A200048600120FFF7BEFF03480068C0680249D4
:105A300008600120D3E7000004000020009002402D
:105A40000349096860F3D751014A116070470000AB
:105A5000008002402DE9FC4705468846164600BFF7
:105A60006DB90FF0C7FA67A340F2BB226BA16FA01C
:105A7000FAF7CEFD0020002000BFBDE8FC8700BF84
:105A800070892A2810DA00BF00BF7248408C401C81
:105A900081B270484184C08B401C81B26D48C18383
:105AA000304607F01FF8E8E7776807F10E04208812
:105AB000B0F5807F08D12079062805D160790428C7
:105AC00002D16088082810D000BF00BF6148008D57
:105AD000401C81B25F480185C08B401C81B25D488B
