:020000040800F2
:10000000E8240220E5020008F7040008EF040008D5
:10001000F3040008D7040008CD0500080000000024
:1000200000000000000000000000000025020008A1
:10003000DB04000800000000810200080905000838
:10004000FF020008FF020008FF020008FF0200088C
:10005000FF020008FF020008FF020008FF0200087C
:10006000FF020008FF020008FF020008FF0200086C
:10007000FF020008FF020008FF020008FF0200085C
:10008000FF020008FF020008FF020008FF0200084C
:10009000FF020008FF020008FF020008FF0200083C
:1000A000FF020008FF020008FF020008FF0200082C
:1000B000FF020008FF020008FF020008FF0200081C
:1000C000FF020008FF020008FF020008FF0200080C
:1000D000FF020008FF020008FF020008FF020008FC
:1000E000FF020008FF020008FF020008FF020008EC
:1000F000FF020008FF020008FF020008FF020008DC
:10010000FF020008FF020008FF020008FF020008CB
:10011000FF020008FF020008FF020008FF020008BB
:10012000FF020008FF020008FF020008FF020008AB
:10013000FF020008DD040008FF020008FF020008BB
:10014000FF020008FF020008FF020008FF0200088B
:10015000FF020008FF02000800000000FF02000884
:10016000FF020008FF02000800000000000000007D
:10017000FF020008F9040008FF0200080000000068
:1001800000000000FF020008FF020008FF02000854
:10019000FF02000800000000000000000000000056
:1001A000000000000000000000000000FF02000846
:1001B000FF02000800000000FF020008000000002D
:1001C000000000000000000000000000000000002F
:1001D0000000000000000000FF020008FF0200080D
:1001E000FF020008FF020008FF020008FF020008EB
:1001F000FF020008FF020008FF020008FF020008DB
:10020000FF020008FF020008FF020008DFF810D01C
:1002100000F024F900480047699E0008AFF3008011
:10022000E82402202C4B19680868B0E8F04F80F3EE
:100230000988BFF36F8F4FF0000080F3118870477B
:100240000000000008480068006880F308884FF04C
:10025000000080F3148862B661B6BFF34F8FBFF31E
:100260006F8F00DF00BF00BF08ED00E0DFF80C007B
:10027000016841F470010160704700BF88ED00E043
:10028000EFF30980BFF36F8F134B1A681EF0100F46
:1002900008BF20ED108A20E9F04F106009B44FF03C
:1002A000100080F31188BFF34F8FBFF36F8F15F0ED
:1002B00065F84FF0000080F3118809BC19680868E0
:1002C000B0E8F04F1EF0100F08BFB0EC108A80F3BA
:1002D0000988BFF36F8F704718000020EFF3058087
:1002E000704700000648804706480047FEE7FEE7E3
:1002F000FEE7FEE7FEE7FEE7FEE7FEE7FEE7FEE7D6
:100300003D0500080D0200082DE9F05F05460020BC
:1003100092469B4688460646814640241BE0284676
:1003200041464746224600F088F853465A46C01ACE
:10033000914110D311461846224600F06FF82D1A4D
:1003400067EB01084F4622460120002100F066F8C5
:1003500017EB00094E41201EA4F10104DFDC4846E2
:1003600031462A464346BDE8F09F00000649074A49
:100370000868504343F2390210440860400870474F
:100380000149086070470000880400206D4EC64196
:1003900040EA01039B0703D009E008C9121F08C007
:1003A000042AFAD203E011F8013B00F8013B521E87
:1003B000F9D27047D2B201E000F8012B491EFBD2FE
:1003C00070470022F6E710B513460A460446194660
:1003D000FFF7F0FF204610BD421C10F8011B00295A
:1003E000FBD1801A704710B5002200E0521C835CDC
:1003F0008C5CA34201D1002BF8D1D8B2E1B2401AF3
:1004000010BD30B504460020034600E05B1C93425B
:1004100003D2E05CCD5C401BF8D030BD202A04DB69
:10042000203A00FA02F1002070479140C2F1200307
:1004300020FA03F3194390407047202A04DB203A46
:1004400021FA02F00021704721FA02F3D040C2F1F4
:10045000200291400843194670470000064C074DA2
:1004600006E0E06840F0010394E807009847103484
:10047000AC42F6D3FFF7CEFE1870010838700108C1
:1004800070B58C1810F8015B15F0070301D110F856
:10049000013B2A1106D110F8012B03E010F8016B83
:1004A00001F8016B5B1EF9D12B0705D40023521E06
:1004B0000DD401F8013BFAE710F8013BCB1A921C6E
:1004C00003E013F8015B01F8015B521EF9D5A1426C
:1004D000D8D3002070BD00BFFEE7704710B54020A4
:1004E00005F090F94FF4803005F08CF910BD00BF95
:1004F000FEE700BFFEE7704710B5024814F09AF817
:1005000010BD0000E010022010B500BF102080F3E5
:100510001188BFF34F8FBFF36F8F00BF15F0E0FF5F
:1005200018B14FF080500449086000BF002080F3EC
:10053000118800BF10BD000004ED00E01F480068F6
:1005400040F470001D4908601D48006820F001005B
:10055000401C1B49086000BF19480068C0F34000F8
:100560000028F9D016480830006820F0030014492C
:100570000831086000BF124808300068C0F38100ED
:100580000028F8D10E4800680E4908400C49086060
:1005900000200B49083108600B48091F0860002043
:1005A0000749A03108604FF41F0005490C3108606D
:1005B0004FF00060014980390860704788ED00E025
:1005C00000380240FFFFF2FE0230030000BFFEE7EA
:1005D0000FB4054B10B503A9044A029800F01AF8AD
:1005E00010BC5DF814FB0000457600088C04002068
:1005F00000BFFEE702E008C8121F08C1002AFAD1B6
:1006000070477047002001E001C1121F002AFBD192
:10061000704700002DE9FF4F8DB00F4605460026BC
:1006200006E025280BD0DDE90F1290476D1C761CE3
:1006300028780028F5D111B03046BDE8F08F0024AD
:10064000A246A1460122E94900E0044315F8013F12
:10065000203B02FA03F00842F7D128782A2810D06C
:100660006FF02F022878A0F13001092914D80AEB85
:100670008A0102EB410144F0020400EB010A6D1C07
:10068000F0E701CF5FEA000A03D544F40054CAF151
:10069000000A44F002046D1C28782E2817D115F8A2
:1006A000010F44F004042A280ED06FF02F0228789E
:1006B000A0F1300109290AD809EB890102EB4101B7
:1006C00000EB01096D1CF2E757F8049B6D1C2878BC
:1006D0006C280FD006DC4C2817D068280DD06A286B
:1006E00014D104E0742810D07A280FD10DE044F41E
:1006F00000140AE044F4801401E044F440146978E2
:10070000814202D104F580146D1C6D1C28786E287E
:100710001ED00CDC632830D004DC00288BD0582895
:1007200011D19FE0642867D069280CD164E0732858
:100730002DD004DC6F2872D0702804D194E0752885
:100740006ED078286DD0DDE90F129047761C4BE112
:10075000C4F30250022806D0032809D0042801CF90
:1007600009D0066040E101CFF117C0E900613BE12B
:1007700001CF068038E1067036E117F8040B8DF8DA
:10078000000000208DF80100EB46012003E057F83F
:1007900004BB4FF0FF3061074FF0000102D40DE0C1
:1007A00008F10101884649450FDA8045F8DB1BF85E
:1007B00008100029F4D108E008F1010188468142BF
:1007C000FADB1BF808100029F6D1DDE90F23AAEBAC
:1007D00008008146214600F031F9304400EB08065C
:1007E00004E0DDE90F121BF8010B9047B8F1010896
:1007F000F7D221464846F2E00A21C4F302524FF0F4
:10080000000B0891022A04D001CFC117032A09D096
:100810000AE0FF1D27F00707F7E8020108E02CE0D7
:100820001EE01FE000B2C117042A01D140B2C11777
:10083000021E71F1000206DA0023D0EB030063EB25
:1008400001012D2202E0220504D52B228DF824205F
:10085000012203E0E20701D02022F7E7904653E0AF
:100860000A210BE0102109E010214FF0000B44F0A9
:1008700004044FF00809089103E008214FF0000B31
:100880000891C4F30252022A04D001CF0021032AA6
:1008900006D006E0FF1D27F00707F7E8020103E096
:1008A00080B2042A00D1C0B24FF0000822072BD535
:1008B0002A78702A07D0DDF820C08CF0100C5CEA92
:1008C0000B0C05D00EE040228DF82420012208E018
:1008D00050EA010306D030238DF824308DF825200E
:1008E00002229046089B83F0080353EA0B030BD1C6
:1008F00050EA010201D1620706D530228DF824208A
:100900004FF00108A9F101092A78582A04D038A229
:100910000B9208AA0A920BE03AA2F9E75B46089A02
:10092000FFF7F2FC0B9B9B5C0A9A521E0A92137013
:1009300050EA0102F2D10A98ADEB000000F1200B61
:10094000600702D524F4803401E04FF00109D94555
:1009500002DDA9EB0B0000E0002000EB0B0141449D
:100960000890AAEB010AE00306D4DDE90F23214633
:10097000504600F063F806444FF0000908E009A96A
:1009800011F80900DDE90F12904709F10109761C01
:10099000C145F4DBE0030CD5DDE90F2321465046C9
:1009A00000F04CF8064404E0DDE90F1230209047D7
:1009B000761C0899481E08900029F5DC08E00A9882
:1009C0000A990078491C0A91DDE90F129047761CBC
:1009D000BBF10001ABF1010BF1DC21465046DDE932
:1009E0000F2300F019F806446D1C21E609280100C8
:1009F0003031323334353637383961626364656695
:100A00000000000030313233343536373839414256
:100A100043444546000000002DE9F041044600250E
:100A20001E461746880404D405E039462020B04706
:100A30006D1C641EF9D52846BDE8F0812DE9F04112
:100A4000044600251E469046C80301D5302700E025
:100A50002027880404D505E041463846B0476D1C80
:100A6000641EF9D52846BDE8F081000030B90A4A75
:100A7000126822F00202084B1A6006E0064A126869
:100A800022F00202921C044B1A60034A126861F3BE
:100A90000002014B1A607047047401400249096862
:100AA0000143014A11607047047401400149086024
:100AB000704700000C740140014908607047000055
:100AC000107401400149086070470000147401402F
:100AD00010B5044600BF00BF06F0D6FA0022034955
:100AE00041F288300DF032F910BD0000D10A000843
:100AF00070B505462E467068446A41F2840001597B
:100B000041F2A400015141F28800015941F2A800CC
:100B100001514FF4845000592349884214D10121D6
:100B2000304613F073FC1F280ED141F28D00005D9A
:100B3000012809DC41F28E00005D012804DB41F24E
:100B40008E00005D10280BDD20220521284600F0D4
:100B50008FFB022084F85D00284600F08FFB22E026
:100B6000284600F0B4F818B1284600F087FB1AE0D8
:100B700094F85C00012816D094F85C00022812D08A
:100B800094F85C0004280ED0E06F20B900212846BC
:100B900000F020FB07E0E06F28B104F18001284657
:100BA000E26F00F03BFB70BD5553424310B5024667
:100BB0000C4613465868416A0020C86710BD2DE9ED
:100BC000F04107460C46B846D8F80400456A05F1DE
:100BD000800605F1680000EB8402001F00EB840131
:100BE00020460AF059F905F1640050F82400401E2F
:100BF000000E307005F1640050F82400401E000C17
:100C0000707005F1640030F82400401E000AB070D6
:100C100005F1640010F82400401EF07005F1680032
:100C200050F82400000E307105F1680050F82400DF
:100C3000000C707105F1680030F82400000AB071F2
:100C400005F1680010F82400F0710820E867002022
:100C5000BDE8F0812DE9F04304460D4616461F46D7
:100C6000A046D8F80400D0F82490F11909F16400E6
:100C700050F82500814207D921220521204600F0A5
:100C8000F7FA0120BDE8F0830020FBE72DE9F041F1
:100C900004460E4627467868456A95F85D000228A6
:100CA00007D18121384613F008FF002085F85D0048
:100CB0000BE006F08000802807D195F85D00012840
:100CC00003D00121204600F085FABDE8F0812DE92E
:100CD000F041054601262F467868446A41F28F00AC
:100CE000005D232876D00EDC1A2829D006DC0028E7
:100CF00056D003284CD0122874D111E01B2817D0ED
:100D00001E286FD12CE02A285AD004DC252837D0A1
:100D1000282867D12CE02F284AD05A2862D117E022
:100D200041F28D00015D284600F01CF9064660E0A6
:100D300041F28D00015D284600F0C4FA064658E0F5
:100D400041F28D00015D284600F054F9064650E05E
:100D500041F28D00015D284600F034F9064648E076
:100D600041F28D00015D2846FFF720FF064640E076
:100D700041F28D00015D284600F054F9064638E046
:100D800041F28D00015D2846FFF719FF064630E06D
:100D900041F28D00015D284600F0E2F9064628E0A8
:100DA00041F28D00015D284600F095FA064620E0EC
:100DB00041F28D00015D284600F0A5FA064618E0D4
:100DC00041F28D00015D284600F0D7FA064610E09A
:100DD00000E007E041F28D00015D284600F04DF88B
:100DE000064606E020220521284600F041FA0126A9
:100DF00000BF00BF3046BDE8F0812DE9F041044658
:100E00000F4626467068456A95F85C00012804D0B4
:100E100003280CD004280FD108E02046FFF757FF25
:100E200018B10121204600F0D5F906E000BF0021ED
:100E3000204600F0CFF900E000BF00BFBDE8F08120
:100E40002DE9F04104460F4626467068456A95F83C
:100E50005C00022805D007280CD12046FFF748FE89
:100E600008E02046FFF733FF18B10121204600F0CB
:100E7000B1F900BF00BFBDE8F0812DE9F0410746A0
:100E80000D46B846D8F80400466A06F180040020F2
:100E900020706070A0700820E07006F1680000EB20
:100EA0008502001F00EB8501284609F0F5FF06F1D9
:100EB000640050F82500401E000E207106F1640009
:100EC00050F82500401E000C607106F1640030F8F7
:100ED0002500401E000AA07106F1640010F82500EC
:100EE000401EE0710220207206F1680050F82500D3
:100EF000000C607206F1680030F82500000AA0724C
:100F000006F1680010F82500E0720C20F067002060
:100F1000BDE8F08170B505462E467068446A07202A
:100F200084F85C00002084F85D0020660C494FF4D2
:100F300085500151002141F2A80001514FF4855024
:100F40000151001D01510121304613F09DF91F236D
:100F500004F584520121304613F010F870BD0000F2
:100F6000555342532DE9F047074688460024A146D1
:100F7000BA46DAF80400456A41F29000405D00F09C
:100F8000010010B10E4E05240DE0404606F000FCB5
:100F9000064641F288004059242803D241F28800D5
:100FA000445900E02424EC6704E0641E315D05F13F
:100FB00080000155002CF8D14846BDE8F0870000BC
:100FC0002403002070B502460D46082114466068CF
:100FD000436A0820D86706E0481EC1B20448465C50
:100FE00003F1800046540029F6D1002070BD0000B6
:100FF0004C03002070B502460D4608211446606877
:10100000436A0820D86706E0481EC1B20448465C1F
:1010100003F1800046540029F6D1002070BD000085
:10102000440300202DE9FC5F82468946D346DBF865
:101030000400446A04F5845000F10F0694F85C0043
:1010400007284FD141F28C00005D00F0800080281D
:1010500007D020220521504600F00AF90120BDE802
:10106000FC9FB0780006F17840EA0140317940EA0F
:10107000012071790843C117C4E91C01307AF17964
:1010800040EA0120A06749465046A36F226FFFF750
:10109000E1FD08B10120E2E704F1680050F8290001
:1010A0000021D4E91C32A3FB007C02FB00C003FB3F
:1010B0000100C4E91C7004F1680151F82910A06F07
:1010C0004843A06741F288000059A16F884206D0CA
:1010D00020220521504600F0CBF80120BFE7012077
:1010E00084F85C004FF48050E067A06FB0F5805F3B
:1010F00001D2A06F01E04FF4805085B204F180006E
:10110000CDE90005D4E91C733A46484609F0D4FEFF
:1011100030B13A220421504600F0AAF801209EE79F
:10112000ABB204F180028121584612F0B1FFD4E93C
:101130001C20521940F10000C4E91C20A06F401B84
:10114000A06741F2A8000059411B41F2A8000151DB
:10115000A06F10B9042084F85C0000207FE7000035
:10116000F0B503460F4612221E467068416A01F12F
:1011700080040A4D02E0521EA85CA054002AFAD155
:1011800041F288004058122804D241F288004058A9
:10119000C86701E01220C8670020F0BD2C030020C2
:1011A00070B505462E467068446A072084F85C00D6
:1011B000012084F85D00002020660121304613F0F4
:1011C00063F81F2304F584520121304612F0D6FE45
:1011D00070BD00002DE9F04105460E462F467868A7
:1011E000446A41F2AC0006510B494FF4855001515D
:1011F000072084F85C000D2304F5855281213846D0
:1012000012F046FF1F2304F584520121384612F0E4
:10121000B5FEBDE8F0810000555342532DE9F0477B
:1012200006460F469046B146D9F80400446A41F29A
:1012300088000059404501D9404602E041F288004B
:10124000005985B241F2A8000059411B41F2A800A3
:1012500001510021001D0151032084F85C002B4640
:101260003A468121484612F013FFBDE8F08700009E
:10127000014B99701A7470472C03002070B5054615
:101280002E467068446A41F28800005950B141F21C
:101290008C00005D30B994F85D0018B9012130462A
:1012A00013F00BFC8121304613F007FC94F85D002D
:1012B000022806D11F2304F584520121304612F082
:1012C0005DFE70BD10B502460C4613465868416A73
:1012D0000020C86710BD2DE9F0410446884600266D
:1012E00027467868456A41F28800405938B1202283
:1012F00005212046FFF7BCFF0120BDE8F08100205A
:10130000E8673046F9E72DE9F04106460F46B0465A
:10131000D8F80400446A04F5845000F10F0541F246
:101320009000005D00F00200022807D12422052170
:101330003046FFF79DFF0120BDE8F081A878000648
:10134000E97840EA0140297940EA012069790843B7
:10135000C117C4E91C01287AE97940EA0120A06795
:1013600039463046A36F226FFFF774FC08B10120A5
:10137000E2E70020E06700BFDEE72DE9FC5F824680
:101380008946D346DBF80400446A04F5845000F132
:101390000F0694F85C00072860D141F28C00005DD4
:1013A00000F08000802807D1202205215046FFF759
:1013B0005FFF0120BDE8FC9FB0780006F17840EAAD
:1013C0000140317940EA012071790843C117C4E92D
:1013D0001C01307AF17940EA0120A0674946504665
:1013E000A36F226FFFF736FC08B10120E2E704F19A
:1013F000680050F829000023D4E91C12A1FB007CEE
:1014000002FB00C001FB0300C4E91C7004F1680189
:1014100051F82910A06F4843A06741F28800005995
:10142000A16F884206D0202205215046FFF720FFF9
:101430000120BFE7022084F85C00A06FB0F5805F58
:1014400001D2A06F01E04FF4805085B22B4604F129
:1014500080020121584612F091FD42E0A06FB0F5E4
:10146000805F01D2A06F01E04FF4805085B204F19B
:101470008000CDE90005D4E91C733A46484609F0DE
:1014800032FD30B13A2204215046FFF7F1FE01202F
:1014900090E7D4E91C20521940F10000C4E91C2057
:1014A000A06F401BA06741F2A8000059411B41F208
:1014B000A8000151A06F20B900215046FFF78AFE15
:1014C0000FE0A06FB0F5805F01D2A06F01E04FF494
:1014D000805085B22B4604F180020121584612F05B
:1014E0004DFD002066E72DE9F04106460C464FF021
:1014F000000837467868456A207800F0600010B32D
:10150000202843D1E088E8B1207800F0800068B15D
:10151000E388617805F14402304612F04BF8E28826
:1015200005F14401384612F016FB0BE0607805F82F
:101530004C0FE08868806A884C3D05F144013846CC
:1015400012F0EBFA26E0607806280AD004DC0128C5
:1015500014D0032814D112E00A2806D00B280FD18A
:1015600009E0384612F017FB0EE001222946384602
:1015700012F0F1FA08E06088286005E004E003E07A
:10158000384612F008FB00BF00BF03E0384612F0F7
:1015900002FB00BF00BF4046BDE8F08101460120CC
:1015A00081F85200002081F8530008600848006864
:1015B0004865074882795A204254054802795820E4
:1015C0004254034842795920425400207047000099
:1015D000040200202DE9F0410446884600202071D5
:1015E000401E20624146204609F0C6FB10B104208F
:1015F000BDE8F08104F2322008F0EAF9074694F8D9
:101600003450EB2D03D0E92D01D0E82D43D14AF61B
:101610005520874208D1082223A104F18600FEF755
:10162000F0FE08B90020E3E704F13F0008F0D0F92C
:1016300006464120055D701E304060BBB6F5007F58
:1016400029DBB6F5805F26DC2DB3681E284010BB71
:1016500004F1420008F0BCF9E8B14420005D401EEE
:10166000012818D804F1450008F0B2F998B104F146
:10167000470008F0ADF9802806DA04F1540008F0BC
:10168000ADF9B0F5803F06D304F14A0008F0A0F9A7
:1016900008B10020ACE74AF65520874201D102206C
:1016A000A6E70320A4E7000046415433322020205F
:1016B0000000000070B50446002526468221304611
:1016C00012F0B7FB8321304612F0B3FB0221304603
:1016D00012F0AFFB8121304612F0ABFB0121304606
:1016E00012F0A7FB284670BD2DE9F0410446002703
:1016F00026467068456A0021304612F087FE804613
:1017000095F84C00202808D11FFA88F395F84C1062
:1017100005F14402204611F04DFF3846BDE8F08146
:101720000146002070470246002007290AD2DFE860
:1017300001F0090405060907080004E003E002E0DF
:1017400001E000E000BF00BF70472DE9F041044612
:101750000D4626467068476A4FF000082946304615
:1017600012F092FD05F07F00032802D1012087F8D6
:10177000520005F07F00012803D129462046FFF7DB
:101780003CFB4046BDE8F0812DE9F04104460027CE
:1017900025466868466A3046FFF700FF08230322A3
:1017A0008221284612F0BDFB4023022283212846D5
:1017B00012F0B7FB402302221146284612F0B1FB7B
:1017C0004023321D0221284612F0D8FB402302227A
:1017D0008121284612F0A5FB402302220121284640
:1017E00012F09FFB2046FFF795FB3846BDE8F081DD
:1017F0002DE9F04104460D464FF00008264670687A
:10180000476A05F07F00022808D12946304612F0C9
:10181000FDFDA7F85000012087F8530005F07F0078
:10182000012803D129462046FFF70AFB4046BDE8C0
:10183000F0812DE9F04105460C4600262F46207820
:1018400000F01F00012802D0022819D10BE0A08867
:1018500020B92146284609F0A9FA03E02146384676
:10186000FFF741FE0CE0A088812804D121462846DC
:1018700009F09CFA03E021463846FFF734FE00BF2A
:1018800000BF3046BDE8F0810146002070470000EF
:101890000349096860F30711014A116070470000AD
:1018A000083802400349096860F38C21014A11603D
:1018B00070470000083802400349096860F34F315F
:1018C000014A11607047000008380240012807D122
:1018D0000749096821F030013031054A116005E0FF
:1018E0000349096821F03001014A11607047000086
:1018F000A438024010B570B90E4B1B6861F31A632F
:101900000C4C23600B4B98331B6862F31B63094C30
:10191000983423600DE0074B1B6861F3DD63054CD1
:101920002360044B98331B6862F31F73014C983497
:10193000236010BD083802400349096860F356511E
:10194000014A1160704700000838024005282BD278
:10195000DFE800F0030A11182100154A126861F34C
:101960000002134B1A6020E0114A126861F3104222
:101970000F4B1A6019E00E4A126861F318620C4BA3
:101980001A6012E00A4A7032126861F30002084BD2
:1019900070331A6009E0064A7432126861F300027B
:1019A000034B74331A6000E000BF00BF70470000B3
:1019B000003802402DE9FE4F04464FF00009CA46A8
:1019C000CB460020029001900025002600F0C6F9C9
:1019D0000090009820B1012812D002283FD112E0D7
:1019E00031480068C0F3803038B12F480068C0F338
:1019F000003010B12D48206001E02D48206031E01A
:101A00002B4820602EE028489C380068C0F38050A6
:101A1000029025489C380068C0F3881922489C38F9
:101A2000006800F00F0A20489C380068C0F30240AC
:101A3000204911F800B0029810B91D48019001E04A
:101A40001B4801900AFB0BFC0198A0FB09700146A2
:101A5000624600233846FEF757FC206002E0144837
:101A6000206000BF00BF104898380068C0F303151D
:101A70001148465D2068F04060600B489838006867
:101A8000C0F382250D48465D6068F040E06006487E
:101A900098380068C0F342350948465D6068F040F8
:101AA000A060BDE8FE8F0000A0380240006CDC02A0
:101AB00000127A007E6A01085E6A01086E6A0108F7
:101AC000766A010810B501460020094B03EB11426C
:101AD000D2F8002801F01F040123A3401A4001F0AE
:101AE0001F040123A3409A4200D000E0012010BD52
:101AF0000030024030B50024002500E0641C1120B5
:101B0000FFF7E0FF012802D0B4F5405FF6D31120C3
:101B1000FFF7D8FF012801D0002500E00125284665
:101B200030BD000008B510490968C1F3803100914B
:101B30000D49096821F4804101F580410A4A11608C
:101B4000BFF36F8F1146096860F30C311160BFF36A
:101B50006F8F9DF800200449096862F38E31024AB4
:101B60001160BFF36F8F08BDA03802400D490968AE
:101B700021F4804101F580410A4A1160BFF36F8F63
:101B80001146096821F4805101F580511160BFF3BD
:101B90006F8F1146096860F38E311160BFF36F8F4C
:101BA00070470000A038024010B501290FD1104B3A
:101BB00003EB1042D2F8002800F01F040123A340D9
:101BC0001A430B4C04EB1043C3F800280EE0084BFB
:101BD00003EB1042D2F8002800F01F040123A340B9
:101BE0009A43034C04EB1043C3F8002810BD0000D7
:101BF0000030024010B501290FD1104B03EB104209
:101C0000D2F8002800F01F040123A3401A430B4C14
:101C100004EB1043C3F800280EE0084B03EB10421E
:101C2000D2F8002800F01F040123A3409A43034C7C
:101C300004EB1043C3F8002810BD00000030024040
:101C4000F0B504460D4616461F4614B90120FFF7AD
:101C500069FF0B48006864F396500949086008461C
:101C6000006865F38E1008600846006866F303009C
:101C700008600846006867F312400860F0BD000085
:101C8000043802402348006820F00100401C21492C
:101C9000086000BF1F480068C0F340000028F9D06A
:101CA0001C480830006820F003001A490831086019
:101CB00000BF184808300068C0F381000028F8D140
:101CC000144800681449084012490860002011496E
:101CD000083108601148091F08600E48A0300068EC
:101CE00020F4804000F580400A49A0310860BFF32D
:101CF0006F8F0846006820F480500860BFF36F8F34
:101D000000200860BFF36F8F4FF41F0001490C31B2
:101D10000860704700380240FFFFF2FE0230030007
:101D20000D49096860F301010B4A116000BF00BF53
:101D300000BF00BF00BF00BF00BF00BF00BF00BFAB
:101D400000BF00BF00BF00BF00BF00BF00BF00BF9B
:101D500000BF00BF7047000008380240024800681A
:101D6000C0F3810070470000083802400349096849
:101D700060F30F31014A116070470000A43802403F
:101D800000B50346012B01D1FFF7F0FE03480068C0
:101D900063F34D300149086000BD0000A0380240E7
:101DA0001CB5044601211848FFF7FEFE0121174823
:101DB000FFF7FAFE684605F041FD01208DF80700A7
:101DC00000208DF8040002208DF8060020200090ED
:101DD00000208DF8050069460D4805F039FD072201
:101DE00005210B4805F071FD002301222146094819
:101DF00010F036FE0121074810F088FE0121054849
:101E000010F020FE1CBD0000110040000300300057
:101E1000000C02400044004070B504460D4600BF6F
:101E200064B912F0DDFF11A340F2253215A119A00B
:101E3000FEF7CEFB0020002000BF70BD00BF00BF3A
:101E400000BF606A78B1606A007B08280BD100BFD0
:101E500000BF2868616A496A884204D100BF00BF98
:101E6000204600F0D7FA00BFE7E700004C57495082
:101E70005C7372635C636F72655C646863702E632D
:101E8000000000006E6574696620213D204E554CAF
:101E90004C000000417373657274696F6E202225D7
:101EA0007322206661696C6564206174206C696EC0
:101EB0006520256420696E2025730A007CB50646DE
:101EC00000BF66B912F08CFF49A34FF469724EA1AE
:101ED00054A0FEF77DFB0020002000BF7CBD00BFAA
:101EE000746A00BF64B912F07BFF41A340F2A632CE
:101EF00056A14CA0FEF76CFB0020002000BFEDE7D0
:101F000000BF00BF00BF606B401C90B100BF00BFAE
:101F1000606B1E303C21B0FBF1F5B5F5803F01D37D
:101F20004FF6FF75A583A08B08B90120A08300BFE1
:101F300000BFA06B401C90B100BF00BFA06B1E3063
:101F40003C21B0FBF1F5B5F5803F01D34FF6FF75AD
:101F5000E583E08B08B90120E08300BF00BFA08BC0
:101F6000E18B884204DBE08B002801DD0020A083A8
:101F7000A07B10B1A06A019010E094F824007F28A3
:101F800002DCFF21019108E0C02803DB6FF07F41F4
:101F9000019102E04FF6FF71019100BFE06A0090ED
:101FA000684608B1009838B9606A01990840009005
:101FB000009840F08070009000BF00BF04F1240141
:101FC000304609F0F3F900BF00BF01A9304609F01F
:101FD00077FA00BF00BF6946304609F0DEF93046A7
:101FE00009F076FA0A21204601F0F4FB00BF75E7FC
:101FF0004C5749505C7372635C636F72655C6468D4
:1020000063702E6300000000646863705F62696E35
:10201000643A206E6574696620213D204E554C4C13
:1020200000000000417373657274696F6E20222591
:102030007322206661696C6564206174206C696E2E
:102040006520256420696E2025730A00646863702A
:102050005F62696E643A206468637020213D204E9F
:10206000554C4C002DE9F0410646746A00BF00BF94
:102070000821204601F0AEFB002204F12401304685
:1020800004F06EFD05460DB100BF00BF607B401C33
:1020900060734FF4FA7707F2F310394690FBF1F0D2
:1020A000608300BF00BFBDE8F081000010B512489A
:1020B000046800BF00BF1BE0606AC0B1606AC18BEA
:1020C000481E626AD083012905D100BF00BF2046A7
:1020D00001F01CFD0BE0606A818B481E626A9083F0
:1020E000012904D100BF00BF204601F0FBFC246899
:1020F000002CE1D110BD0000EC0000202DE9F041E2
:1021000006460C46174600BF002E0FD112F068FE9F
:1021100070A340F27C6275A17CA0FEF759FA002002
:10212000002000BF6FF00D00BDE8F08100BF00BFD0
:1021300074B912F055FE67A340F27D627DA173A0D1
:10214000FEF746FA0020002000BF6FF00500EBE725
:1021500000BF00BF206960B100BF12F041FE40F235
:102160007E635CA27BA185A0FEF732FA12F062FECC
:1021700000BF00BF00BF606960B100BF12F030FE59
:1021800040F27F6353A287A17CA0FEF721FA12F0F0
:1021900051FE00BF00BF00224FF49A71104609F0B3
:1021A00075FA2061206920B900BF00BF4FF0FF30F1
:1021B000BAE700BF20694089B0F59A7F0CD200BF12
:1021C00012F00EFE40F2866342A280A16BA0FEF7E1
:1021D000FFF912F02FFE00BF00BF607B18B9FEF7B9
:1021E000C5F88A49086089480068206000BF00BFC0
:1021F0002069406860610120616908706169487008
:1022000096F82A006169887000206169C8702068AA
:1022100007F0B3FC61694860002061690881616969
:1022200048816169C860082F09D0042F07D0032FA7
:1022300008D1207B052802D0207B042802D17068B9
:102240006169C8600020616908616169486161690C
:10225000886100250DE096F82A00A84203DD06F10A
:102260002B00405D00E0002061691C314855681C6E
:1022700085B2102DEFD3002505E0002160692C30D8
:102280004155681C85B2402DF7D3002505E000219B
:1022900060696C304155681C85B2802DF7D35C486D
:1022A0006169C1F8EC0000202083002504E060692A
:1022B000F0304555681C85B2442DF8D301223521F4
:1022C000204600F0EDFA3946204600F031FB0020B0
:1022D0002AE700004C5749505C7372635C636F726D
:1022E000655C646863702E6300000000646863705E
:1022F0005F6372656174655F6D73673A206E6574C4
:10230000696620213D204E554C4C00004173736599
:102310007274696F6E2022257322206661696C6574
:1023200064206174206C696E6520256420696E20CC
:1023300025730A00646863705F6372656174655F2A
:102340006D73673A206468637020213D204E554CC0
:102350004C000000646863705F6372656174655F60
:102360006D73673A20646863702D3E705F6F75749B
:10237000203D3D204E554C4C0000000041737365DC
:102380007274696F6E206661696C65643A202573AA
:102390002C2066696C652025732C206C696E652085
:1023A00025640A00646863705F6372656174655FC9
:1023B0006D73673A20646863702D3E6D73675F6F5D
:1023C0007574203D3D204E554C4C00006468637090
:1023D0005F6372656174655F6D73673A20636865FA
:1023E000636B207468617420666972737420706214
:1023F00075662063616E20686F6C642073747275FB
:10240000637420646863705F6D736700B8000020B8
:10241000638253632DE9F84305466C6A002600BFCA
:1024200000BF0C21204601F0D5F9042221462846A0
:10243000FFF764FE06460EBB04223221204600F060
:102440002FFA606A07F0C4FB80464146204600F040
:10245000C9FA204600F080FB228BF03291B220694D
:102460000AF064F8009543230E4A2169606810F071
:10247000F3F9204600F018F800BF01E000BF00BFEC
:10248000607B401C607342F2107707F2F3104FF448
:10249000FA7190FBF1F0608300BF00BF3046BDE8E9
:1024A000F8830000586B010810B5044600BF64B9FA
:1024B00012F096FC1CA340F2C96221A128A0FEF7ED
:1024C00087F80020002000BF10BD00BF00BF2069BA
:1024D00000280CD100BF12F083FC40F2CA6312A2A4
:1024E00029A133A0FEF774F812F0A4FC00BF00BFCE
:1024F00000BF606900280CD100BF12F071FC40F2EF
:10250000CB6309A234A12AA0FEF762F812F092FC74
:1025100000BF00BF206910B1206909F013FE002040
:102520002061606100BFCFE74C5749505C73726314
:102530005C636F72655C646863702E63000000000A
:10254000646863705F64656C6574655F6D73673A3A
:10255000206468637020213D204E554C4C000000E3
:10256000417373657274696F6E2022257322206631
:1025700061696C6564206174206C696E65202564F6
:1025800020696E2025730A00646863705F64656C5F
:102590006574655F6D73673A20646863702D3E7083
:1025A0005F6F757420213D204E554C4C000000009B
:1025B000417373657274696F6E206661696C6564DE
:1025C0003A2025732C2066696C652025732C206CBD
:1025D000696E652025640A00646863705F64656CD9
:1025E0006574655F6D73673A20646863702D3E6D36
:1025F00073675F6F757420213D204E554C4C000071
:10260000F8B505466C6A002600BF00BF0020606276
:102610000621204601F0DEF8012221462846FFF778
:102620006DFD0646002E3AD100BF00BF02223921BF
:10263000204600F035F9298D204600F047FA0422A3
:102640003721204600F02CF90121204600F070F9D6
:102650000321204600F06CF91C21204600F068F9A7
:102660000621204600F064F9204600F075FA00BF0C
:1026700000BF228BF03291B2206909F057FF00BFF2
:1026800000BF00954323164A2169606810F0E4F802
:1026900000BF00BF2046FFF707FF00BF01E000BFFB
:1026A00000BF607B401C6073607B062803DA617B9F
:1026B0000120884000E03C2000EB4001C1EBC0104D
:1026C0004FF6FF7101EAC00707F2F3104FF4FA71F9
:1026D00090FBF1F0608300BF00BF3046F8BD000002
:1026E000586B010810B5104804681AE0606AB8B168
:1026F000606A408B012805DD606A408B401E616A7C
:1027000048830DE0606A408B012809D1606A408BE4
:10271000401E616A488300BF00BF204601F00AFAEC
:102720002468002CE2D110BDEC000020F8B506466C
:10273000746A0020A062E0622448C07810B1244886
:10274000C06820632148007918B12148006960639E
:1027500002E0206B400860631C48407918B11C48B7
:102760004069A06301E0206BA063A068006960621B
:102770001648807938B11649886907F0FEF9A062D9
:102780000120A07301E00020A0731048C07920B19F
:102790000F49C86907F0F1F9E06200250EE005F184
:1027A00008010B4A52F8210007F0E7F9009069464A
:1027B000284601F075FF681CC5B200BF05F108008E
:1027C0000249085C08B1022DE9DBF8BDC4A700206E
:1027D0009CA7002070B50446656A00BF00BF204674
:1027E00008F0C6FD0949204608F0E0FD07492046EB
:1027F00008F0D3FD0549204608F062FE0C2128466A
:1028000000F0E8FF2046FFF7FBFE70BD546B0108A7
:1028100070B505466C6A00BF00BF0B48807878B180
:102820000A49886807F0A9F9206200BF00BFA068C4
:102830000069606200BF00BF284600F049FF01E068
:1028400000BF00BF70BD0000C4A700209CA70020EF
:1028500070B505466C6A04B970BD207B042809D0A8
:1028600003DC98B1032812D107E0052803D00A2819
:102870000DD101E000BF00BF00BF284608F078FD81
:1028800000206073284600F04DFD06E005E00020C2
:1028900060732846FFF7B4FE00BF00BF00BFDBE750
:1028A00070B504460E46154600BF208B801C284498
:1028B00044280CD900BF12F093FA40F2F6430BA261
:1028C000104911A0FDF784FE12F0B4FA00BF00BF5A
:1028D000218B481C20836069F0304654218B481CB2
:1028E00020836069F030455470BD00004C5749505A
:1028F0005C7372635C636F72655C646863702E63A3
:1029000000000000AC6D0108417373657274696F5B
:102910006E206661696C65643A2025732C206669B7
:102920006C652025732C206C696E652025640A0077
:1029300070B504460D4600BF208B44280CD300BF61
:1029400012F04EFA40F2015307A20DA11BA0FDF7B1
:102950003FFE12F06FFA00BF00BF218B481C20839E
:102960006069F030455470BD4C5749505C737263D8
:102970005C636F72655C646863702E6300000000C6
:10298000646863705F6F7074696F6E5F627974659D
:102990003A20646863702D3E6F7074696F6E735F68
:1029A0006F75745F6C656E203C20444843505F4FE8
:1029B0005054494F4E535F4C454E00004173736570
:1029C0007274696F6E206661696C65643A20257364
:1029D0002C2066696C652025732C206C696E65203F
:1029E00025640A0070B504460D4600BF208B001D0B
:1029F00044280CD900BF12F0F3F94FF4A26313A2DC
:102A000018A128A0FDF7E4FD12F014FA00BF00BFE2
:102A1000290E228B501C20836069F0308154C5F34D
:102A20000741228B501C20836069F0308154C5F32C
:102A30000721228B501C20836069F0308154228B47
:102A4000501C20836069F030855470BD4C5749504C
:102A50005C7372635C636F72655C646863702E6341
:102A600000000000646863705F6F7074696F6E5F70
:102A70006C6F6E673A20646863702D3E6F70746986
:102A80006F6E735F6F75745F6C656E202B203420E2
:102A90003C3D20444843505F4F5054494F4E535F94
:102AA0004C454E00417373657274696F6E206661A8
:102AB000696C65643A2025732C2066696C65202555
:102AC000732C206C696E652025640A0070B504467D
:102AD0000D4600BF208B801C44280CD900BF12F08B
:102AE0007FF94FF4A1630BA2104911A0FDF770FD0F
:102AF00012F0A0F900BF00BF290A228B501C2083CE
:102B00006069F0308154228B501C20836069F03062
:102B1000855470BD4C5749505C7372635C636F722F
:102B2000655C646863702E6300000000686D0108D6
:102B3000417373657274696F6E206661696C656458
:102B40003A2025732C2066696C652025732C206C37
:102B5000696E652025640A0010B5044600BF002C8C
:102B60000CD112F03DF925A340F2DE6229A132A07A
:102B7000FDF72EFD0020002000BF10BD00BF00BFEC
:102B8000606900280CD100BF12F02AF940F2DF631F
:102B90001AA233A13DA0FDF71BFD12F04BF900BFB7
:102BA00000BF00BF208B44280CD300BF12F018F9DF
:102BB0004FF4DC6311A23FA134A0FDF709FD12F030
:102BC00039F900BF00BFFF21228B501C20836069B0
:102BD000F030815406E00021228B501C2083606974
:102BE000F0308154208B442803D3207E00F0030072
:102BF00010B1208B4428EED300BFBEE74C5749509C
:102C00005C7372635C636F72655C646863702E638F
:102C100000000000646863705F6F7074696F6E5FBE
:102C2000747261696C65723A206468637020213D3A
:102C3000204E554C4C000000417373657274696FEF
:102C40006E2022257322206661696C6564206174A0
:102C5000206C696E6520256420696E2025730A004A
:102C6000646863705F6F7074696F6E5F74726169BE
:102C70006C65723A20646863702D3E6D73675F6F98
:102C8000757420213D204E554C4C0A0041737365EC
:102C90007274696F6E206661696C65643A20257391
:102CA0002C2066696C652025732C206C696E65206C
:102CB00025640A00646863705F6F7074696F6E5F8B
:102CC000747261696C65723A20646863702D3E6F3E
:102CD0007074696F6E735F6F75745F6C656E203CA6
:102CE00020444843505F4F5054494F4E535F4C452A
:102CF0004E0A00002DE9F34F89B089460020069066
:102D000005900A21FB48FDF75CFBB9F80A002C2866
:102D100004DA6FF001000BB0BDE8F08FD9F80410B1
:102D2000099881604FF0F00BB9F80800079000BFD8
:102D30004C460AE06089ABEB00001FFA80FB61891A
:102D40000798401A80B20790246814B160895845EA
:102D5000F0DD14B96FF00100DDE75F46DDF81CA07F
:102D60006068089048E20898C05D049000264FF023
:102D7000FF38B81C80B203906189781C814203DD62
:102D8000791C0898455C07E0206818B12068406805
:102D9000007800E0002005462E460498342878D0BC
:102DA0000BDC03282ED003DC80B1012872D113E0A4
:102DB00006283ED03328F9D174E035286BD0362868
:102DC0006AD03A2869D03B28F0D1D9E000200546E6
:102DD0000646781E87B2EDE000BF042D0ED011F03C
:102DE000FFFFC5A340F27B52C9A1CCA0FDF7F0FBC9
:102DF0000020002000BF6FF005008CE700BF4FF0FF
:102E00000608D7E0042600BFB5420EDA11F0E8FF4D
:102E1000B9A34FF4B062CBA1C0A0FDF7D9FB00204D
:102E2000002000BF6FF0050075E700BF4FF00708F6
:102E3000C0E000BFE91705EB91718910A5EB810196
:102E400071B111F0CDFFACA340F28552C2A1B3A085
:102E5000FDF7BEFB0020002000BF6FF005005AE721
:102E600000BF082D01DA284600E00820064600BF12
:102E7000B54213DA11F0B4FF9FA34FF4B162B1A1D0
:102E8000A6A0FDF7A5FB0020002000BF6FF0050005
:102E900041E71DE08AE031E046E05BE000BF4FF033
:102EA000080887E000BF042D0ED011F099FF92A30F
:102EB00040F28C5296A199A0FDF78AFB00200020D9
:102EC00000BF6FF0050026E700BF4FF0030871E078
:102ED00000BF012D0ED011F083FF87A34FF4B26223
:102EE000A1A18EA0FDF774FB0020002000BF6FF0B1
:102EF000050010E700BF4FF000085BE000BF012DA8
:102F00000ED011F06DFF7CA340F2945296A183A0E5
:102F1000FDF75EFB0020002000BF6FF00500FAE621
:102F200000BF4FF0010845E000BF042D0ED011F0A6
:102F300057FF71A34FF4B36275A178A0FDF748FB6A
:102F40000020002000BF6FF00500E4E600BF4FF056
:102F500002082FE000BF042D0ED011F041FF66A340
:102F600040F29C526AA16DA0FDF732FB00200020C8
:102F700000BF6FF00500CEE600BF4FF0040819E077
:102F800000BF042D0ED011F02BFF5BA34FF4B462F1
:102F90005FA162A0FDF71CFB0020002000BF6FF0C6
:102FA0000500B8E600BF4FF0050803E0002600BFAB
:102FB00000BF00BF00BFA81C384487B2002E7CDDD4
:102FC0000020029000BF00BFB8F1000F02DBB8F193
:102FD0000A0F0CDB00BF11F003FF40F2AD5346A215
:102FE00064A169A0FDF7F4FA11F024FF00BF00BF4F
:102FF000404810F8080000285ED1042E01DA30465F
:1030000000E00420019002A92046039B019A08F0E9
:10301000F5FF042E2ADD00BFF11706EB9171891030
:10302000A6EB810171B111F0DBFE33A340F2B35284
:103030005FA13AA0FDF7CCFA0020002000BF6FF09E
:10304000050068E600BF01202A4901F8080002983F
:1030500006F093FD5B4941F82800301FC6B2039883
:10306000001D80B2039008F10108ACE7042E04D1E2
:10307000029806F0ADFD029016E000BF012E0FD0C1
:1030800011F0AEFE1CA340F2BD524FA123A0FDF7EC
:103090009FFA0020002000BF6FF005003BE60CE027
:1030A00000BF9DF8080002900120124901F80800B5
:1030B0004449029841F8280000BF6089B84217DCF3
:1030C0006089381A87B26089AAEB00001FFA80FA7B
:1030D00057450EDABAF1000F0BD0246800BF34B99F
:1030E00000BF11F07DFE40F2C95303A276E07DE0FF
:1030F00081E07FE0C4A700204C5749505C737263A5
:103100005C636F72655C646863702E63000000002E
:103110006C656E203D3D20340000000041737365F6
:103120007274696F6E2022257322206661696C6556
:1031300064206174206C696E6520256420696E20AE
:1031400025730A006C656E203E3D206465636F64E4
:10315000655F6C656E0000006C656E202520342074
:103160003D3D2030000000006C656E203D3D20316B
:1031700000000000636865636B206465636F6465CD
:103180005F69647800000000417373657274696F51
:103190006E206661696C65643A2025732C2066692F
:1031A0006C652025732C206C696E652025640A00EF
:1031B0006465636F64655F6C656E20252034203D17
:1031C0003D2030009CA70020696E76616C69642008
:1031D0006465636F64655F6C656E000024A1AFF287
:1031E0005800FDF7F5F911F025FE00BF00BF60683B
:1031F000089000E008E000BF34B10898C05DFF28E7
:1032000002D05745FFF6AFAD00BF1E480078D0B1E1
:103210001D49086800211B4A1170012803D10121B2
:10322000069100BF0EE0022803D10121059100BFE5
:1032300008E0032804D101210591069100BF01E0B7
:1032400000BF00BF00BF069830B1002006904FF0CD
:103250006C0BEC2007906BE5059830B100200590D1
:103260004FF02C0B6C20079062E5002053E5000026
:103270006E657874207062756620776173206E7554
:103280006C6C0000C4A700209CA70020F8B5054680
:103290006C6A00BF00BF0421204600F09BFA0322A5
:1032A00021462846FEF72AFF0646EEB902223921BA
:1032B0002046FFF7F5FA298D2046FFF707FC204648
:1032C000FFF74AFC228BF03291B2206909F02EF907
:1032D00000954323124A216960680FF0BDFA204629
:1032E000FFF7E2F800BF01E000BF00BF607B401CB9
:1032F0006073607B0A2805DA607B4FF47A7110FBFB
:1033000001F001E042F2107087B207F2F3104FF4BF
:10331000FA7190FBF1F0608300BF00BF3046F8BD4A
:10332000586B01082DE9F84305466C6A00BF00BFE1
:103330000321204600F04EFA032221462846FEF7DC
:10334000DDFE06465EBB022239212046FFF7A8FAC1
:103350004FF410712046FFF7B9FB042232212046BA
:10336000FFF79EFA606A06F033FC8046414620462D
:10337000FFF738FB2046FFF7EFFB228BF03291B2CC
:10338000206909F0D3F800954323134A2169606846
:103390000FF062FA2046FFF787F800BF01E000BF98
:1033A00000BF607B401C6073607B0A2805DA607B8D
:1033B0004FF47A7110FB01F001E042F2107087B215
:1033C00007F2F3104FF4FA7190FBF1F0608300BF45
:1033D00000BF3046BDE8F883586B01082DE9F05F67
:1033E00081461546DDF828B04F467C6AD5F804A022
:1033F00000BF00BF00BF00BF00BF00BF00BFA0688C
:1034000060B100BF11F0ECFC40F2116345A24BA18A
:103410004FA0FDF7DDF811F00DFD00BF00BF68897A
:103420002C2802DA00BF00BF75E09AF800000228DD
:1034300002D000BF00BF6EE000260CE007F12B00B9
:10344000815D0AF11C00805D814202D000BF00BF97
:1034500061E0701CC6B297F82A00B042EEDCDAF8E0
:10346000040006F0B5FB2168884202D000BF00BF0F
:1034700051E029462046FFF73DFC10B100BF00BFD8
:1034800049E000BF00BF3C48407810B900BF00BF12
:1034900041E03A4890F80480B8F1050F18D100BF18
:1034A00000BF207B012806D13846FFF73FF9384698
:1034B000FEF7D8FD2EE0207B032805D0207B0428D2
:1034C00002D0207B052825D13846FEF7F7FC21E005
:1034D000B8F1060F11D1207B032808D0207B0128EA
:1034E00005D0207B042802D0207B052805D100BF11
:1034F00000BF3846FFF76EF90CE0B8F1020F09D1B2
:10350000207B062806D100BF00BF0020608338461C
:10351000FFF77EF900BF0020A060284608F012FEE9
:10352000BDE8F09F4C5749505C7372635C636F72E7
:10353000655C646863702E63000000007265706CE7
:1035400079207761736E2774206672656564000068
:10355000417373657274696F6E206661696C65642E
:103560003A2025732C2066696C652025732C206C0D
:10357000696E652025640A00C4A700209CA700206E
:10358000F8B505466C6A00BF00BF0021204600F078
:1035900021F9002020626062A062E062A0636063A3
:1035A0002063072221462846FEF7A8FD0646AEB94D
:1035B0002046FFF7D1FA228BF03291B2206908F051
:1035C000B5FF0095432304F12002216960680FF0E4
:1035D00043F92046FEF768FF00BF01E000BF00BFCF
:1035E000607B401C6073607B0A2805DA607B4FF4C7
:1035F0007A7110FB01F001E042F2107087B207F21D
:10360000F3104FF4FA7190FBF1F0608300BF00BF3C
:10361000284607F0ADFE0749284607F0C7FE0549D2
:10362000284607F0BAFE0349284607F049FF30460E
:10363000F8BD0000546B0108F8B505466C6A00BF80
:1036400000BF0521204600F0C5F803222146284688
:10365000FEF754FD0646F6B9022239212046FFF74F
:103660001FF9298D2046FFF731FA2046FFF774FA3B
:10367000228BF03291B2206908F058FF0095432365
:1036800004F12002216960680FF0E6F82046FEF799
:103690000BFF00BF01E000BF00BF607B401C6073F8
:1036A000607B0A2805DA607B4FF4FA6110FB01F0B9
:1036B00001E044F6206087B207F2F3104FF4FA718C
:1036C00090FBF1F0608300BF00BF3046F8BD000002
:1036D0002DE9F84305466C6A00BF00BF0121204672
:1036E00000F078F8032221462846FEF707FD06463B
:1036F000002E4CD1022239212046FFF7D1F8298D26
:103700002046FFF7E3F9042232212046FFF7C8F8EC
:10371000606A06F05DFA804641462046FFF762F98E
:10372000042236212046FFF7BBF8206A06F050FA43
:10373000804641462046FFF755F9042237212046AE
:10374000FFF7AEF801212046FFF7F2F803212046EB
:10375000FFF7EEF81C212046FFF7EAF80621204685
:10376000FFF7E6F82046FFF7F7F9228BF03291B227
:10377000206908F0DBFE00954323154A2169606843
:103780000FF06AF82046FEF78FFE00BF01E000BF91
:1037900000BF607B401C6073607B062803DA617B9E
:1037A0000120884000E03C2000EB4001C1EBC0104C
:1037B0004FF6FF7101EAC00707F2F3104FF4FA71F8
:1037C00090FBF1F0608300BF00BF3046BDE8F88396
:1037D000586B0108027B8A4203D0017300224273B6
:1037E0004283704770B50546002600BF75B911F0D9
:1037F000F7FA4DA340F27A2251A155A0FCF7E8FE5A
:103800000020002000BF6FF00D0070BD00BF6C6A8B
:1038100000BF00BF15F8310F20F00800287015F820
:10382000310900F0200020B900BF00BF6FF00D008B
:10383000EBE7288DB0F5107F04DA00BF00BF4FF032
:10384000FF30E2E774B900BF00BF3C2006F018FD6E
:10385000044624B900BF00BF4FF0FF30D5E76C62CB
:1038600000BF28E000BF00BF606810B160680EF0C4
:10387000A5FF00BF206960B100BF11F0B1FA40F2AE
:103880009E2329A23CA142A0FCF7A2FE11F0D2FA8D
:1038900000BF00BF00BFA06860B100BF11F0A0FA78
:1038A00040F29F2320A244A139A0FCF791FE11F021
:1038B000C1FA00BF00BF3C212046FCF782FD0EF09C
:1038C0003FFF6060606820B900BF00BF4FF0FF306D
:1038D0009BE76068007A40F020006168087244222B
:1038E0003A4960680EF0F6FC4322384960680EF0F1
:1038F00071FD2A46364960680EF05CFF00BF00BFCC
:103900002846FEF77DFE06462EB1284600F062F8F6
:103910004FF0FF3079E795F8310040F0080085F866
:103920003100304671E700004C5749505C737263B8
:103930005C636F72655C646863702E6300000000F6
:103940006E6574696620213D204E554C4C00000088
:10395000417373657274696F6E202225732220662D
:1039600061696C6564206174206C696E65202564F2
:1039700020696E2025730A007062756620705F6F83
:103980007574207761736E277420667265656400B4
:10399000417373657274696F6E206661696C6564EA
:1039A0003A2025732C2066696C652025732C206CC9
:1039B000696E652025640A007265706C79207761F4
:1039C000736E27742066726565640000546B01088D
:1039D000DD33000870B5054600BF65B911F000FA87
:1039E0001AA340F2C7421FA125A0FCF7F1FD002059
:1039F000002000BF70BD00BF6C6A95F8310020F058
:103A0000080085F8310000BF00BF002C1BD06068A3
:103A100020B160680EF0D2FE0020606000BFA06898
:103A200060B100BF11F0DCF940F2DA4307A21EA139
:103A300022A0FCF7CDFD11F0FDF900BF00BF002171
:103A40002046FFF7C7FE00BFD4E700004C5749509F
:103A50005C7372635C636F72655C646863702E6331
:103A600000000000646863705F73746F703A206ECA
:103A70006574696620213D204E554C4C00000000C5
:103A8000417373657274696F6E20222573222066FC
:103A900061696C6564206174206C696E65202564C1
:103AA00020696E2025730A007265706C7920776139
:103AB000736E2774206672656564000041737365D8
:103AC0007274696F6E206661696C65643A20257353
:103AD0002C2066696C652025732C206C696E65202E
:103AE00025640A0070B505466C6A00BF00BF207BE4
:103AF000012805D0207B0A2802D0207B052804D18C
:103B000000BF00BF2846FFF797FD70BD70B50546A2
:103B10006C6A00BF00BF207B012805D0207B0A28EB
:103B200002D0207B052804D100BF00BF2846FFF744
:103B3000ADFB70BD70B505466C6A00BF00BF207B51
:103B40000C2802D0207B062805D100BF00BF2846E4
:103B5000FEF756FD4FE0207B012811D100BF00BFCA
:103B6000607B052803DC2846FFF7B2FD43E000BF79
:103B700000BF2846FFF704FD2846FEF741FD3AE066
:103B8000207B08280CD100BF00BF607B012803DC2C
:103B90002846FEF767FA2EE02846FEF78FF92AE05E
:103BA000207B052805D100BF00BF2846FFF744FD54
:103BB00021E0207B042811D100BF00BF607B0828D2
:103BC00003DC2846FFF762FB15E000BF00BF284674
:103BD000FFF7D6FC2846FEF713FD0CE0207B0328F8
:103BE00009D1607B022803DA2846FFF79BFB02E03D
:103BF0002846FEF705FD70BD10B5044600BF00BFA6
:103C0000FEF754FA002203494EF660200AF09EF8AF
:103C100010BD0000F93B000810B5044600BF00BF0E
:103C2000FEF760FD002203494FF4FA700AF08EF8A7
:103C300010BD0000193C000810B504461CB911F075
:103C4000E3FB002010BD0120FCE703467BB90129FE
:103C500002D10802106008E0022902D1C8021080D7
:103C600003E0032901D101201060002070470420E7
:103C7000FCE72DE9FC4104460D4616461F465CB99B
:103C8000380331030A460023CDE90050184607F0F7
:103C900013F90020BDE8FC810420FBE7014609B9C7
:103CA000002070470120FCE72DE9FC4104460D4649
:103CB00016461F465CB9380331030A460023CDE996
:103CC0000050184607F00FF90020BDE8FC810420E1
:103CD000FBE7026861F300020260704700210160A7
:103CE000416001814181017341738173C17301742A
:103CF00041747047B0F1805F04D920F07041034AED
:103D0000116001E00249086070470000046602404B
:103D10000464024001460022B1F1805F02D90648E6
:103D2000026801E00548026802EA010008B10120CA
:103D300070470020FCE7000000660240006402407B
:103D400002684BF6EF731A40026002680B891A434F
:103D500002604B7C026863F30D320260CB7B026829
:103D600063F38B2202608B7B026863F3092202609B
:103D70004B7B026863F3C71202600B7B026863F33C
:103D8000861202600B7C026863F3451202604B8965
:103D9000426863F30F0242600A6882604A68C26048
:103DA000704700000021026822F001020260002238
:103DB000026042608260C260014640F2FF620A40D7
:103DC000B2F5C16F0DD2CAB2083A1423B2FBF3F2B6
:103DD00093000F229A400D4B1B681A430B4B1A603D
:103DE00012E040F2FF620A40B2F5D16F0CD2CAB2C3
:103DF000083A1423B2FBF3F293000F229A40044BCB
:103E00001B681A43024B1A607047000004640240AA
:103E100004660240D0F8002161F30002C0F80021DE
:103E20007047026861F306020260704710B5002413
:103E300004E0204600F006F8601CC4B2042CF8DB55
:103E400010BD000070B50646C6EBC60000EB800052
:103E5000484901EBC00400BF042E0CDB00BF10F08A
:103E6000BFFF40F2812344A248A14FA0FCF7B0FB62
:103E700010F0E0FF00BF00BF2078002866D00128C6
:103E800004D0022815D0032861D154E0022020700C
:103E9000002060700120A0700020E0706078324641
:103EA00004F10C0100F004FB05460DB100BF00BF9A
:103EB0005DE0A078401EC0B2A07000283AD1E07842
:103EC000401CC0B2E070042828D16078401C022851
:103ED00012DA6078401C3E4901EB800060B16078E6
:103EE000401C51F8200038B16078401C60700120FF
:103EF000A0700020E0703AE000BF00BFD4F81001CD
:103F000038B1002104F10C00D4F81031D4F8142198
:103F1000984700202070C4F8100128E0E078A070D5
:103F20006078324604F10C0100F0C2FA05460DB18A
:103F300000BF00BF1BE0A068401EA06028B900BF02
:103F400000BF00202070C4F8100110E00FE000BF97
:103F500000BF10F045FF40F2C52307A21DA112A02B
:103F6000FCF736FB10F066FF00BF00BF00BF00BFCC
:103F700070BD0000D0A700204C5749505C7372639D
:103F80005C636F72655C646E732E63006172726154
:103F90007920696E646578206F7574206F66206281
:103FA0006F756E6473000000417373657274696F9E
:103FB0006E206661696C65643A2025732C20666901
:103FC0006C652025732C206C696E652025640A00C1
:103FD000C8000020756E6B6E6F776E20646E735F25
:103FE0007461626C6520656E74727920737461749B
:103FF000653A000010B5024600BF11F8013B03F01E
:10400000C000C02800D110E009E010780C78A04270
:1040100001D0012010BD491C521C581EC3B2002BF8
:10402000F3DC521C08780028E7D100BF0020F1E73C
:104030002DE9F05F07468846914600240020064699
:10404000834600251BE0C5EBC50000EB800031492D
:1040500001EBC004207800B913E0207803280CD1CC
:1040600020792D490978081A584506DD20792A4912
:104070000978081A00F0FF0B2E46681CC5B2042D03
:10408000E1DB00BF042D18D1042E08DAC6EBC60010
:1040900000EB80001F4911F83000032805D000BF55
:1040A00000BF4FF0FF30BDE8F09F3546C5EBC500BF
:1040B00000EB8000174901EBC00400BF00BF0120E6
:1040C000207015480078207113480078401C124970
:1040D0000870C4F81081C4F814913846FCF77CF9D4
:1040E000FF2803D23846FCF777F900E0FF2082462C
:1040F0005246394604F10C00FCF74AF9002104F15C
:104100000C0000F80A102846FFF79CFE6FF0040030
:10411000C9E70000D0A70020C40000202DE9F0412D
:1041200005460C4617468CB110482168016000BF57
:1041300010F056FE204605F08FFB06463246294613
:104140000BA0FCF745FA10F075FE09E000BF10F077
:1041500047FE29460AA0FCF73BFA10F06BFE00BFB1
:1041600001200E490860BDE8F081000060040020D5
:10417000444E533A202573202D3E2025730D0A000E
:10418000444E533A202573207265736F6C76652018
:104190006661696C65640D0A000000005C04002023
:1041A0002DE9F04106460D46174698461648006828
:1041B00040B13DB136B1307820B13046FCF70CF952
:1041C000FF2803D96FF00D00BDE8F0810FA1304644
:1041D000FCF709F918B9104828600020F4E73046C8
:1041E00005F04AFA0446601C18B9304600F052F84F
:1041F0000446601C10B12C600020E5E742463946B9
:104200003046FFF715FFDFE7C00000206C6F6361E9
:104210006C686F73740000007F00000108B51448DB
:1042200020F003001349086013A005F025FA009060
:1042300000BF00BF14480068C0B90EF081FA1249EF
:1042400008600846006888B100BF00BF00220F491F
:104250000D4800680EF03EF800220D490A4800683B
:104260000EF0A8FA6946002000F01AFA08BD000016
:1042700033AC0020D00000203230382E36372E32BA
:1042800032322E3232320000C0000020546B01085E
:104290002943000870B50546002427E0C4EBC4009C
:1042A00000EB8000144911F8300003281CD1C4EB46
:1042B000C40000EB80000A4602EBC00000F10C01D4
:1042C0002846FCF790F878B900BF00BF00BF00BFD8
:1042D00000BF00BFC4EBC40000EB8000064901EB47
:1042E000C000D0F80C0170BD601CC4B2042CD5DB3A
:1042F0004FF0FF30F7E70000D0A70020014600BFD5
:1043000011F8012B02F0C000C02800D108E002E043
:10431000491C501EC2B2002AFADC08780028EFD1EE
:1043200000BF481C704700002DE9FE4F1546DDF820
:1043300030B02889B0F5007F02DD00BF00BFACE0DF
:1043400028891A2802DA00BF00BFA6E02A890023C4
:1043500054480168284607F051FE2989884279D1DE
:1043600050480668308805F015FC8046B8F1040F07
:1043700070DAC8EBC80000EB80004B4901EBC004C9
:104380002078022878D103202070F07800F00F0008
:104390006071B08805F0FEFB8246F08805F0FAFBFC
:1043A0008146B07800F0800020B1607910B9BAF190
:1043B000010F02D000BF00BF5FE03A4801680C3136
:1043C00004F10C00FFF716FE10B100BF00BF54E06F
:1043D000344800680C30FFF791FF071D46E038466F
:1043E000FFF78CFF0746386800907868019038899D
:1043F000ADF80800BDF80000B0F5807F2BD1BDF806
:104400000200B0F5807F26D1BDF80800B0F5806FBE
:1044100021D1019805F0DCFBA0602449A068884206
:1044200001D90846A060D7F80A10C4F80C1100BFE3
:1044300000BF00BF00BF00BF00BFD4F8100140B1F3
:1044400004F5867104F10C00D4F81031D4F814216D
:10445000984722E010E0BDF8080005F09BFB07F14B
:104460000A014718A9F101001FFA80F9B9F1000FFC
:10447000B5DC00BF00BF00E00FE0D4F8100138B198
:10448000002104F10C00D4F81031D4F8142198471D
:1044900000202070C4F8100100BF284607F052FE2B
:1044A000BDE8FE8FD0000020D0A70020803A090090
:1044B0002DE9F74F82B00746894600BF00BF00BF15
:1044C000022F0CDB00BF10F08BFC4FF40F734DA2DA
:1044D00051A157A0FCF77CF810F0ACFC00BF00BF66
:1044E00000BF5D4800EB870018B15B4850F827001B
:1044F00060B900BF10F074FC40F23D2341A257A107
:104500004BA0FCF765F810F095FC00BF00BF00223F
:104510004FF48871104607F0B9F80546002D6AD0AF
:1045200000BF286860B100BF10F05AFC40F243237E
:1045300034A253A13EA0FCF74BF810F07BFC00BF67
:1045400000BFD5F804800020C8F80000C8F80400B7
:10455000C8F80800049805F01DFBA8F80000012029
:1045600088F802000002A8F8040008F10C044E4686
:10457000761E00BF761CA346641C0020009007E056
:1045800030782070641C0098401CC0B20090761CEB
:1045900030782E2802D030780028F1D100988BF89E
:1045A000000030780028E5D104F8010B4FF480704A
:1045B000ADF80400ADF8060001982060AA88201D1F
:1045C000801A81B2284607F0B1FF234800EB87012B
:1045D0003522324800680DF0FDFE1F4800EB8702CF
:1045E000352329462D4800680EF008F982462846F2
:1045F00007F0A8FD01E04FF0FF3A504605B0BDE8D6
:10460000F08F00004C5749505C7372635C636F72AB
:10461000655C646E732E6300646E732073657276DE
:104620006572206F7574206F662061727261790007
:10463000417373657274696F6E206661696C65643D
:104640003A2025732C2066696C652025732C206C1C
:10465000696E652025640A00C8000020646E73201E
:1046600073657276657220686173206E6F204950A1
:1046700020616464726573732073657400000000C8
:1046800070627566206D75737420626520696E2096
:104690006F6E65207069656365000000C0000020D2
:1046A00002280ADA054A12683AB131B129B10A681A
:1046B0001AB1034A0B6842F820307047C00000204E
:1046C000C800002070B5064600BF10F089FB34A07A
:1046D000FBF77EFF10F0AEFB00BF03E04FF4FA7073
:1046E00010F08EFC364840680028F7D000BF10F06C
:1046F00077FB3348001D05F0AFF80546294631A089
:10470000FBF766FF10F096FB00BF00203A490860F7
:1047100000233A4A3A493BA0FFF742FD04466CB9F0
:1047200000BF10F05DFB364805F096F805462946B7
:1047300038A0FBF74DFF10F07DFB14E0601D40B981
:1047400000BF10F04DFB3CA0FBF742FF10F072FBE6
:1047500009E000BF10F044FB214640A0FBF738FF02
:1047600010F068FB00BF002503E0642010F048FC57
:104770006D1CB5F5FA7F03DA1F4800680028F4D0F5
:104780001D48006840B900BF10F02AFB37A0FBF7B6
:104790001FFF10F04FFB00BF002010F05FFC70BD4A
:1047A000444E53207461736B3A2077616974696E6B
:1047B0006720666F722049502E2E2E0D0A000000D1
:1047C00048E00120444E53207461736B3A20676FB8
:1047D000742049502025732C207265736F6C7669A4
:1047E0006E67207777772E62616964752E636F6DCF
:1047F0002E2E2E0D0A0000005C0400201D41000832
:10480000600400207777772E62616964752E636F8C
:104810006D000000444E533A207777772E6261692D
:1048200064752E636F6D202D3E20257320286361F3
:1048300063686564290D0A00444E533A207265711D
:1048400075657374207175657565642C2077616971
:1048500074696E672E2E2E0D0A000000444E533AE6
:10486000206572726F722025640D0A00444E533A1F
:104870002074696D656F75740D0A000010B50446EB
:1048800000BF00BF00F00AF8002203494FF47A701D
:1048900009F05CFA10BD00007D48000810B504481E
:1048A000006818B100BF00BFFFF7C0FA10BD0000DC
:1048B000C000002010B5002406480078012806D169
:1048C00005480068804700200249087000E006247F
:1048D000204610BD82030020880300202DE9F05FF0
:1048E00006460D464FF0000B2888052848D1707801
:1048F0004FEA0029B07840EA090909F101001FFADE
:1049000080F9F078040230790443012C35DBB4F5EA
:10491000FA6F32DA374600202880012007F8010BB1
:104920002888401C288004F0070040B12046E11789
:1049300004EB5171C910491C01F0FF0805E0204645
:10494000E11704EB5171C1F3C70807F8018B288800
:10495000401C2880002322464946384600F03CFC93
:104960008246BAF1000F04D0504608F0CFFC8346CF
:1049700008E028884044288004E04FF0030B01E061
:104980004FF0030B5846BDE8F09F2DE9F05F064657
:104990000D464FF0000B2888052847D170784FEA64
:1049A0000029B07840EA090909F101001FFA80F9ED
:1049B000F078040230790443012C34DBB4F5FA6F4B
:1049C00031DA374600202880022007F8010B2888BA
:1049D000401C288004F0070040B12046E11704EB9A
:1049E0005171C910491C01F0FF0805E02046E1178C
:1049F00004EB5171C1F3C70807F8018B2888401CEC
:104A0000288022464946384600F0B2FC8246BAF178
:104A1000000F04D0504608F079FC834608E028884F
:104A20004044288004E04FF0030B01E04FF0030BFB
:104A30005846BDE8F09F2DE9F04705460C464FF07B
:104A4000000A2088052838D168784FEA0028A8781D
:104A500040EA080808F101001FFA80F8E878060229
:104A600028790643012E25DB7D2E23DC2F460020EE
:104A70002080032007F8010B2088401C208070064E
:104A8000000E07F8010B2088401C208000233246CE
:104A90004146384600F0C0FC8146B9F1000F04D011
:104AA000484608F033FC824609E0208800EB4600C7
:104AB000208004E04FF0030A01E04FF0030A504663
:104AC000BDE8F0872DE9F04705460C464FF0000A97
:104AD0002088052837D168784FEA0028A87840EA6E
:104AE000080808F101001FFA80F8E8780602287922
:104AF0000643012E24DB7D2E22DA2F460020208063
:104B0000042007F8010B2088401C20807006000E4E
:104B100007F8010B2088401C208032464146384669
:104B200000F0AEFC8146B9F1000F04D0484608F011
:104B3000EDFB824609E0208800EB4600208004E07F
:104B40004FF0030A01E04FF0030A5046BDE8F0873A
:104B50002DE9FC5F04460D460020009028880A28B5
:104B60005DDB60784FEA002AA07840EA0A0A0AF181
:104B700001001FFA80FAE078060220790643607986
:104B80004FEA002BA07940EA0B0B0BF101001FFA52
:104B900080FBE0790702207A0743607A0190012EBA
:104BA0003BDB7D2E39DC012F37DB792F35DC7900BB
:104BB0000198814231D101233A46594604F10A0055
:104BC00000F02AFC8146B9F1000F1ED1A04600205A
:104BD0002880172008F8010B2888401C28807006C0
:104BE000000E08F8010B2888401C2880002332465C
:104BF0005146404600F010FC8146B9F1000F04D147
:104C00002888022101FB06002880B9F1000F06D098
:104C1000484608F07BFB009001E0032000900098DC
:104C2000BDE8FC9F70B505460C460648028806495B
:104C3000681CFBF7ADFB03480088401C2080002067
:104C400070BD0000440400208A0002202DE9F843D2
:104C500004460F464FF000083888052829D16078AF
:104C60000502A0780543681C85B22079F0B9E07888
:104C7000FF2801D0E078C8B900208DF80100E07865
:104C8000FF2803D101208DF8000002E000208DF8FC
:104C9000000001231A462946684600F09DFA0646A0
:104CA0004EB1304608F032FB804604E04FF0030876
:104CB00001E04FF003084046BDE8F8832DE9F041DC
:104CC00004460F464FF000083888052812D1607856
:104CD0000502A0780543681C85B201231A462946BF
:104CE000E01C00F099FB064636B1304608F00EFB9A
:104CF000804601E04FF003084046BDE8F0812DE911
:104D0000F05F05460E464FF0000B3088052839DD70
:104D100068780702A8780743781C87B2E87804020D
:104D20002879044395F805A004F0070040B1204617
:104D3000E11704EB5171C910491C01F0FF0805E0AF
:104D40002046E11704EB5171C1F3C708012C16DBB3
:104D5000B4F5F66F13DCD04511D101232246394654
:104D6000A81D00F039FA8146B9F1000F04D0484679
:104D700008F0CCFA834607E00520308004E04FF0CD
:104D8000030B01E04FF0030B5846BDE8F09F2DE9FF
:104D9000F04704460E464FF0000A308806282DDB07
:104DA00060780702A0780743781C87B2E078050294
:104DB0002079054394F80580012D1CDB782D1ADC41
:104DC0006806000E404516D13078801FC0B24045BD
:104DD00011D101232A463946A01D00F01DFB814652
:104DE000B9F1000F04D0484608F090FA824607E077
:104DF0000520308004E04FF0030A01E04FF0030A81
:104E00005046BDE8F08700002DE9F84F05460C46F6
:104E100016461F46DDE90A9A4FF000081CB1012C26
:104E200001DBF72C02DD4FF0020837E01D4804706B
:104E300015BB1D481D4908601D481E4908601E48D5
:104E40001E4908601E481F49086000201E4908606E
:104E50001E481F4908601F481F4908601F48204915
:104E600008604B463A4631460E48CDF800A000781F
:104E700000F0D8F8804602E04FF0020800BF00BF03
:104E8000B8F1000F0AD110F097FB10B94FF00308EA
:104E900004E0144805700120134908704046BDE83D
:104EA000F88F000080030020AD5100088803002027
:104EB000C95100088C0300202551000884030020FC
:104EC0007D50000890030020940300200157010842
:104ED00098030020655801089C030020DD57010855
:104EE000A0030020810300208203002038B50025A4
:104EF0004148007808B1062038BD684610F04AFBEA
:104F0000012876D19DF8000030B1012805D0022893
:104F100018D003286CD16AE06AE0384A3849394829
:104F2000394B1B68984705465DB9364800783749C4
:104F30000978884202D03348007810B9022010F076
:104F400043FB55E02E480068007831490870012085
:104F500030490870002417E02F4810F8340000B9D9
:104F600014E02D4810F834002949097888420AD104
:104F7000294800EBC4002149426821480068904755
:104F80002449087002E0641C102CE5DB00BF1D48BA
:104F9000007850B31F480078C8B100201749088036
:104FA0001B48007840F08001144802880088401CAB
:104FB000124B18801248006881541648027818462F
:104FC00001880088401C18800D480068425413482E
:104FD000007800B900BF09480288094801680B48F9
:104FE00000780F4B1B689847054601E001E000BFC1
:104FF00000BF284680E70000820300203204002022
:105000002C040020300400209003002080030020A6
:105010003104002034040020AC0300208103002070
:10502000840300202DE9F84F82460E4614461F46A1
:10503000DDF828804FF000093B4608222146304623
:10504000CDF8008010F0F2FA012802D04FF00309E9
:105050000FE0B4F5964F01D9232503E0600006491F
:10506000B1FBF0F5A8B210F02FFB012801D04FF0F2
:1050700003094846BDE8F88FA07F17002DE9F041ED
:1050800004460D4616460027B84612480088B0F57B
:10509000807F00DC04E09D220FA117A0FBF7A8FA97
:1050A0000C480088042810DB0A4801881C480DF0D1
:1050B000A9FC50B91A480078207006480088C01E24
:1050C00030801748401C286000E005273846BDE8BE
:1050D000F081000042040020467265654D6F6462F5
:1050E00075735C6D6F646275735C7274755C6D6210
:1050F0007274752E63000000757352637642756694
:10510000666572506F73203C3D204D425F5345529F
:105110005F5044555F53495A455F4D415800000068
:105120008AFF01202DE9F04105460E4617464FF053
:10513000000819480078012829D1701E1749086015
:105140000120174908801548006805700846008846
:105150003844088008460188104800680DF052FC69
:1051600004460F490888411C0D4B19800D490C5409
:10517000221219460888411C19800A490A54012044
:1051800009490870012100200FF07AFD01E04FF07D
:1051900005084046BDE8F081390400203C040020A9
:1051A000400400208AFF01203804002010B50020B0
:1051B00004490870002101200FF062FD0FF0CAFDC4
:1051C00010BD00003904002010B5002108460FF082
:1051D00057FD0FF0A9FD10BD2DE9F04705460E461D
:1051E00014461F463019802802DD0120BDE8F087F3
:1051F000F7BB04F107084FEAE87008EB5070C110E4
:105200002846FBF7DEF8002040E031188AB24FEA6A
:10521000E27C02EB5C7C4FEAEC0CDFF8508118F882
:105220000CC04FEAE27802EB58784FEAE808A2EBAC
:10523000C8094FF0010808FA09F80CEA080CBCF19B
:10524000000F21D04FEAE07C00EB5C7C4FEAEC0CD5
:1052500015F80CC003464FEAE07800EB58784FEAA7
:10526000E808A0EBC8094FF0010808FA09F800E0C7
:105270000FE04CEA080C01464FEAE07800EB587862
:105280004FEAE80805F808C0411C88B2A042BCDB20
:1052900069E0002165E0721890B24FEAE17C01EB11
:1052A0005C7C4FEAEC0C15F80CC04FEAE17801EB9E
:1052B00058784FEAE808A1EBC8094FF0010808FA4E
:1052C00009F80CEA080CBCF1000F24D04FEAE07C8E
:1052D00000EB5C7C4FEAEC0CDFF8908018F80CC017
:1052E00003464FEAE07800EB58784FEAE808A0EB75
:1052F000C8094FF0010808FA09F84CEA080C024600
:105300004FEAE07800EB58784FEAE808DFF85C9065
:1053100009F808C023E04FEAE07C00EB5C7C4FEA30
:10532000EC0CDFF8488018F80CC003464FEAE07830
:1053300000EB58784FEAE808A0EBC8094FF00108E5
:1053400008FA09F82CEA080C02464FEAE07800EB6C
:1053500058784FEAE808DFF8149009F808C0481CAC
:1053600081B2A14297DB002040E7000068FB0120EA
:105370002DE9F04105460E4614463019802802DD1D
:105380000120BDE8F081E71DF81707EB5070C11050
:105390002846FBF716F8002037E031188AB2D717F5
:1053A00002EB5777FF10DFF86CC01CF807704FEA6C
:1053B000E27C02EB5C7C4FEAEC0CA2EBCC084FF0F9
:1053C000010C0CFA08FC07EA0C07E7B1C71700EB61
:1053D0005777FF10EF5D03464FEAE07C00EB5C7C03
:1053E0004FEAEC0CA0EBCC084FF0010C0CFA08FCD7
:1053F00047EA0C0701464FEAE07C00EB5C7C4FEA91
:10540000EC0C05F80C70411C88B2A042C5DB0020F2
:10541000B7E7000079FB0120F0B504468818B0F525
:10542000807F01DD0120F0BDA3B900200FE00D1841
:10543000124E36F815502D1204F810500D1816F8AB
:105440001550012606EB4006A555451CA8B2904212
:10545000EDDB11E000200DE0012505EB4005655D69
:1054600014F8106045EA06250E18044F27F8165068
:10547000451CA8B29042EFDB0020D4E78AFB012054
:1054800030B503468818B0F5807F01DD012030BDBE
:1054900000200FE00C18094D35F81440241203F8D1
:1054A00010400C1815F81440012505EB40055C551B
:1054B000441CA0B29042EDDB0020E8E78AFD012009
:1054C0000349096860F3C711014A11607047000081
:1054D000008002400349096860F34611014A1160E7
:1054E00070470000008002400349096860F31041E2
:1054F000014A116070470000008002401FB500247F
:10550000002000900190029003902548006964F308
:105510008500234908616846FCF74CFA2149019847
:10552000884205D320490198884201D2022430E004
:105530001D490198884205D31C490198884201D22F
:10554000032426E019490198884205D31849019897
:10555000884201D200241CE015490198884205D3F5
:1055600014490198884201D2012412E0114901989E
:10557000884205D310490198884201D2042408E0EA
:105580000D490198884204D30C490198884200D8FB
:1055900005240348006964F38500014908611FBDC3
:1055A00000800240002D3101C00E160200879303D7
:1055B00000E1F50580D1F00880B2E60E00882A11DE
:1055C00000B50346587800F02FF89878FFF782FF6F
:1055D000D878FFF775FF187900F084FC587900F04F
:1055E0005FFAD87900F0E0FA187A00F02BFC987A8C
:1055F000FFF77AFFD87A00F049FA187B00F05AFAE0
:10560000587B00F019FE00BD00210170C17081704F
:105610008172417081714172C17241710173C171B6
:1056200001720171417370470349096860F3041105
:10563000014A1160704700000080024008B5084927
:105640000968C9084FF47A72B1FBF2F14143009145
:1056500000BF00BF00994A1E00920029F9D108BD81
:105660000000002002783B49096862F35961394A19
:10567000116042793749096862F38601354A116041
:1056800082783449096862F35641324A11600279DE
:105690003049096862F30D212E4A1160C2782D4904
:1056A000096862F310412B4A116042782949096860
:1056B00062F3D751274A116082792649096862F35B
:1056C0004101244A1160C2792249096862F38F318D
:1056D000204A1160027A1F49896962F39A611D4A62
:1056E0009161427A1B49896962F35961194A916152
:1056F000827A1849896962F31861164A9161C27AFF
:105700001449896962F35551124A9161027B11492A
:10571000896962F390310F4A9161427B0D49896931
:1057200062F3C7110B4A9161827B0A49896962F36E
:105730008611084A9161C27B0649896962F3C401F6
:10574000044A9161027C0349896962F38201014A3A
:10575000916170470090024070B5054614460020E4
:1057600015B1012D45D120E0234E3160002015E018
:1057700001EB40124FF480161660C0EB401606EBAA
:10578000801604EB061696605E1E864204D901EB75
:1057900040162036D66000E0D160401C9842E7D326
:1057A000164E3669154E316123E0154E31600020EA
:1057B00018E001EB40124FF00046166044F2F0563C
:1057C0005660C0EB401606EB801604EB061696609A
:1057D0005E1E864204D901EB40162036D66000E0FA
:1057E000D160401C9842E4D3044EF668034EF16049
:1057F00000BF00BF70BD0000040000200090024008
:1058000008000020014948617047000000900240F4
:1058100001460020024A52690A4002B10120704745
:10582000009002400F2872D2DFE800F0080F161D2A
:10583000242B323940474E555C636A00354AD269A1
:1058400061F30002334BDA6161E0324AD26961F3FD
:105850004102304BDA615AE02E4AD26961F382028A
:105860002C4BDA6153E02B4AD26961F3C302294B16
:10587000DA614CE0274AD26961F30412254BDA6100
:1058800045E0244AD26961F34512224BDA613EE0D9
:10589000204AD26961F386121E4BDA6137E01D4A55
:1058A000D26961F3C7121B4BDA6130E0194AD26941
:1058B00061F30822174BDA6129E0164AD26961F3D5
:1058C0004922144BDA6122E0124AD26961F38A223A
:1058D000104BDA611BE00F4AD26961F34D320D4B78
:1058E000DA6114E00B4AD26961F38E32094BDA6156
:1058F0000DE0084AD26961F3CF32064BDA6106E067
:10590000044AD26961F31042024BDA6100BF00BF62
:10591000704700000090024038B505460C46002054
:1059200000900A2D55D2DFE805F0050C131A212846
:10593000383F464D2848806964F341002649886114
:1059400047E02548806964F382002349886140E08C
:105950002148806964F386101F49886139E01E4838
:10596000806964F3C7101C49886132E01A48806975
:1059700064F34D30184988612BE01748806964F35F
:105980001450154988610846806900900120FFF78E
:1059900055FE1149009888611BE00F48806964F347
:1059A00055500D49886114E00B48806964F3186014
:1059B000094988610DE00848806964F35960064927
:1059C000886106E00448806964F39A60024988614E
:1059D00000BF00BF38BD00000090024000210170F0
:1059E000817141710172C17041738172817301745F
:1059F000C1714172012181700021C173C172012105
:105A00000171002101734170704721B1426822F099
:105A10000042426003E0426842F000424260704748
:105A20000448006800F0010008B101207047002020
:105A3000FCE70000009002400348006820F00100ED
:105A4000401C014908607047009002400146086808
:105A5000C0F30D40704700000349096860F3CB2193
:105A6000014A116070470000008002400349096844
:105A700060F38E31014A11607047000000800240DF
:105A800001480068806870470400002003490968E5
:105A900060F35341014A11607047000000800240EA
:105AA0000349096860F38A21014A116070470000C8
:105AB000008002400349096860F39651014A116071
:105AC000704700000080024000B585B001212648E3
:105AD000FCF76AF8012007F06DFD0320FBF72CFFAF
