:020000040800F2
:1000000078190220E5020008230500081B050008F6
:100010001F05000803050008F9050008000000009E
:1000200000000000000000000000000025020008A1
:1000300007050008000000008102000835050008DF
:10004000FF020008FF020008FF020008FF0200088C
:10005000FF020008FF020008FF020008FF0200087C
:10006000FF020008FF020008FF020008FF0200086C
:10007000FF020008FF020008FF020008FF0200085C
:10008000FF020008FF020008FF020008FF0200084C
:10009000FF020008FF020008FF020008FF0200083C
:1000A000FF020008FF020008FF020008FF0200082C
:1000B000FF020008FF020008FF020008FF0200081C
:1000C000FF020008FF020008FF020008FF0200080C
:1000D000FF020008FF020008FF020008FF020008FC
:1000E000FF020008FF020008FF020008FF020008EC
:1000F000FF020008FF020008FF020008FF020008DC
:10010000FF020008FF020008FF020008FF020008CB
:10011000FF020008FF020008FF020008FF020008BB
:10012000FF020008FF020008FF020008FF020008AB
:10013000FF02000809050008FF020008FF0200088E
:10014000FF020008FF020008FF020008FF0200088B
:10015000FF020008FF02000800000000FF02000884
:10016000FF020008FF02000800000000000000007D
:10017000FF02000825050008FF020008000000003B
:1001800000000000FF020008FF020008FF02000854
:10019000FF02000800000000000000000000000056
:1001A000000000000000000000000000FF02000846
:1001B000FF02000800000000FF020008000000002D
:1001C000000000000000000000000000000000002F
:1001D0000000000000000000FF020008FF0200080D
:1001E000FF020008FF020008FF020008FF020008EB
:1001F000FF020008FF020008FF020008FF020008DB
:10020000FF020008FF020008FF020008DFF810D01C
:1002100000F03AF900480047E18F0008AFF3008092
:10022000781902202C4B19680868B0E8F04F80F369
:100230000988BFF36F8F4FF0000080F3118870477B
:100240000000000008480068006880F308884FF04C
:10025000000080F3148862B661B6BFF34F8FBFF31E
:100260006F8F00DF00BF00BF08ED00E0DFF80C007B
:10027000016841F470010160704700BF88ED00E043
:10028000EFF30980BFF36F8F134B1A681EF0100F46
:1002900008BF20ED108A20E9F04F106009B44FF03C
:1002A000100080F31188BFF34F8FBFF36F8F13F0EF
:1002B00057FD4FF0000080F3118809BC19680868E9
:1002C000B0E8F04F1EF0100F08BFB0EC108A80F3BA
:1002D0000988BFF36F8F704718000020EFF3058087
:1002E000704700000648804706480047FEE7FEE7E3
:1002F000FEE7FEE7FEE7FEE7FEE7FEE7FEE7FEE7D6
:10030000690500080D0200082DE9F05F0546002090
:1003100092469B4688460646814640241BE0284676
:1003200041464746224600F09EF853465A46C01AB8
:10033000914110D311461846224600F085F82D1A37
:1003400067EB01084F4622460120002100F07CF8AF
:1003500017EB00094E41201EA4F10104DFDC4846E2
:1003600031462A464346BDE8F09F00000649074A49
:100370000868504343F2390210440860400870474F
:100380000149086070470000840300206D4EC6419B
:1003900040EA01039B0703D009E008C9121F08C007
:1003A000042AFAD203E011F8013B00F8013B521E87
:1003B000F9D27047D2B201E000F8012B491EFBD2FE
:1003C00070470022F6E710B513460A460446194660
:1003D000FFF7F0FF204610BD421C10F8011B00295A
:1003E000FBD1801A704710B5002200E0521C835CDC
:1003F0008C5CA34201D1002BF8D1D8B2E1B2401AF3
:1004000010BD30B504460020034600E05B1C93425B
:1004100003D2E05CCD5C401BF8D030BD30B50B465C
:10042000014600202022012409E021FA02F59D4224
:1004300005D303FA02F5491B04FA02F52844151EF8
:10044000A2F10102F1DC30BD202A04DB203A00FADF
:1004500002F1002070479140C2F1200320FA03F31B
:10046000194390407047202A04DB203A21FA02F019
:100470000021704721FA02F3D040C2F120029140DE
:100480000843194670470000064C074D06E0E06837
:1004900040F0010394E8070098471034AC42F6D3CB
:1004A000FFF7B8FE605201088052010870B58C1841
:1004B00010F8015B15F0070301D110F8013B2A1178
:1004C00006D110F8012B03E010F8016B01F8016B65
:1004D0005B1EF9D12B0705D40023521E0DD401F861
:1004E000013BFAE710F8013BCB1A921C03E013F82A
:1004F000015B01F8015B521EF9D5A142D8D300205F
:1005000070BD00BFFEE7704710B5402004F038FA18
:100510004FF4803004F034FA10BD00BFFEE700BF96
:10052000FEE7704710B5024812F072FE10BD0000E1
:1005300038F5012010B500BF102080F31188BFF3FB
:100540004F8FBFF36F8F00BF14F0A8FA18B14FF0B0
:1005500080500449086000BF002080F3118800BF6C
:1005600010BD000004ED00E01F48006840F470007A
:100570001D4908601D48006820F00100401C1B490F
:10058000086000BF19480068C0F340000028F9D097
:1005900016480830006820F003001449083108604C
:1005A00000BF124808300068C0F381000028F8D16D
:1005B0000E4800680E4908400C49086000200B49AD
:1005C000083108600B48091F086000200749A03166
:1005D00008604FF41F0005490C3108604FF00060BF
:1005E000014980390860704788ED00E0003802401A
:1005F000FFFFF2FE0230030000BFFEE70FB4054B21
:1006000010B503A9044A029800F018F810BC5DF870
:1006100014FB0000C16700088803002002E008C83E
:10062000121F08C1002AFAD170477047002001E06C
:1006300001C1121F002AFBD1704700002DE9FF4FB6
:100640008BB09A460F460546002606E025280BD0BB
:1006500052460D9990476D1C761C28780028F5D1DC
:100660000FB03046BDE8F08F0024A046012260495B
:1006700000E0044315F8013F203B02FA03F0084272
:10068000F7D128782E2817D115F8010F44F004046B
:100690002A280ED06FF02F022878A0F13001092906
:1006A0000AD808EB880102EB410100EB01086D1C40
:1006B000F2E757F8048B6D1C287869283ED006DCD9
:1006C0000028CDD063280BD0642804D136E07328ED
:1006D00010D075284BD052460D999047761C85E076
:1006E00017F8040B8DF8000000208DF80100E94692
:1006F000012003E057F8049B4FF0FF3061074FF0F3
:10070000000401D40AE0641C44450DDA8442FADB9B
:1007100019F804100029F6D106E0641C8442FCDBC1
:1007200019F804100029F8D1264404E019F8010B47
:1007300052460D999047641EF8D257E001CF4FF012
:100740000A0B002802DA40422D2102E0210504D5DF
:100750002B218DF82410012103E0E10705D0202191
:10076000F7E70DF1200908910CE00021F9E701CF2E
:100770004FF00A0BF9E75946FFF750FE01F130023E
:1007800009F8012D0028F6D1ADEB090000F1200B8E
:10079000600701D44FF00108D84502DDA8EB0B003B
:1007A00000E000208046002406E009A85246005DD3
:1007B0000D999047641C761C08988442F5DB04E090
:1007C000302052460D999047761CB8F10001A8F1EF
:1007D0000108F5DC05E019F8010B52460D99904728
:1007E000761CBBF10001ABF1010BF4DC6D1C34E7AE
:1007F0000928010030B90A4A126822F00202084BA7
:100800001A6006E0064A126822F00202921C044BAB
:100810001A60034A126861F30002014B1A607047C4
:1008200004740140024909680143014A116070479C
:100830000474014001490860704700000C740140D5
:1008400001490860704700001074014001490860C8
:10085000704700001474014010B5044600BF00BF8B
:1008600005F0D0FC0022034941F288300CF0C2F8B8
:1008700010BD00005908000870B505462E46706886
:10088000446A41F28400015941F2A400015141F24D
:100890008800015941F2A80001514FF484500059D9
:1008A0002349884214D10121304612F09DFB1F28B4
:1008B0000ED141F28D00005D012809DC41F28E006D
:1008C000005D012804DB41F28E00005D10280BDD85
:1008D00020220521284600F08FFB022084F85D00CD
:1008E000284600F08FFB22E0284600F0B4F818B14B
:1008F000284600F087FB1AE094F85C00012816D027
:1009000094F85C00022812D094F85C0004280ED001
:10091000E06F20B90021284600F020FB07E0E06FDF
:1009200028B104F180012846E26F00F03BFB70BD66
:100930005553424310B502460C4613465868416A67
:100940000020C86710BD2DE9F04107460C46B846A7
:10095000D8F80400456A05F1800605F1680000EB4F
:100960008402001F00EB8401204609F011FB05F111
:10097000640050F82400401E000E307005F1640041
:1009800050F82400401E000C707005F1640030F82F
:100990002400401E000AB07005F1640010F8240025
:1009A000401EF07005F1680050F82400000E307110
:1009B00005F1680050F82400000C707105F1680022
:1009C00030F82400000AB07105F1680010F8240026
:1009D000F0710820E8670020BDE8F0812DE9F043C0
:1009E00004460D4616461F46A046D8F80400D0F827
:1009F0002490F11909F1640050F82500814207D9CB
:100A000021220521204600F0F7FA0120BDE8F083FD
:100A10000020FBE72DE9F04104460E4627467868A2
:100A2000456A95F85D00022807D18121384612F009
:100A300032FE002085F85D000BE006F08000802883
:100A400007D195F85D00012803D00121204600F070
:100A500085FABDE8F0812DE9F041054601262F46D3
:100A60007868446A41F28F00005D232876D00EDC5E
:100A70001A2829D006DC002856D003284CD012288A
:100A800074D111E01B2817D01E286FD12CE02A2822
:100A90005AD004DC252837D0282867D12CE02F280D
:100AA0004AD05A2862D117E041F28D00015D2846F4
:100AB00000F01CF9064660E041F28D00015D284619
:100AC00000F0C4FA064658E041F28D00015D284668
:100AD00000F054F9064650E041F28D00015D2846D1
:100AE00000F034F9064648E041F28D00015D2846E9
:100AF000FFF720FF064640E041F28D00015D2846E9
:100B000000F054F9064638E041F28D00015D2846B8
:100B1000FFF719FF064630E041F28D00015D2846DF
:100B200000F0E2F9064628E041F28D00015D28461A
:100B300000F095FA064620E041F28D00015D28465E
:100B400000F0A5FA064618E041F28D00015D284646
:100B500000F0D7FA064610E000E007E041F28D0011
:100B6000015D284600F04DF8064606E020220521EA
:100B7000284600F041FA012600BF00BF3046BDE81C
:100B8000F0812DE9F04104460F4626467068456A1B
:100B900095F85C00012804D003280CD004280FD15C
:100BA00008E02046FFF757FF18B10121204600F06A
:100BB000D5F906E000BF0021204600F0CFF900E0A3
:100BC00000BF00BFBDE8F0812DE9F04104460F46AB
:100BD00026467068456A95F85C00022805D007280B
:100BE0000CD12046FFF748FE08E02046FFF733FF10
:100BF00018B10121204600F0B1F900BF00BFBDE8E7
:100C0000F0812DE9F04107460D46B846D8F80400BA
:100C1000466A06F18004002020706070A0700820F1
:100C2000E07006F1680000EB8502001F00EB850113
:100C3000284609F0ADF906F1640050F82500401E81
:100C4000000E207106F1640050F82500401E000CD3
:100C5000607106F1640030F82500401E000AA071A2
:100C600006F1640010F82500401EE0710220207299
:100C700006F1680050F82500000C607206F168006B
:100C800030F82500000AA07206F1680010F825006F
:100C9000E0720C20F0670020BDE8F08170B50546D9
:100CA0002E467068446A072084F85C00002084F8AF
:100CB0005D0020660C494FF485500151002141F23E
:100CC000A80001514FF485500151001D015101212F
:100CD000304612F0C7F81F2304F584520121304634
:100CE00011F03AFF70BD0000555342532DE9F04713
:100CF000074688460024A146BA46DAF80400456A49
:100D000041F29000405D00F0010010B10E4E05244C
:100D10000DE0404605F0FAFD064641F288004059D4
:100D2000242803D241F28800445900E02424EC67CF
:100D300004E0641E315D05F180000155002CF8D1FE
:100D40004846BDE8F08700000C03002070B502465D
:100D50000D46082114466068436A0820D86706E0FB
:100D6000481EC1B20448465C03F180004654002985
:100D7000F6D1002070BD00003403002070B502469B
:100D80000D46082114466068436A0820D86706E0CB
:100D9000481EC1B20448465C03F180004654002955
:100DA000F6D1002070BD00002C0300202DE9FC5F6F
:100DB00082468946D346DBF80400446A04F5845031
:100DC00000F10F0694F85C0007284FD141F28C0027
:100DD000005D00F08000802807D0202205215046C9
:100DE00000F00AF90120BDE8FC9FB0780006F17818
:100DF00040EA0140317940EA012071790843C11786
:100E0000C4E91C01307AF17940EA0120A067494623
:100E10005046A36F226FFFF7E1FD08B10120E2E722
:100E200004F1680050F829000021D4E91C32A3FB2A
:100E3000007C02FB00C003FB0100C4E91C7004F14C
:100E4000680151F82910A06F4843A06741F288005B
:100E50000059A16F884206D020220521504600F09B
:100E6000CBF80120BFE7012084F85C004FF48050EC
:100E7000E067A06FB0F5805F01D2A06F01E04FF492
:100E8000805085B204F18000CDE90005D4E91C73DF
:100E90003A46484609F08CF830B13A2204215046CF
:100EA00000F0AAF801209EE7ABB204F18002812194
:100EB000584611F0DBFED4E91C20521940F1000025
:100EC000C4E91C20A06F401BA06741F2A800005994
:100ED000411B41F2A8000151A06F10B9042084F811
:100EE0005C0000207FE70000F0B503460F461222A9
:100EF0001E467068416A01F180040A4D02E0521EEC
:100F0000A85CA054002AFAD141F288004058122867
:100F100004D241F288004058C86701E01220C86737
:100F20000020F0BD1403002070B505462E46706801
:100F3000446A072084F85C00012084F85D000020EA
:100F400020660121304611F08DFF1F2304F58452E5
:100F50000121304611F000FE70BD00002DE9F04186
:100F600005460E462F467868446A41F2AC000651A9
:100F70000B494FF485500151072084F85C000D2384
:100F800004F585528121384611F070FE1F2304F5C7
:100F900084520121384611F0DFFDBDE8F0810000E8
:100FA000555342532DE9F04706460F469046B14649
:100FB000D9F80400446A41F288000059404501D93B
:100FC000404602E041F28800005985B241F2A80093
:100FD0000059411B41F2A80001510021001D01519F
:100FE000032084F85C002B463A468121484611F0E4
:100FF0003DFEBDE8F0870000014B99701A74704700
:101000001403002070B505462E467068446A41F20C
:101010008800005950B141F28C00005D30B994F85D
:101020005D0018B90121304612F035FB81213046B0
:1010300012F031FB94F85D00022806D11F2304F55D
:1010400084520121304611F087FD70BD10B5024673
:101050000C4613465868416A0020C86710BD2DE948
:10106000F04104468846002627467868456A41F2E2
:101070008800405938B1202205212046FFF7BCFFE7
:101080000120BDE8F0810020E8673046F9E72DE94E
:10109000F04106460F46B046D8F80400446A04F50D
:1010A000845000F10F0541F29000005D00F0020055
:1010B000022807D1242205213046FFF79DFF012099
:1010C000BDE8F081A8780006E97840EA0140297976
:1010D00040EA012069790843C117C4E91C01287A54
:1010E000E97940EA0120A06739463046A36F226FB4
:1010F000FFF774FC08B10120E2E70020E06700BFC1
:10110000DEE72DE9FC5F82468946D346DBF8040022
:10111000446A04F5845000F10F0694F85C00072837
:1011200060D141F28C00005D00F08000802807D182
:10113000202205215046FFF75FFF0120BDE8FC9FFC
:10114000B0780006F17840EA0140317940EA0120A8
:1011500071790843C117C4E91C01307AF17940EA7A
:101160000120A06749465046A36F226FFFF736FC67
:1011700008B10120E2E704F1680050F829000023DB
:10118000D4E91C12A1FB007C02FB00C001FB0300A0
:10119000C4E91C7004F1680151F82910A06F48439C
:1011A000A06741F288000059A16F884206D0202232
:1011B00005215046FFF720FF0120BFE7022084F8F9
:1011C0005C00A06FB0F5805F01D2A06F01E04FF42A
:1011D000805085B22B4604F180020121584611F05F
:1011E000BBFC42E0A06FB0F5805F01D2A06F01E0D0
:1011F0004FF4805085B204F18000CDE90005D4E9B8
:101200001C733A46484608F0EAFE30B13A220421FF
:101210005046FFF7F1FE012090E7D4E91C20521957
:1012200040F10000C4E91C20A06F401BA06741F200
:10123000A8000059411B41F2A8000151A06F20B93C
:1012400000215046FFF78AFE0FE0A06FB0F5805FE7
:1012500001D2A06F01E04FF4805085B22B4604F11B
:1012600080020121584611F077FC002066E72DE945
:10127000F04106460C464FF0000837467868456A4C
:10128000207800F0600010B3202843D1E088E8B156
:10129000207800F0800068B1E388617805F14402AD
:1012A000304610F075FFE28805F14401384611F030
:1012B00040FA0BE0607805F84C0FE08868806A8897
:1012C0004C3D05F14401384611F015FA26E06078EE
:1012D00006280AD004DC012814D0032814D112E017
:1012E0000A2806D00B280FD109E0384611F041FA40
:1012F0000EE001222946384611F01BFA08E060880A
:10130000286005E004E003E0384611F032FA00BF3F
:1013100000BF03E0384611F02CFA00BF00BF404682
:10132000BDE8F0810146012081F85200002081F8DB
:1013300053000860084800684865074882795A20C9
:1013400042540548027958204254034842795920B2
:101350004254002070470000EC0100202DE9F041CC
:101360000446884600202071401E206241462046E7
:1013700008F07EFD10B10420BDE8F08104F23220B7
:1013800007F0E4FB074694F83450EB2D03D0E92D29
:1013900001D0E82D43D14AF65520874208D10822D2
:1013A00023A104F18600FFF72CF808B90020E3E739
:1013B00004F13F0007F0CAFB06464120055D701EA0
:1013C000304060BBB6F5007F29DBB6F5805F26DCD8
:1013D0002DB3681E284010BB04F1420007F0B6FB95
:1013E000E8B14420005D401E012818D804F14500F2
:1013F00007F0ACFB98B104F1470007F0A7FB802889
:1014000006DA04F1540007F0A7FBB0F5803F06D3DD
:1014100004F14A0007F09AFB08B10020ACE74AF655
:101420005520874201D10220A6E70320A4E700004F
:1014300046415433322020200000000070B504469D
:10144000002526468221304611F0E1FA83213046FC
:1014500011F0DDFA0221304611F0D9FA812130462F
:1014600011F0D5FA0121304611F0D1FA284670BDAD
:101470002DE9F0410446002726467068456A0021A0
:10148000304611F0B1FD804695F84C00202808D177
:101490001FFA88F395F84C1005F14402204610F02D
:1014A00077FE3846BDE8F0810146002070470246CD
:1014B000002007290AD2DFE801F009040506090720
:1014C000080004E003E002E001E000E000BF00BF2C
:1014D00070472DE9F04104460D4626467068476A7C
:1014E0004FF000082946304611F0BCFC05F07F00A3
:1014F000032802D1012087F8520005F07F0001285F
:1015000003D129462046FFF73CFB4046BDE8F08169
:101510002DE9F0410446002725466868466A3046B2
:10152000FFF700FF082303228221284611F0E7FA83
:10153000402302228321284611F0E1FA40230222AF
:101540001146284611F0DBFA4023321D02212846BD
:1015500011F002FB402302228121284611F0CFFA2C
:10156000402302220121284611F0C9FA2046FFF744
:1015700095FB3846BDE8F0812DE9F04104460D4663
:101580004FF0000826467068476A05F07F00022881
:1015900008D12946304611F027FDA7F85000012058
:1015A00087F8530005F07F00012803D12946204623
:1015B000FFF70AFB4046BDE8F0812DE9F041054602
:1015C0000C4600262F46207800F01F00012802D08C
:1015D000022819D10BE0A08820B92146284608F03E
:1015E00061FC03E021463846FFF741FE0CE0A0888D
:1015F000812804D12146284608F054FC03E0214606
:101600003846FFF734FE00BF00BF3046BDE8F0812A
:1016100001460020704700000349096860F3071184
:10162000014A116070470000083802400349096808
:1016300060F38C21014A11607047000008380240B5
:101640000349096860F34F31014A11607047000097
:1016500008380240012807D10749096821F0300104
:101660003031054A116005E00349096821F0300175
:10167000014A116070470000A438024010B570B9EB
:101680000E4B1B6861F31A630C4C23600B4B9833B1
:101690001B6862F31B63094C983423600DE0074B11
:1016A0001B6861F3DD63054C2360044B98331B68B2
:1016B00062F31F73014C9834236010BD0838024058
:1016C0000349096860F35651014A116070470000F0
:1016D0000838024005282BD2DFE800F0030A111871
:1016E0002100154A126861F30002134B1A6020E0D2
:1016F000114A126861F310420F4B1A6019E00E4A4A
:10170000126861F318620C4B1A6012E00A4A7032D8
:10171000126861F30002084B70331A6009E0064A50
:101720007432126861F30002034B74331A6000E0F4
:1017300000BF00BF70470000003802402DE9FE4F97
:1017400004464FF00009CA46CB46002002900190A3
:101750000025002600F0C6F90090009820B101286D
:1017600012D002283FD112E031480068C0F3803027
:1017700038B12F480068C0F3003010B12D48206008
:1017800001E02D48206031E02B4820602EE0284801
:101790009C380068C0F38050029025489C3800684F
:1017A000C0F3881922489C38006800F00F0A2048CE
:1017B0009C380068C0F30240204911F800B002983C
:1017C00010B91D48019001E01B4801900AFB0BFC79
:1017D0000198A0FB09700146624600233846FEF7D7
:1017E00093FD206002E01448206000BF00BF104855
:1017F00098380068C0F303151148465D2068F04032
:1018000060600B4898380068C0F382250D48465D3B
:101810006068F040E060064898380068C0F34235E0
:101820000948465D6068F040A060BDE8FE8F00009A
:10183000A0380240006CDC0200127A002A4F010836
:101840000A4F01081A4F0108224F010810B501463E
:101850000020094B03EB1142D2F8002801F01F04CD
:101860000123A3401A4001F01F040123A3409A4220
:1018700000D000E0012010BD0030024030B500244F
:10188000002500E0641C1120FFF7E0FF012802D0D2
:10189000B4F5405FF6D31120FFF7D8FF012801D03F
:1018A000002500E00125284630BD000008B510499C
:1018B0000968C1F3803100910D49096821F4804124
:1018C00001F580410A4A1160BFF36F8F1146096824
:1018D00060F30C311160BFF36F8F9DF80020044955
:1018E000096862F38E31024A1160BFF36F8F08BD41
:1018F000A03802400D49096821F4804101F580417A
:101900000A4A1160BFF36F8F1146096821F48051B4
:1019100001F580511160BFF36F8F1146096860F3C4
:101920008E311160BFF36F8F70470000A038024006
:1019300010B501290FD1104B03EB1042D2F800284B
:1019400000F01F040123A3401A430B4C04EB104387
:10195000C3F800280EE0084B03EB1042D2F8002831
:1019600000F01F040123A3409A43034C04EB1043EF
:10197000C3F8002810BD00000030024010B5012956
:101980000FD1104B03EB1042D2F8002800F01F04D7
:101990000123A3401A430B4C04EB1043C3F8002867
:1019A0000EE0084B03EB1042D2F8002800F01F04B1
:1019B0000123A3409A43034C04EB1043C3F80028CF
:1019C00010BD000000300240F0B504460D4616463A
:1019D0001F4614B90120FFF769FF0B48006864F344
:1019E0009650094908600846006865F38E10086043
:1019F0000846006866F3030008600846006867F35D
:101A000012400860F0BD000004380240234800681E
:101A100020F00100401C2149086000BF1F480068F9
:101A2000C0F340000028F9D01C480830006820F0BE
:101A300003001A490831086000BF184808300068E0
:101A4000C0F381000028F8D1144800681449084008
:101A50001249086000201149083108601148091F27
:101A600008600E48A030006820F4804000F58040F7
:101A70000A49A0310860BFF36F8F0846006820F460
:101A800080500860BFF36F8F00200860BFF36F8F36
:101A90004FF41F0001490C310860704700380240C4
:101AA000FFFFF2FE023003000D49096860F30101F7
:101AB0000B4A116000BF00BF00BF00BF00BF00BFE6
:101AC00000BF00BF00BF00BF00BF00BF00BF00BF1E
:101AD00000BF00BF00BF00BF00BF00BF70470000D5
:101AE0000838024002480068C0F3810070470000D7
:101AF000083802400349096860F30F31014A116058
:101B000070470000A438024000B50346012B01D104
:101B1000FFF7F0FE0348006863F34D3001490860A9
:101B200000BD0000A03802401CB504460121184841
:101B3000FFF7FEFE01211748FFF7FAFE684604F0A2
:101B40003BFF01208DF8070000208DF804000220E3
:101B50008DF806002020009000208DF805006946D1
:101B60000D4804F033FF072205210B4804F06BFFFA
:101B700000230122214609480FF0AAFD0121074850
:101B80000FF0FCFD012105480FF094FD1CBD000085
:101B90001100400003003000000C024000440040EF
:101BA00070B504460D4600BF64B911F057FE11A38D
:101BB00040F2253215A119A0FEF720FD00200020DB
:101BC00000BF70BD00BF00BF00BF606A78B1606A2F
:101BD000007B08280BD100BF00BF2868616A496AF2
:101BE000884204D100BF00BF204600F0D7FA00BFF2
:101BF000E7E700004C5749505C7372635C636F7297
:101C0000655C646863702E63000000006E65746933
:101C10006620213D204E554C4C00000041737365F9
:101C20007274696F6E2022257322206661696C656B
:101C300064206174206C696E6520256420696E20C3
:101C400025730A007CB5064600BF66B911F006FE92
:101C500049A34FF469724EA154A0FEF7CFFC0020B7
:101C6000002000BF7CBD00BF746A00BF64B911F0E2
:101C7000F5FD41A340F2A63256A14CA0FEF7BEFCF2
:101C80000020002000BFEDE700BF00BF00BF606B79
:101C9000401C90B100BF00BF606B1E303C21B0FB08
:101CA000F1F5B5F5803F01D34FF6FF75A583A08B05
:101CB00008B90120A08300BF00BFA06B401C90B1F9
:101CC00000BF00BFA06B1E303C21B0FBF1F5B5F5A5
:101CD000803F01D34FF6FF75E583E08B08B9012003
:101CE000E08300BF00BFA08BE18B884204DBE08B68
:101CF000002801DD0020A083A07B10B1A06A019024
:101D000010E094F824007F2802DCFF21019108E014
:101D1000C02803DB6FF07F41019102E04FF6FF71B5
:101D2000019100BFE06A0090684608B1009838B998
:101D3000606A019908400090009840F0807000901F
:101D400000BF00BF04F12401304608F0ABFB00BF28
:101D500000BF01A9304608F02FFC00BF00BF694654
:101D6000304608F096FB304608F02EFC0A2120464B
:101D700001F0F4FB00BF75E74C5749505C73726388
:101D80005C636F72655C646863702E6300000000C2
:101D9000646863705F62696E643A206E6574696638
:101DA00020213D204E554C4C0000000041737365CE
:101DB0007274696F6E2022257322206661696C65DA
:101DC00064206174206C696E6520256420696E2032
:101DD00025730A00646863705F62696E643A206408
:101DE00068637020213D204E554C4C002DE9F04198
:101DF0000646746A00BF00BF0821204601F0AEFB12
:101E0000002204F12401304603F068FF05460DB1BD
:101E100000BF00BF607B401C60734FF4FA7707F28D
:101E2000F310394690FBF1F0608300BF00BFBDE8BE
:101E3000F081000010B51248046800BF00BF1BE02D
:101E4000606AC0B1606AC18B481E626AD083012992
:101E500005D100BF00BF204601F01CFD0BE0606A09
:101E6000818B481E626A9083012904D100BF00BFA4
:101E7000204601F0FBFC2468002CE1D110BD0000DD
:101E8000D40000202DE9F04106460C46174600BF5D
:101E9000002E0FD111F0E2FC70A340F27C6275A11C
:101EA0007CA0FEF7ABFB0020002000BF6FF00D0010
:101EB000BDE8F08100BF00BF74B911F0CFFC67A38B
:101EC00040F27D627DA173A0FEF798FB0020002008
:101ED00000BF6FF00500EBE700BF00BF206960B1F5
:101EE00000BF11F0BBFC40F27E635CA27BA185A029
:101EF000FEF784FB11F0DCFC00BF00BF00BF60698F
:101F000060B100BF11F0AAFC40F27F6353A287A129
:101F10007CA0FEF773FB11F0CBFC00BF00BF0022DA
:101F20004FF49A71104608F02FFC2061206920B907
:101F300000BF00BF4FF0FF30BAE700BF2069408903
:101F4000B0F59A7F0CD200BF11F088FC40F2866396
:101F500042A280A16BA0FEF751FB11F0A9FC00BFCB
:101F600000BF607B18B9FEF701FA8A49086089480A
:101F70000068206000BF00BF2069406860610120E8
:101F8000616908706169487096F82A006169887013
:101F900000206169C870206806F0ADFE6169486084
:101FA000002061690881616948816169C860082F02
:101FB00009D0042F07D0032F08D1207B052802D099
:101FC000207B042802D170686169C86000206169C3
:101FD0000861616948616169886100250DE096F8D2
:101FE0002A00A84203DD06F12B00405D00E000203E
:101FF00061691C314855681C85B2102DEFD300254E
:1020000005E0002160692C304155681C85B2402DE7
:10201000F7D3002505E0002160696C304155681C4C
:1020200085B2802DF7D35C486169C1F8EC000020CF
:102030002083002504E06069F0304555681C85B2B6
:10204000442DF8D301223521204600F0EDFA39461F
:10205000204600F031FB00202AE700004C57495091
:102060005C7372635C636F72655C646863702E633B
:1020700000000000646863705F6372656174655F8F
:102080006D73673A206E6574696620213D204E5558
:102090004C4C0000417373657274696F6E20222589
:1020A0007322206661696C6564206174206C696EBE
:1020B0006520256420696E2025730A0064686370BA
:1020C0005F6372656174655F6D73673A206468630E
:1020D0007020213D204E554C4C0000006468637018
:1020E0005F6372656174655F6D73673A20646863EE
:1020F000702D3E705F6F7574203D3D204E554C4CE9
:1021000000000000417373657274696F6E20666130
:10211000696C65643A2025732C2066696C652025FE
:10212000732C206C696E652025640A0064686370F6
:102130005F6372656174655F6D73673A206468639D
:10214000702D3E6D73675F6F7574203D3D204E5559
:102150004C4C0000646863705F6372656174655F16
:102160006D73673A20636865636B207468617420DF
:10217000666972737420706275662063616E206890
:102180006F6C642073747275637420646863705F2D
:102190006D736700A0000020638253632DE9F8434C
:1021A00005466C6A002600BF00BF0C21204601F0E6
:1021B000D5F9042221462846FFF764FE06460EBBE9
:1021C00004223221204600F02FFA606A06F0BEFD9C
:1021D00080464146204600F0C9FA204600F080FBC8
:1021E000228BF03291B2206909F01EFA0095432348
:1021F0000E4A216960680FF083F9204600F018F854
:1022000000BF01E000BF00BF607B401C607342F272
:10221000107707F2F3104FF4FA7190FBF1F060833E
:1022200000BF00BF3046BDE8F8830000045001083D
:1022300010B5044600BF64B911F010FB1CA340F2B6
:10224000C96221A128A0FEF7D9F90020002000BF13
:1022500010BD00BF00BF206900280CD100BF11F0E5
:10226000FDFA40F2CA6312A229A133A0FEF7C6F913
:1022700011F01EFB00BF00BF00BF606900280CD139
:1022800000BF11F0EBFA40F2CB6309A234A12AA0FF
:10229000FEF7B4F911F00CFB00BF00BF206910B1CC
:1022A000206908F0CDFF00202061606100BFCFE70A
:1022B0004C5749505C7372635C636F72655C646811
:1022C00063702E6300000000646863705F64656C77
:1022D0006574655F6D73673A206468637020213DA3
:1022E000204E554C4C000000417373657274696F49
:1022F0006E2022257322206661696C6564206174FA
:10230000206C696E6520256420696E2025730A00A3
:10231000646863705F64656C6574655F6D73673A6C
:1023200020646863702D3E705F6F757420213D20BE
:102330004E554C4C00000000417373657274696F18
:102340006E206661696C65643A2025732C2066698D
:102350006C652025732C206C696E652025640A004D
:10236000646863705F64656C6574655F6D73673A1C
:1023700020646863702D3E6D73675F6F75742021F4
:102380003D204E554C4C0000F8B505466C6A0026C1
:1023900000BF00BF002060620621204601F0DEF889
:1023A000012221462846FFF76DFD0646002E3AD150
:1023B00000BF00BF02223921204600F035F9298DE7
:1023C000204600F047FA04223721204600F02CF97D
:1023D0000121204600F070F90321204600F06CF93D
:1023E0001C21204600F068F90621204600F064F91F
:1023F000204600F075FA00BF00BF228BF03291B288
:10240000206909F011F900BF00BF00954323164A67
:10241000216960680FF074F800BF00BF2046FFF725
:1024200007FF00BF01E000BF00BF607B401C60737E
:10243000607B062803DA617B0120884000E03C20B5
:1024400000EB4001C1EBC0104FF6FF7101EAC0077D
:1024500007F2F3104FF4FA7190FBF1F0608300BFC4
:1024600000BF3046F8BD00000450010810B5104808
:1024700004681AE0606AB8B1606A408B012805DD23
:10248000606A408B401E616A48830DE0606A408B41
:10249000012809D1606A408B401E616A488300BFF1
:1024A00000BF204601F00AFA2468002CE2D110BDDA
:1024B000D4000020F8B50646746A0020A062E062ED
:1024C0002448C07810B12448C068206321480079AE
:1024D00018B121480069606302E0206B4008606326
:1024E0001C48407918B11C484069A06301E0206B8A
:1024F000A063A068006960621648807938B1164907
:10250000886906F0F8FBA0620120A07301E00020BA
:10251000A0731048C07920B10F49C86906F0EBFBE1
:10252000E06200250EE005F108010B4A52F8210097
:1025300006F0E1FB00906946284601F075FF681C33
:10254000C5B200BF05F108000249085C08B1022DC0
:10255000E9DBF8BD98A6002070A6002070B50446FF
:10256000656A00BF00BF204607F07EFF094920468C
:1025700007F098FF0749204607F08BFF05492046E2
:1025800008F01AF80C21284600F0E8FF2046FFF773
:10259000FBFE70BD0050010870B505466C6A00BFB7
:1025A00000BF0B48807878B10A49886806F0A3FB21
:1025B000206200BF00BFA0680069606200BF00BF6A
:1025C000284600F049FF01E000BF00BF70BD0000D9
:1025D00098A6002070A6002070B505466C6A04B964
:1025E00070BD207B042809D003DC98B1032812D1E8
:1025F00007E0052803D00A280DD101E000BF00BF85
:1026000000BF284607F030FF00206073284600F026
:102610004DFD06E005E0002060732846FFF7B4FE9C
:1026200000BF00BF00BFDBE770B504460E4615468D
:1026300000BF208B801C284444280CD900BF11F017
:102640000DF940F2F6430BA2104911A0FDF7D6FF99
:1026500011F02EF900BF00BF218B481C2083606958
:10266000F0304654218B481C20836069F03045547B
:1026700070BD00004C5749505C7372635C636F72AD
:10268000655C646863702E630000000058500108A8
:10269000417373657274696F6E206661696C6564FD
:1026A0003A2025732C2066696C652025732C206CDC
:1026B000696E652025640A0070B504460D4600BFAA
:1026C000208B44280CD300BF11F0C8F840F201530E
:1026D00007A20DA11BA0FDF791FF11F0E9F800BFC3
:1026E00000BF218B481C20836069F030455470BDC9
:1026F0004C5749505C7372635C636F72655C6468CD
:1027000063702E6300000000646863705F6F707414
:10271000696F6E5F627974653A20646863702D3EFC
:102720006F7074696F6E735F6F75745F6C656E2028
:102730003C20444843505F4F5054494F4E535F4CE8
:10274000454E0000417373657274696F6E20666157
:10275000696C65643A2025732C2066696C652025B8
:10276000732C206C696E652025640A0070B50446E0
:102770000D4600BF208B001D44280CD900BF11F06E
:102780006DF84FF4A26313A218A128A0FDF736FF3D
:1027900011F08EF800BF00BF290E228B501C208341
:1027A0006069F0308154C5F30741228B501C2083AF
:1027B0006069F0308154C5F30721228B501C2083BF
:1027C0006069F0308154228B501C20836069F030A6
:1027D000855470BD4C5749505C7372635C636F7273
:1027E000655C646863702E63000000006468637059
:1027F0005F6F7074696F6E5F6C6F6E673A206468AC
:1028000063702D3E6F7074696F6E735F6F75745F68
:102810006C656E202B2034203C3D20444843505FA3
:102820004F5054494F4E535F4C454E0041737365B2
:102830007274696F6E206661696C65643A202573F5
:102840002C2066696C652025732C206C696E6520D0
:1028500025640A0070B504460D4600BF208B801C1D
:1028600044280CD900BF10F0F9FF4FF4A1630BA26C
:10287000104911A0FDF7C2FE11F01AF800BF00BF09
:10288000290A228B501C20836069F0308154228BEE
:10289000501C20836069F030855470BD4C574950FE
:1028A0005C7372635C636F72655C646863702E63F3
:1028B0000000000014500108417373657274696F61
:1028C0006E206661696C65643A2025732C20666908
:1028D0006C652025732C206C696E652025640A00C8
:1028E00010B5044600BF002C0CD110F0B7FF25A393
:1028F00040F2DE6229A132A0FDF780FE0020002018
:1029000000BF10BD00BF00BF606900280CD100BF30
:1029100010F0A4FF40F2DF631AA233A13DA0FDF73F
:102920006DFE10F0C5FF00BF00BF00BF208B442824
:102930000CD300BF10F092FF4FF4DC6311A23FA153
:1029400034A0FDF75BFE10F0B3FF00BF00BFFF2116
:10295000228B501C20836069F030815406E00021F6
:10296000228B501C20836069F0308154208B4428D6
:1029700003D3207E00F0030010B1208B4428EED357
:1029800000BFBEE74C5749505C7372635C636F7263
:10299000655C646863702E630000000064686370A7
:1029A0005F6F7074696F6E5F747261696C65723AA3
:1029B000206468637020213D204E554C4C0000007F
:1029C000417373657274696F6E20222573222066CD
:1029D00061696C6564206174206C696E6520256492
:1029E00020696E2025730A00646863705F6F7074DD
:1029F000696F6E5F747261696C65723A20646863B6
:102A0000702D3E6D73675F6F757420213D204E55AC
:102A10004C4C0A00417373657274696F6E20666175
:102A2000696C65643A2025732C2066696C652025E5
:102A3000732C206C696E652025640A0064686370DD
:102A40005F6F7074696F6E5F747261696C65723A02
:102A500020646863702D3E6F7074696F6E735F6F72
:102A600075745F6C656E203C20444843505F4F5046
:102A700054494F4E535F4C454E0A00002DE9F34F29
:102A800089B089460020069005900A21FB48FDF791
:102A900098FCB9F80A002C2804DA6FF001000BB09A
:102AA000BDE8F08FD9F80410099881604FF0F00B61
:102AB000B9F80800079000BF4C460AE06089ABEB0C
:102AC00000001FFA80FB61890798401A80B20790C6
:102AD000246814B160895845F0DD14B96FF0010025
:102AE000DDE75F46DDF81CA06068089048E20898C2
:102AF000C05D049000264FF0FF38B81C80B20390F0
:102B00006189781C814203DD791C0898455C07E0E7
:102B1000206818B120684068007800E00020054671
:102B20002E460498342878D00BDC03282ED003DC02
:102B300080B1012872D113E006283ED03328F9D1A4
:102B400074E035286BD036286AD03A2869D03B2803
:102B5000F0D1D9E0002005460646781E87B2EDE0A8
:102B600000BF042D0ED010F079FEC5A340F27B52B9
:102B7000C9A1CCA0FDF742FD0020002000BF6FF0EE
:102B800005008CE700BF4FF00608D7E0042600BF21
:102B9000B5420EDA10F062FEB9A34FF4B062CBA1D9
:102BA000C0A0FDF72BFD0020002000BF6FF0050046
:102BB00075E700BF4FF00708C0E000BFE91705EB5D
:102BC00091718910A5EB810171B110F047FEACA3A2
:102BD00040F28552C2A1B3A0FDF710FD00200020F5
:102BE00000BF6FF005005AE700BF082D01DA284644
:102BF00000E00820064600BFB54213DA10F02EFEB2
:102C00009FA34FF4B162B1A1A6A0FDF7F7FC00208D
:102C1000002000BF6FF0050041E71DE08AE031E0D1
:102C200046E05BE000BF4FF0080887E000BF042DDE
:102C30000ED010F013FE92A340F28C5296A199A0F0
:102C4000FDF7DCFC0020002000BF6FF0050026E748
:102C500000BF4FF0030871E000BF012D0ED010F04F
:102C6000FDFD87A34FF4B262A1A18EA0FDF7C6FCC3
:102C70000020002000BF6FF0050010E700BF4FF0FC
:102C800000085BE000BF012D0ED010F0E7FD7CA333
:102C900040F2945296A183A0FDF7B0FC00200020E2
:102CA00000BF6FF00500FAE600BF4FF0010845E0F5
:102CB00000BF042D0ED010F0D1FD71A34FF4B3620C
:102CC00075A178A0FDF79AFC0020002000BF6FF0EE
:102CD0000500E4E600BF4FF002082FE000BF042D1E
:102CE0000ED010F0BBFD66A340F29C526AA16DA00D
:102CF000FDF784FC0020002000BF6FF00500CEE649
:102D000000BF4FF0040819E000BF042D0ED010F0F2
:102D1000A5FD5BA34FF4B4625FA162A0FDF76EFC5A
:102D20000020002000BF6FF00500B8E600BF4FF0A4
:102D3000050803E0002600BF00BF00BF00BFA81CBD
:102D4000384487B2002E7CDD0020029000BF00BF17
:102D5000B8F1000F02DBB8F10A0F0CDB00BF10F076
:102D60007DFD40F2AD5346A264A169A0FDF746FC8B
:102D700010F09EFD00BF00BF404810F8080000287A
:102D80005ED1042E01DA304600E00420019002A951
:102D90002046039B019A08F0AFF9042E2ADD00BFFC
:102DA000F11706EB91718910A6EB810171B110F05A
:102DB00055FD33A340F2B3525FA13AA0FDF71EFCCC
:102DC0000020002000BF6FF0050068E600BF012072
:102DD0002A4901F80800029805F08DFF5B4941F887
:102DE0002800301FC6B20398001D80B2039008F17E
:102DF0000108ACE7042E04D1029805F0A7FF029069
:102E000016E000BF012E0FD010F028FD1CA340F2E9
:102E1000BD524FA123A0FDF7F1FB0020002000BF11
:102E20006FF005003BE60CE000BF9DF80800029043
:102E30000120124901F808004449029841F828008D
:102E400000BF6089B84217DC6089381A87B2608990
:102E5000AAEB00001FFA80FA57450EDABAF1000F0C
:102E60000BD0246800BF34B900BF10F0F7FC40F26B
:102E7000C95303A276E07DE081E07FE098A60020C0
:102E80004C5749505C7372635C636F72655C646835
:102E900063702E63000000006C656E203D3D2034A1
:102EA00000000000417373657274696F6E20222503
:102EB0007322206661696C6564206174206C696EA0
:102EC0006520256420696E2025730A006C656E20DC
:102ED0003E3D206465636F64655F6C656E00000055
:102EE0006C656E20252034203D3D20300000000020
:102EF0006C656E203D3D2031000000006368656315
:102F00006B206465636F64655F696478000000002E
:102F1000417373657274696F6E206661696C656474
:102F20003A2025732C2066696C652025732C206C53
:102F3000696E652025640A006465636F64655F6C73
:102F4000656E20252034203D3D20300070A60020F5
:102F5000696E76616C6964206465636F64655F6C3B
:102F6000656E000024A1AFF25800FDF747FB10F09A
:102F70009FFC00BF00BF6068089000E008E000BF51
:102F800034B10898C05DFF2802D05745FFF6AFADB9
:102F900000BF1E480078D0B11D49086800211B4AB7
:102FA0001170012803D10121069100BF0EE0022813
:102FB00003D10121059100BF08E0032804D10121BC
:102FC0000591069100BF01E000BF00BF00BF069859
:102FD00030B1002006904FF06C0BEC2007906BE5B1
:102FE000059830B1002005904FF02C0B6C20079015
:102FF00062E5002053E500006E657874207062750C
:103000006620776173206E756C6C000098A60020B6
:1030100070A60020F8B505466C6A00BF00BF042109
:10302000204600F09BFA032221462846FEF72AFF9D
:103030000646EEB9022239212046FFF7F5FA298D1E
:103040002046FFF707FC2046FFF74AFC228BF032B0
:1030500091B2206908F0E8FA00954323124A2169E9
:1030600060680EF04DFA2046FFF7E2F800BF01E07D
:1030700000BF00BF607B401C6073607B0A2805DADC
:10308000607B4FF47A7110FB01F001E042F21070A6
:1030900087B207F2F3104FF4FA7190FBF1F06083FE
:1030A00000BF00BF3046F8BD045001082DE9F843C9
:1030B00005466C6A00BF00BF0321204600F04EFAAF
:1030C000032221462846FEF7DDFE06465EBB0222AD
:1030D00039212046FFF7A8FA4FF410712046FFF778
:1030E000B9FB042232212046FFF79EFA606A05F000
:1030F0002DFE804641462046FFF738FB2046FFF76D
:10310000EFFB228BF03291B2206908F08DFA009526
:103110004323134A216960680EF0F2F92046FFF755
:1031200087F800BF01E000BF00BF607B401C6073F8
:10313000607B0A2805DA607B4FF47A7110FB01F09E
:1031400001E042F2107087B207F2F3104FF4FA7107
:1031500090FBF1F0608300BF00BF3046BDE8F8830C
:10316000045001082DE9F05F81461546DDF828B0CE
:103170004F467C6AD5F804A000BF00BF00BF00BF67
:1031800000BF00BF00BFA06860B100BF10F066FBC9
:1031900040F2116345A24BA14FA0FDF72FFA10F0AA
:1031A00087FB00BF00BF68892C2802DA00BF00BF80
:1031B00075E09AF80000022802D000BF00BF6EE060
:1031C00000260CE007F12B00815D0AF11C00805DF8
:1031D000814202D000BF00BF61E0701CC6B297F808
:1031E0002A00B042EEDCDAF8040005F0AFFD2168F9
:1031F000884202D000BF00BF51E029462046FFF7B9
:103200003DFC10B100BF00BF49E000BF00BF3C481B
:10321000407810B900BF00BF41E03A4890F8048000
:10322000B8F1050F18D100BF00BF207B012806D1DF
:103230003846FFF73FF93846FEF7D8FD2EE0207BF1
:10324000032805D0207B042802D0207B052825D127
:103250003846FEF7F7FC21E0B8F1060F11D1207BCC
:10326000032808D0207B012805D0207B042802D029
:10327000207B052805D100BF00BF3846FFF76EF957
:103280000CE0B8F1020F09D1207B062806D100BF5F
:1032900000BF002060833846FFF77EF900BF0020A2
:1032A000A060284607F0CCFFBDE8F09F4C5749507E
:1032B0005C7372635C636F72655C646863702E63D9
:1032C000000000007265706C79207761736E27745E
:1032D0002066726565640000417373657274696F7E
:1032E0006E206661696C65643A2025732C206669DE
:1032F0006C652025732C206C696E652025640A009E
:1033000098A6002070A60020F8B505466C6A00BF9C
:1033100000BF0021204600F021F9002020626062F9
:10332000A062E062A0636063206307222146284612
:10333000FEF7A8FD0646AEB92046FFF7D1FA228B6C
:10334000F03291B2206908F06FF90095432304F13F
:103350002002216960680EF0D3F82046FEF768FF6E
:1033600000BF01E000BF00BF607B401C6073607B5A
:103370000A2805DA607B4FF47A7110FB01F001E056
:1033800042F2107087B207F2F3104FF4FA7190FB1B
:10339000F1F0608300BF00BF284607F065F80749D9
:1033A000284607F07FF80549284607F072F80349D8
:1033B000284607F001F93046F8BD0000005001082A
:1033C000F8B505466C6A00BF00BF0521204600F035
:1033D000C5F8032221462846FEF754FD0646F6B9F5
:1033E000022239212046FFF71FF9298D2046FFF7D9
:1033F00031FA2046FFF774FA228BF03291B220693D
:1034000008F012F90095432304F120022169606855
:103410000EF076F82046FEF70BFF00BF01E000BF7C
:1034200000BF607B401C6073607B0A2805DA607B0C
:103430004FF4FA6110FB01F001E044F6206087B21E
:1034400007F2F3104FF4FA7190FBF1F0608300BFC4
:1034500000BF3046F8BD00002DE9F84305466C6A10
:1034600000BF00BF0121204600F078F8032221466A
:103470002846FEF707FD0646002E4CD102223921D0
:103480002046FFF7D1F8298D2046FFF7E3F9042203
:1034900032212046FFF7C8F8606A05F057FC8046E5
:1034A00041462046FFF762F9042236212046FFF705
:1034B000BBF8206A05F04AFC804641462046FFF7EB
:1034C00055F9042237212046FFF7AEF801212046A6
:1034D000FFF7F2F803212046FFF7EEF81C21204603
:1034E000FFF7EAF806212046FFF7E6F82046FFF747
:1034F000F7F9228BF03291B2206908F095F8009527
:103500004323154A216960680DF0FAFF2046FEF753
:103510008FFE00BF01E000BF00BF607B401C6073F6
:10352000607B062803DA617B0120884000E03C20B4
:1035300000EB4001C1EBC0104FF6FF7101EAC0077C
:1035400007F2F3104FF4FA7190FBF1F0608300BFC3
:1035500000BF3046BDE8F88304500108027B8A4270
:1035600003D00173002242734283704770B5054651
:10357000002600BF75B910F071F94DA340F27A2210
:1035800051A155A0FDF73AF80020002000BF6FF0D0
:103590000D0070BD00BF6C6A00BF00BF15F8310F91
:1035A00020F00800287015F8310900F0200020B93B
:1035B00000BF00BF6FF00D00EBE7288DB0F5107F66
:1035C00004DA00BF00BF4FF0FF30E2E774B900BF7C
:1035D00000BF3C2005F0D0FE044624B900BF00BF68
:1035E0004FF0FF30D5E76C6200BF28E000BF00BF9E
:1035F000606810B160680DF035FF00BF206960B1F0
:1036000000BF10F02BF940F29E2329A23CA142A05A
:10361000FCF7F4FF10F04CF900BF00BF00BFA0683A
:1036200060B100BF10F01AF940F29F2320A244A11C
:1036300039A0FCF7E3FF10F03BF900BF00BF3C21CD
:103640002046FCF7BEFE0DF0CFFE6060606820B93A
:1036500000BF00BF4FF0FF309BE76068007A40F08A
:1036600020006168087244223A4960680DF086FCC7
:103670004322384960680DF001FD2A4636496068EA
:103680000DF0ECFE00BF00BF2846FEF77DFE0646AB
:103690002EB1284600F062F84FF0FF3079E795F838
:1036A000310040F0080085F83100304671E7000035
:1036B0004C5749505C7372635C636F72655C6468FD
:1036C00063702E63000000006E6574696620213D02
:1036D000204E554C4C000000417373657274696F45
:1036E0006E2022257322206661696C6564206174F6
:1036F000206C696E6520256420696E2025730A00A0
:103700007062756620705F6F7574207761736E27C5
:103710007420667265656400417373657274696FC5
:103720006E206661696C65643A2025732C20666999
:103730006C652025732C206C696E652025640A0059
:103740007265706C79207761736E2774206672657C
:1037500065640000005001086531000870B5054639
:1037600000BF65B910F07AF81AA340F2C7421FA152
:1037700025A0FCF743FF0020002000BF70BD00BF64
:103780006C6A95F8310020F0080085F8310000BF20
:1037900000BF002C1BD0606820B160680DF062FE95
:1037A0000020606000BFA06860B100BF10F056F854
:1037B00040F2DA4307A21EA122A0FCF71FFF10F07F
:1037C00077F800BF00BF00212046FFF7C7FE00BF0B
:1037D000D4E700004C5749505C7372635C636F72AE
:1037E000655C646863702E63000000006468637049
:1037F0005F73746F703A206E6574696620213D2096
:103800004E554C4C00000000417373657274696F33
:103810006E2022257322206661696C6564206174C4
:10382000206C696E6520256420696E2025730A006E
:103830007265706C79207761736E2774206672658B
:1038400065640000417373657274696F6E20666110
:10385000696C65643A2025732C2066696C652025A7
:10386000732C206C696E652025640A0070B50546CE
:103870006C6A00BF00BF207B012805D0207B0A288E
:1038800002D0207B052804D100BF00BF2846FFF7E7
:1038900097FD70BD70B505466C6A00BF00BF207B08
:1038A000012805D0207B0A2802D0207B052804D1DE
:1038B00000BF00BF2846FFF7ADFB70BD70B50546E1
:1038C0006C6A00BF00BF207B0C2802D0207B06283A
:1038D00005D100BF00BF2846FEF756FD4FE0207B14
:1038E000012811D100BF00BF607B052803DC2846FA
:1038F000FFF7B2FD43E000BF00BF2846FFF704FD1D
:103900002846FEF741FD3AE0207B08280CD100BF95
:1039100000BF607B012803DC2846FEF767FA2EE033
:103920002846FEF78FF92AE0207B052805D100BF45
:1039300000BF2846FFF744FD21E0207B042811D179
:1039400000BF00BF607B082803DC2846FFF762FB4E
:1039500015E000BF00BF2846FFF7D6FC2846FEF75B
:1039600013FD0CE0207B032809D1607B022803DAD9
:103970002846FFF79BFB02E02846FEF705FD70BDD9
:1039800010B5044600BF00BFFEF754FA00220349F9
:103990004EF6602009F02EF810BD000081390008B5
:1039A00010B5044600BF00BFFEF760FD00220349CA
:1039B0004FF4FA7009F01EF810BD0000A13900089C
:1039C00010B504461CB910F011FA002010BD0120FA
:1039D000FCE703467BB9012902D10802106008E028
:1039E000022902D1C802108003E0032901D101207D
:1039F0001060002070470420FCE72DE9FC410446DC
:103A00000D4616461F465CB9380331030A460023AB
:103A1000CDE90050184606F0CBFA0020BDE8FC8145
:103A20000420FBE7014609B9002070470120FCE7AC
:103A30002DE9FC4104460D4616461F465CB9380385
:103A400031030A460023CDE90050184606F0C7FAB4
:103A50000020BDE8FC810420FBE7026861F300025E
:103A60000260704700210160416001814181017362
:103A700041738173C173017441747047B0F1805F09
:103A800004D920F07041034A116001E00249086046
:103A900070470000046602400464024001460022B0
:103AA000B1F1805F02D90648026801E0054802686A
:103AB00002EA010008B1012070470020FCE7000085
:103AC000006602400064024002684BF6EF731A4041
:103AD000026002680B891A4302604B7C026863F340
:103AE0000D320260CB7B026863F38B2202608B7B1A
:103AF000026863F3092202604B7B026863F3C7121A
:103B000002600B7B026863F3861202600B7C026822
:103B100063F3451202604B89426863F30F0242600F
:103B20000A6882604A68C26070470000002102682B
:103B300022F0010202600022026042608260C260E4
:103B4000014640F2FF620A40B2F5C16F0DD2CAB21F
:103B5000083A1423B2FBF3F293000F229A400D4B64
:103B60001B681A430B4B1A6012E040F2FF620A40D6
:103B7000B2F5D16F0CD2CAB2083A1423B2FBF3F2F9
:103B800093000F229A40044B1B681A43024B1A60A1
:103B9000704700000464024004660240D0F800212F
:103BA00061F30002C0F800217047026861F3060269
:103BB0000260704710B5002404E0204600F006F8CB
:103BC000601CC4B2042CF8DB10BD000070B50646C2
:103BD000C6EBC60000EB8000484901EBC00400BF03
:103BE000042E0CDB00BF0FF039FE40F2812344A20B
:103BF00048A14FA0FCF702FD0FF05AFE00BF00BF26
:103C00002078002866D0012804D0022815D0032887
:103C100061D154E002202070002060700120A0706B
:103C20000020E0706078324604F10C0100F004FBE3
:103C300005460DB100BF00BF5DE0A078401EC0B2D8
:103C4000A07000283AD1E078401CC0B2E07004288F
:103C500028D16078401C022812DA6078401C3E4966
:103C600001EB800060B16078401C51F8200038B151
:103C70006078401C60700120A0700020E0703AE085
:103C800000BF00BFD4F8100138B1002104F10C00CE
:103C9000D4F81031D4F81421984700202070C4F8CB
:103CA000100128E0E078A0706078324604F10C0141
:103CB00000F0C2FA05460DB100BF00BF1BE0A068CE
:103CC000401EA06028B900BF00BF00202070C4F8CB
:103CD000100110E00FE000BF00BF0FF0BFFD40F289
:103CE000C52307A21DA112A0FCF788FC0FF0E0FD80
:103CF00000BF00BF00BF00BF70BD0000A4A6002031
:103D00004C5749505C7372635C636F72655C646EA0
:103D1000732E6300617272617920696E6465782028
:103D20006F7574206F6620626F756E64730000009B
:103D3000417373657274696F6E206661696C656446
:103D40003A2025732C2066696C652025732C206C25
:103D5000696E652025640A00B0000020756E6B6EE8
:103D60006F776E20646E735F7461626C6520656E40
:103D70007472792073746174653A000010B502465C
:103D800000BF11F8013B03F0C000C02800D110E0D3
:103D900009E010780C78A04201D0012010BD491C28
:103DA000521C581EC3B2002BF3DC521C08780028AA
:103DB000E7D100BF0020F1E72DE9F05F0746884614
:103DC0009146002400200646834600251BE0C5EBF3
:103DD000C50000EB8000314901EBC004207800B938
:103DE00013E0207803280CD120792D490978081A8E
:103DF000584506DD20792A490978081A00F0FF0B9A
:103E00002E46681CC5B2042DE1DB00BF042D18D17D
:103E1000042E08DAC6EBC60000EB80001F4911F83B
:103E20003000032805D000BF00BF4FF0FF30BDE8D1
:103E3000F09F3546C5EBC50000EB8000174901EB4C
:103E4000C00400BF00BF0120207015480078207119
:103E500013480078401C12490870C4F81081C4F857
:103E600014913846FCF7B8FAFF2803D23846FCF71D
:103E7000B3FA00E0FF2082465246394604F10C00B6
:103E8000FCF786FA002104F10C0000F80A1028461D
:103E9000FFF79CFE6FF00400C9E70000A4A6002015
:103EA000AC0000202DE9F04105460C4617468CB1C8
:103EB00010482168016000BF0FF0D0FC204604F0DC
:103EC00089FD0646324629460BA0FCF797FB0FF00A
:103ED000EFFC09E000BF0FF0C1FC29460AA0FCF787
:103EE0008DFB0FF0E5FC00BF01200E490860BDE826
:103EF000F08100005C030020444E533A20257320DB
:103F00002D3E2025730D0A00444E533A2025732080
:103F10007265736F6C7665206661696C65640D0A05
:103F200000000000580300202DE9F04106460D4630
:103F3000174698461648006840B13DB136B1307812
:103F400020B13046FCF748FAFF2803D96FF00D0086
:103F5000BDE8F0810FA13046FCF745FA18B91048CA
:103F600028600020F4E7304604F044FC0446601C5E
:103F700018B9304600F052F80446601C10B12C60AD
:103F80000020E5E7424639463046FFF715FFDFE7F8
:103F9000A80000206C6F63616C686F737400000090
:103FA0007F00000108B5144820F0030013490860A1
:103FB00013A004F01FFC009000BF00BF144800686D
:103FC000C0B90DF011FA124908600846006888B1BE
:103FD00000BF00BF00220F490D4800680CF0CEFF63
:103FE00000220D490A4800680DF038FA69460020A1
:103FF00000F01AFA08BD000007AB0020B80000204E
:104000003230382E36372E3232322E3232320000F3
:10401000A800002000500108B140000870B5054616
:10402000002427E0C4EBC40000EB8000144911F821
:10403000300003281CD1C4EBC40000EB80000A460A
:1040400002EBC00000F10C012846FCF7CCF978B96E
:1040500000BF00BF00BF00BF00BF00BFC4EBC40073
:1040600000EB8000064901EBC000D0F80C0170BDE8
:10407000601CC4B2042CD5DB4FF0FF30F7E7000022
:10408000A4A60020014600BF11F8012B02F0C000D9
:10409000C02800D108E002E0491C501EC2B2002A2C
:1040A000FADC08780028EFD100BF481C70470000F8
:1040B0002DE9FE4F1546DDF830B02889B0F5007FB8
:1040C00002DD00BF00BFACE028891A2802DA00BF79
:1040D00000BFA6E02A89002354480168284607F05B
:1040E0000BF82989884279D150480668308804F055
:1040F0000FFE8046B8F1040F70DAC8EBC80000EB81
:1041000080004B4901EBC0042078022878D10320BD
:104110002070F07800F00F006071B08804F0F8FDB6
:104120008246F08804F0F4FD8146B07800F080000B
:1041300020B1607910B9BAF1010F02D000BF00BF01
:104140005FE03A4801680C3104F10C00FFF716FEFD
:1041500010B100BF00BF54E0344800680C30FFF7D6
:1041600091FF071D46E03846FFF78CFF0746386889
:104170000090786801903889ADF80800BDF800001B
:10418000B0F5807F2BD1BDF80200B0F5807F26D13D
:10419000BDF80800B0F5806F21D1019804F0D6FD7C
:1041A000A0602449A068884201D90846A060D7F8D9
:1041B0000A10C4F80C1100BF00BF00BF00BF00BF51
:1041C00000BFD4F8100140B104F5867104F10C0071
:1041D000D4F81031D4F81421984722E010E0BDF84B
:1041E000080004F095FD07F10A014718A9F1010044
:1041F0001FFA80F9B9F1000FB5DC00BF00BF00E085
:104200000FE0D4F8100138B1002104F10C00D4F80B
:104210001031D4F81421984700202070C4F8100100
:1042200000BF284607F00CF8BDE8FE8FB80000205C
:10423000A4A60020803A09002DE9F74F82B0074676
:10424000894600BF00BF00BF022F0CDB00BF0FF08C
:1042500005FB4FF40F734DA251A157A0FCF7CEF907
:104260000FF026FB00BF00BF00BF5D4800EB8700DA
:1042700018B15B4850F8270060B900BF0FF0EEFAA4
:1042800040F23D2341A257A14BA0FCF7B7F90FF034
:104290000FFB00BF00BF00224FF48871104606F0EC
:1042A00073FA0546002D6AD000BF286860B100BFD0
:1042B0000FF0D4FA40F2432334A253A13EA0FCF7FE
:1042C0009DF90FF0F5FA00BF00BFD5F8048000207B
:1042D000C8F80000C8F80400C8F80800049804F002
:1042E00017FDA8F80000012088F802000002A8F8D5
:1042F000040008F10C044E46761E00BF761CA3464F
:10430000641C0020009007E030782070641C009846
:10431000401CC0B20090761C30782E2802D0307835
:104320000028F1D100988BF8000030780028E5D102
:1043300004F8010B4FF48070ADF80400ADF80600EE
:1043400001982060AA88201D801A81B2284607F0B3
:104350006BF9234800EB87013522324800680CF0E6
:104360008DFE1F4800EB8702352329462D48006843
:104370000DF098F88246284606F062FF01E04FF003
:10438000FF3A504605B0BDE8F08F00004C57495049
:104390005C7372635C636F72655C646E732E630042
:1043A000646E7320736572766572206F7574206F0A
:1043B0006620617272617900417373657274696F0E
:1043C0006E206661696C65643A2025732C206669ED
:1043D0006C652025732C206C696E652025640A00AD
:1043E000B0000020646E7320736572766572206879
:1043F0006173206E6F20495020616464726573732D
:10440000207365740000000070627566206D75731E
:104410007420626520696E206F6E65207069656327
:1044200065000000A800002002280ADA054A126888
:104430003AB131B129B10A681AB1034A0B6842F89E
:1044400020307047A8000020B000002070B506465C
:1044500000BF0FF003FA34A0FCF7D0F80FF028FAF1
:1044600000BF03E04FF4FA700FF0E2FA36484068FC
:104470000028F7D000BF0FF0F1F93348001D04F019
:10448000A9FA0546294631A0FCF7B8F80FF010FA52
:1044900000BF00203A49086000233A4A3A493BA04D
:1044A000FFF742FD04466CB900BF0FF0D7F936485C
:1044B00004F090FA0546294638A0FCF79FF80FF063
:1044C000F7F914E0601D40B900BF0FF0C7F93CA038
:1044D000FCF794F80FF0ECF909E000BF0FF0BEF91B
:1044E000214640A0FCF78AF80FF0E2F900BF002552
:1044F00003E064200FF09CFA6D1CB5F5FA7F03DA37
:104500001F4800680028F4D01D48006840B900BF6B
:104510000FF0A4F937A0FCF771F80FF0C9F900BF4C
:1045200000200FF0B3FA70BD444E53207461736BDA
:104530003A2077616974696E6720666F722049500E
:104540002E2E2E0D0A0000001CDF0120444E5320A9
:104550007461736B3A20676F742049502025732C67
:10456000207265736F6C76696E67207777772E623D
:10457000616964752E636F6D2E2E2E0D0A0000008A
:1045800058030020A53E00085C0300207777772EB3
:1045900062616964752E636F6D000000444E533A8A
:1045A000207777772E62616964752E636F6D202D99
:1045B0003E2025732028636163686564290D0A0025
:1045C000444E533A20726571756573742071756538
:1045D0007565642C2077616974696E672E2E2E0DC7
:1045E0000A000000444E533A206572726F72202513
:1045F000640D0A00444E533A2074696D656F7574FA
:104600000D0A000010B5044600BF00BF00F00AF814
:10461000002203494FF47A7008F0ECF910BD000055
:104620000546000810B50448006818B100BF00BF77
:10463000FFF7C0FA10BD0000A80000200349096878
:1046400060F3C711014A116070470000008002400A
:104650000349096860F34611014A11607047000080
:10466000008002400349096860F31041014A11606B
:1046700070470000008002401FB500240020009019
:104680000190029003902548006964F38500234956
:1046900008616846FDF752F821490198884205D320
:1046A00020490198884201D2022430E01D49019836
:1046B000884205D31C490198884201D2032426E090
:1046C00019490198884205D318490198884201D2B6
:1046D00000241CE015490198884205D3144901982B
:1046E000884201D2012412E011490198884205D381
:1046F00010490198884201D2042408E00D4901982C
:10470000884204D30C490198884200D80524034804
:10471000006964F38500014908611FBD0080024003
:10472000002D3101C00E16020087930300E1F5054C
:1047300080D1F00880B2E60E00882A1100B5034649
:10474000587800F02FF89878FFF782FFD878FFF7B5
:1047500075FF187900F084FC587900F05FFAD87979
:1047600000F0E0FA187A00F02BFC987AFFF77AFF55
:10477000D87A00F049FA187B00F05AFA587B00F01A
:1047800019FE00BD00210170C170817081724170FD
:1047900081714172C17241710173C1710172017104
:1047A000417370470349096860F30411014A1160BD
:1047B000704700000080024008B508490968C90830
:1047C0004FF47A72B1FBF2F14143009100BF00BF98
:1047D00000994A1E00920029F9D108BD000000206E
:1047E00002783B49096862F35961394A116042799C
:1047F0003749096862F38601354A11608278344985
:10480000096862F35641324A1160027930490968F9
:1048100062F30D212E4A1160C2782D49096862F3B6
:1048200010412B4A116042782949096862F3D75137
:10483000274A116082792649096862F34101244AB6
:104840001160C2792249096862F38F31204A1160F0
:10485000027A1F49896962F39A611D4A9161427A1D
:104860001B49896962F35961194A9161827A184931
:10487000896962F31861164A9161C27A144989699B
:1048800062F35551124A9161027B1149896962F3C1
:1048900090310F4A9161427B0D49896962F3C711DA
:1048A0000B4A9161827B0A49896962F38611084A41
:1048B0009161C27B0649896962F3C401044A91612E
:1048C000027C0349896962F38201014A9161704760
:1048D0000090024070B505461446002015B1012D28
:1048E00045D120E0234E3160002015E001EB40125D
:1048F0004FF480161660C0EB401606EB801604EBF2
:10490000061696605E1E864204D901EB40162036DC
:10491000D66000E0D160401C9842E7D3164E36695D
:10492000154E316123E0154E3160002018E001EB97
:1049300040124FF00046166044F2F0565660C0EB4D
:10494000401606EB801604EB061696605E1E864245
:1049500004D901EB40162036D66000E0D160401C3F
:104960009842E4D3044EF668034EF16000BF00BFE6
:1049700070BD0000040000200090024008000020EC
:104980000149486170470000009002400146002044
:10499000024A52690A4002B1012070470090024069
:1049A0000F2872D2DFE800F0080F161D242B3239D1
:1049B00040474E555C636A00354AD26961F3000294
:1049C000334BDA6161E0324AD26961F34102304B24
:1049D000DA615AE02E4AD26961F382022C4BDA6125
:1049E00053E02B4AD26961F3C302294BDA614CE0F0
:1049F000274AD26961F30412254BDA6145E0244A63
:104A0000D26961F34512224BDA613EE0204AD26955
:104A100061F386121E4BDA6137E01D4AD26961F3F9
:104A2000C7121B4BDA6130E0194AD26961F30822E0
:104A3000174BDA6129E0164AD26961F34922144B17
:104A4000DA6122E0124AD26961F38A22104BDA61FC
:104A50001BE00F4AD26961F34D320D4BDA6114E06D
:104A60000B4AD26961F38E32094BDA610DE0084AD4
:104A7000D26961F3CF32064BDA6106E0044AD269AB
:104A800061F31042024BDA6100BF00BF70470000C3
:104A90000090024038B505460C46002000900A2DD3
:104AA00055D2DFE805F0050C131A2128383F464D92
:104AB0002848806964F341002649886147E0254819
:104AC000806964F382002349886140E0214880695D
:104AD00064F386101F49886139E01E48806964F3D9
:104AE000C7101C49886132E01A48806964F34D3070
:104AF000184988612BE01748806964F31450154900
:104B000088610846806900900120FFF755FE114931
:104B1000009888611BE00F48806964F355500D4987
:104B2000886114E00B48806964F318600949886162
:104B30000DE00848806964F359600649886106E021
:104B40000448806964F39A600249886100BF00BF2D
:104B500038BD000000900240002101708171417158
:104B60000172C1704173817281730174C1714172AC
:104B7000012181700021C173C172012101710021E5
:104B800001734170704721B1426822F000424260D7
:104B900003E0426842F00042426070470448006807
:104BA00000F0010008B1012070470020FCE7000080
:104BB000009002400348006820F00100401C0149B9
:104BC000086070470090024001460868C0F30D403D
:104BD000704700000349096860F3CB21014A116066
:104BE00070470000008002400349096860F38E317D
:104BF000014A1160704700000080024001480068CF
:104C000080687047040000200349096860F353413D
:104C1000014A1160704700000080024003490968A2
:104C200060F38A21014A1160704700000080024051
:104C30000349096860F39651014A1160704700000A
:104C40000080024000B585B001212648FCF770FEC7
:104C5000012007F003FB0320FCF732FD08220721A7
:104C60000020FCF70BFD07F0CDFA00F0EDF9FFF79F
:104C7000A1FF00BFFFF792FF0128FBD01A48FFF702
:104C800081FD012018490870084600F05CF810B951
:104C9000002005B000BD6846FFF75EFF01208DF8DB
:104CA00009008DF80B008DF810008DF800008DF8CC
:104CB00001008DF803008DF80A0020208DF8020015
:104CC0008DF8040000208DF807006846FFF788FD86
:104CD00001210E20FFF764FE01210620FFF760FE90
:104CE0000120D6E70E0044000CDF01200179427953
:104CF00041EA02220A49096C62F30F01084A116471
:104D0000C1780906827841EA0241427841EA0221EB
:104D100002781143024A526C014A51647047000004
:104D2000008002400349096860F30C31014A1160B8
:104D3000704700000080024010B5002204213D2091
:104D400005F0AAFC10BD10B50446FFF795FC00F075
:104D50003FF808B9002010BD2046FFF7EFFC012006
:104D6000F9E7000030B503460C46002116480069FB
:104D700063F3CF20144D28612846006964F38A103C
:104D800028612846006920F0020028612846006951
:104D900020F00100401C286100BF491C0A484069FE
:104DA00010800948006900F0010010B107488142F5
:104DB000F3D30648814201D1002030BD024840694A
:104DC00010800120F9E7000000800240FFFF0F0083
:104DD00038B500200090002500244FF40042002147
:104DE000084600F029F808B9002038BD002400E08A
:104DF000641C10488442FBD300BF6D1C6A4600212E
:104E00000846FFF7AFFF08B90020EEE7BDF8000045
:104E100000F4004010B107488542EED3002400E0C2
:104E2000641C04488442FBD3854201D10020DCE7A6
:104E30000120DAE7FFFF0F0030B503460C460021E2
:104E40001648406962F30F00144D686128460069F6
:104E500063F3CF2028612846006964F38A10286133
:104E60002846006920F00200801C2861284600695D
:104E700020F00100401C286100BF491C0748006960
:104E800000F0010010B106488142F6D30448814287
:104E900001D1002030BD0120FCE70000008002406D
:104EA000FFFF0F001CB500200090019001214FF47E
:104EB0004010FCF73DFD01213D48FCF739FD012183
:104EC0003B48401CFCF734FD01213948801CFCF7AD
:104ED0002FFD01213648C01CFCF72AFD0121344872
:104EE000401DFCF725FD0B220221324801F0ABFDED
:104EF00001208DF8070002208DF8060000208DF8B3
:104F000004000420009000208DF80500694629481F
:104F100001F05CFD0B220121274801F094FD0220E5
:104F200000906946244801F051FD0B2211462348A8
:104F300001F089FD0B220C21204801F084FD0B2299
:104F40000D211E4801F07FFD4FF46050009069462E
:104F50001A4801F03BFD0B220721164801F073FDB2
:104F60008020009002208DF806006946114801F06B
:104F70002DFD0B220421104801F065FD0B220521B7
:104F80000D4801F060FD3020009002208DF80600F1
:104F90006946094801F01AFD0B220121054801F07C
:104FA00052FD022000906946024801F00FFD1CBD31
:104FB00001003000000002400008024000040240EE
:104FC0000349096860F34D31014A116070470000E0
:104FD0000080024000B500220F480068006800F021
:104FE0000040B0B90C480068006800F4004080B987
:104FF00009480068006800F4807050B106480068F5
:10500000006800F4007020B103480068FFF7DCFD81
:105010000246104600BD00000800002038B50446D6
:10502000002000900748006864F38200054908608A
:105030000846006800900120FFF7BEFB0149009878
:10504000086038BD0080024010B501210348FCF71C
:1050500095FC00210148FCF791FC10BD19001000DF
:105060000349096860F34921014A11607047000053
:10507000008002403EB504460025002000900190CB
:10508000029023480068006800F0004090B10020C2
:1050900000908020FFF77AFC38B18020FFF770FC89
:1050A0001C48806800201B4988609DE8070084E850
:1050B00007003EBD16480068008800F40040B0B903
:1050C00013480068008800F4807080B110480068C0
:1050D000008800F4007050B10D4800680068C0F30B
:1050E0000D40051F0A4800688068019000E0002517
:1050F000009507480068029005480068C0680449A8
:1051000008609DE8070084E8070000BFD1E70000C1
:105110000800002000900240F8B507460D461646EC
:10512000002000900024012F7DD100BF641C6A463E
:1051300001210020FFF716FE08B90020F8BDBDF8D8
:10514000000000F0040010B946488442EED3454800
:10515000844201D10020F1E700244FF48052002165
:105160000846FFF769FE08B90020E7E74FF47A70B8
:105170000EF05EFC00BF641C6A4601210020FFF7B0
:10518000F1FD08B90020D9E7BDF8000000F02000CB
:1051900010B934488442EED33248844201D1002011
:1051A000CCE76A461F210020FFF7DCFD08B900208C
:1051B000C4E76A461F210020FFF7D4FD08B900208C
:1051C000BCE7BDF8000000F01C00182805D1012044
:1051D000FFF700FD0120FFF707FDBDF8000000F01C
:1051E0001C00082805D10020FFF7F4FC0120FFF780
:1051F000FBFCBDF8000000F01C00142805D10120C4
:10520000FFF7E8FC0120FFF7EFFCBDF8000000F01D
:105210001C00142824D10020FFF7DCFC0120FFF73C
:10522000E3FC1DE0FFE7280240EA463082B200219D
:105230000846FFF701FE08B900207FE7012E03D1E1
:105240000120FFF7D1FC02E00020FFF7CDFC012D8B
:1052500003D10120FFF7BEFC02E00020FFF7BAFCFB
:1052600001206BE7FFFF0F0010B5012000F03EF8B2
:1052700001210520FFF70EFC0120FFF7CFFE0121E1
:105280000420FFF707FC01210020FFF703FC10BDFD
:1052900010B500210420FFF7FDFB00210846FFF7B1
:1052A000F9FB0020FFF7BAFE01210520FFF7F2FB12
:1052B000002000F01BF810BD10B5FFF73DFD0121E7
:1052C0000948FCF735FB01210748401CFCF730FB7F
:1052D00001210548801CFCF72BFBFFF7E3FDFFF7DE
:1052E000B1FC0446204610BD1900300038B5044614
:1052F000002000900748006864F3C3000549086077
:105300000846006800900120FFF756FA014900980E
:10531000086038BD0080024008B50849096841F2BC
:105320009412B1FBF2F14143009100BF00BF00991C
:105330004A1E00920029F9D108BD0000000000209B
:1053400010B5044619480068006800F0004008B134
:10535000002010BDC4F30C001449096848601348CC
:105360000068006840F040501049096808600F4824
:105370000068006840F000400C490968086004209B
:10538000FFF704FB38B10420FFF7FAFA0848406839
:105390000020074948600120FFF7BEFF034800686E
:1053A000C068024908600120D3E700000400002023
:1053B000009002400349096860F3D751014A116027
:1053C00070470000008002402DE9FC4705468846F2
:1053D000164600BF6DB90EF041FA67A340F2BB223A
:1053E0006BA16FA0FBF70AF90020002000BFBDE809
:1053F000FC8700BF70892A2810DA00BF00BF7248FE
:10540000408C401C81B270484184C08B401C81B2EA
:105410006D48C183304605F013FFE8E7776807F170
:105420000E042088B0F5807F08D12079062805D1A8
:105430006079042802D16088082810D000BF00BF1E
:105440006148008D401C81B25F480185C08B401CC3
:1054500081B25D48C183304605F0F2FEC7E75A4885
:10546000408B401C81B258484183D4F80E00019013
:10547000A0690090281D08B1686810B94FF00009B4
:1054800007E000986968884201D1012000E000200F
:105490008146B9F1000F01D0012000E0022003464F
:1054A00004F1080201A9284600F0F8FEE088B0F5F2
:1054B000807F03D0B0F5007F4FD147E000BF00BF31
:1054C000B9F1000F39D000BF00BF022003F020FC6B
:1054D000E080D4F80E00A0616868C4F80E0000BF38
:1054E00095F82A0006280CD000BF0EF0B7F940F25C
:1054F000113321A2354936A0FBF780F80EF0D8F918
:1055000000BF00BFA068C4F81200A089E082A068B4
:105510003860A089B880D8F80000A060B8F804000E
:10552000A081D8F80000C7F80600B8F80400788118
:1055300031462846AA69904707E0281D08B16868E7
:1055400008B900BF01E000BF00BF0FE000BF00BF0F
:1055500001A92846FCF724FB08E000BF00BF1A4859
:10556000808D401C81B21848818500BF00BF304645
:1055700005F066FE00BF3AE74C5749505C73726312
:105580005C6E657469665C6574686172702E630038
:105590006E6574696620213D204E554C4C0000001C
:1055A000417373657274696F6E20222573222066C1
:1055B00061696C6564206174206C696E6520256486
:1055C00020696E2025730A00F86201201C52010830
:1055D000417373657274696F6E206661696C65648E
:1055E0003A2025732C2066696C652025732C206C6D
:1055F000696E652025640A0070B50546002412E036
:1056000004EB8400094901EB8000867C4EB104EB79
:10561000840001EB80008068A84202D1204600F09F
:105620008BF9601CC4B20A2CEADB70BD0465012052
:105630002DE9FE4F064688464FF00A09CA460A275A
:105640000024002002900190BB46009000BF75E04E
:1056500004EB8400814901EB8000857C0A2F04D192
:105660001DB900BF00BF67B266E0002D64D000BF67
:10567000012D0ED0022D0CDA00BF0EF0EFF840F233
:105680002B1377A27CA18CA0FAF7B8FF0EF010F9CB
:1056900000BF00BF6EB104EB8401704A02EB8101D0
:1056A00030684968884204D100BF00BF60B2BDE8DD
:1056B000FE8F012D2AD104EB8400684951F82000A7
:1056C00088B104EB840001EB8000C17C009881422A
:1056D00032DB4FFA84FB04EB8400604901EB80006D
:1056E000C07C009028E004EB84005C4901EB800062
:1056F000C17C029881421FDB4FFA84F904EB8400DD
:10570000564901EB8000C07C029015E0022D13DBAE
:10571000042D11DA04EB8400504901EB8000C17CB8
:105720000198814208DB4FFA84FA04EB84004B496C
:1057300001EB8000C07C0190601CC4B20A2C87DBA6
:1057400008F0020020B90A2F07D108F0010020B9A3
:1057500000BF00BF4FF0FF30A9E70A2F02DAFCB20A
:1057600000BF42E0BAF10A0F18DA0AF0FF0400BFE6
:1057700000BF00BF04EB8400384951F8200060B13D
:1057800000BF0EF06BF840F2711335A254A14AA08D
:10579000FAF734FF0EF08CF800BF12E0B9F10A0FEF
:1057A00003DA09F0FF0400BF0BE0BBF10A0F03DAD4
:1057B0000BF0FF0400BF04E000BF00BF4FF0FF305C
:1057C00075E700BF0A2C0CDB00BF0EF047F840F273
:1057D000831323A248A138A0FAF710FF0EF068F84F
:1057E00000BF00BF204600F0A7F800BF0A2C0CDB6A
:1057F00000BF0EF033F840F2871319A23EA12EA08D
:10580000FAF7FCFE0EF054F800BF00BF00BF04EB37
:105810008400124901EB8000807C60B100BF0EF073
:105820001DF84FF4C4730EA238A123A0FAF7E6FEC8
:105830000EF03EF800BF00BF36B104EB8401074A0A
:1058400002EB810130684860002004EB8401034AC8
:1058500002EB8101C87460B229E7000004650120F1
:105860004C5749505C7372635C6E657469665C6525
:1058700074686172702E63007374617465203D3DBD
:10588000204554484152505F53544154455F504560
:105890004E44494E47207C7C207374617465203EE1
:1058A0003D204554484152505F53544154455F5345
:1058B0005441424C45000000417373657274696F36
:1058C0006E206661696C65643A2025732C206669D8
:1058D0006C652025732C206C696E652025640A0098
:1058E0006172705F7461626C655B695D2E71203DF1
:1058F0003D204E554C4C000069203C204152505FE9
:105900005441424C455F53495A4500006172705FF3
:105910007461626C655B695D2E7374617465203DB2
:105920003D204554484152505F53544154455F45D2
:105930004D5054590000000010B5044604EB84009B
:10594000194951F8200070B100BF00BF04EB840179
:10595000154A52F8210005F073FC002004EB840185
:10596000114A42F82100002004EB84010E4A02EBA8
:105970008101887404EB840102EB8101C87404EB9B
:10598000840102EB8101886004EB840102EB810158
:10599000486004EB8400114601EB800003490A686B
:1059A000C2608988018210BD046501200E50010883
:1059B0002DE9FC4704460F461546A94600BF64B9C9
:1059C00000BF0DF04BFF40F2753363A268A16CA0DD
:1059D000FAF714FE0DF06CFF00BF00BF00BF67B9FF
:1059E00000BF0DF03BFF40F276335BA26EA164A0D6
:1059F000FAF704FE0DF05CFF00BF00BF00BF65B901
:105A000000BF0DF02BFF40F2773353A269A15CA0D9
:105A1000FAF7F4FD0DF04CFF00BF00BF0E21384631
:105A200005F01CFD50B100BF00BF66484089401C16
:105A3000644948816FF00100BDE8FC872146286871
:105A400001F0A9FD10B1DFF880817DE0287800F039
:105A5000F000E02815D101208DF8000000208DF81D
:105A600001005E208DF80200687800F07F008DF85C
:105A70000300A8788DF80400E8788DF80500E84662
:105A800061E02868A1680840D4E901121140884209
:105A900010D0288880B24FF6A96188420AD004F15C
:105AA0000C0020B1E06810B104F10C0902E06FF0C5
:105AB0000300C1E74548007800EB8000444901EB52
:105AC0008000807C022818DB4049097801EB8101C5
:105AD0003F4A02EB8101D9F80000496888420CD1A5
